:020000040800F2
:10000000780D00204D3C0008553C0008573C000886
:10001000593C00085B3C00085D3C00080000000003
:100020000000000000000000000000005F3C00082D
:10003000613C000800000000633C0008653C0008CB
:10004000673C0008673C0008673C0008A3310008D3
:10005000673C0008673C0008673C0008673C0008F4
:10006000673C0008673C0008673C0008D73400087C
:10007000673C0008673C0008673C0008673C0008D4
:10008000673C0008673C0008673C0008673C0008C4
:100090007D1C0008673C0008673C0008673C0008BE
:1000A000673C0008673C0008673C0008A33600086E
:1000B00023840008673C000809390008673C0008F1
:1000C000673C0008673C0008673C0008673C000884
:1000D000673C0008191200085D120008A112000810
:1000E000673C0008673C0008673C0008000000000F
:1000F0000000000000000000000000000000000000
:10010000000000000000000067070008673C0008CE
:10011000E512000829130008673C0008673C000846
:10012000673C0008673C0008673C0008673C000823
:10013000673C0008673C0008673C0008673C000813
:10014000DB200008673C0008673C00082B8400089F
:10015000DFF80CD008F0C2FB00480047910100080E
:10016000780D002010B503F0B7FC00208A49087014
:1001700001F088FB02F051FC02F073FD00F030F951
:1001800047214FF6FF7003F0C5F901F0BDFC10BD2B
:10019000FFF7E8FF0120814908708148007800F0EE
:1001A000FE00401C7E49087008460178702002F06D
:1001B0004AFD01207B4981F832000121794880F80D
:1001C0003310808E642190FBF1F201FB120075491F
:1001D00091F8321001EB4102C2EBC11100EBC101F9
:1001E000704890F8330000EBC00202EB001001EB06
:1001F00080006C4988866C4888636C496948C16393
:100200006B4901646B4941646B486649886401200D
:100210006A490870B7E06A480078C0F3001070B10E
:100220006748007820F0100065490870634800783E
:10023000012802D101F008FB01E001F00EFB61484A
:100240000078C0F3400038B15E48007820F002002A
:100250005C49087002F07EFB5A480078C0F34010F9
:10026000002860D05748007820F0200055490870D9
:100270005549886808F035FA5349C86000208860FD
:10028000886908F02EFA5049C86100214E48816102
:100290000146886A08F025FA4B49C86200214A489D
:1002A00081620146886B08F01CFA4749C863002147
:1002B000454881630146C86808F025FA39494883F2
:1002C0004149C869414908F0BBF80546404908F072
:1002D000E9F8044608F017FA81B2324881833A49B6
:1002E000C86A3A4908F0ACF805463A4908F0DAF825
:1002F000044608F008FA81B22A48C1833249C86B23
:1003000008F001FA81B227480184808B2549C8850D
:100310000846C08B0886084690F833101A3030F82B
:1003200011002049888402F04AFD2B48007800F033
:10033000010040BB29480078072824D126480078CE
:1003400020F00100401C244908701C480078012856
:100350000BD10220194908701148007800F07F0085
:1003600040F080000E49087008E001201349087031
:100370000B48007800F07F000949087008480178B0
:10038000702002F060FC46E700BF0100A0F101020E
:1003900090B2FAD170470000000000203002002027
:1003A0000100002088000020DF4F8540190426400E
:1003B000B4C8963F31082C3F0000B641020000202F
:1003C0004E000020050000204C0600200000704276
:1003D0000000384200004040500000204F00002044
:1003E0001FB50121082004F089F86320ADF808004A
:1003F00040F2CF20ADF804000020ADF80A00ADF8BF
:10040000060001A9DE4804F0A9FB0121DC4805F043
:10041000DBF901221146DA4804F017FF0121D84820
:1004200004F0F8FE00214FF0006003F058FC4FF498
:10043000407003F01DFC32208DF800000F208DF875
:10044000010000208DF8020001208DF803006846AD
:1004500003F013FC1FBDCB488088401CC94988802D
:1004600008460068401C0860C7480078C0F30010C8
:1004700090B10846C088401CC8800846C08840F239
:10048000DC51884208DB0020BE49C880BE480078A5
:1004900020F01000BC490870BC480078C0F3400050
:1004A00098B1BB480078C82805DAB9480078401CE4
:1004B000B749087009E00020B54988700870B34852
:1004C000007820F00200B1490870B2480078C0F30B
:1004D000400098B1B0480078C82805DAAE480078E6
:1004E000401CAD49087009E00020AB4988700870D5
:1004F000A848007820F00200A6490870A14880882A
:100500000A2190FBF1F201FB1200E8B9A348007840
:1005100020F00400001DA1490870A149087800EBF3
:10052000D0714910A0EB4101012906D19D48007806
:1005300020F0100010309B4908709348007820F09C
:1005400008000830904908708E488088642190FB2C
:10055000F1F201FB1200A8B99149087800EBD071C3
:100560004910A0EB410131B98E48007820F010000D
:1005700010308C4908708448007820F00100401C3D
:10058000814908707F488088642190FBF1F201FB6B
:10059000120030B98148007820F00200801C7F49A9
:1005A000087078488088B0F57A7F6EDB7E480078E6
:1005B00001280CD17C484078032805DA7A48407835
:1005C000401C7949487002E000207749C8607648AD
:1005D000007C01280DD17448407C032806DA72485B
:1005E000407C401CC1B27048417402E000216E485A
:1005F000C1616D4890F82000012810D16A4890F838
:100600002100032808DA684890F82100401CC1B294
:10061000654880F8211002E000216348C162624809
:1006200090F83000012810D15F4890F8310003287D
:1006300008DA5D4890F83100401CC1B25A4880F891
:10064000311002E000215848C16358480078012861
:100650000CD156484078032805DA54484078401CAD
:100660005249487002E000205049C8604F48007C61
:1006700001280ED14D48407C032807DA4B48407CC6
:10068000401CC1B24948417403E06BE00021474877
:10069000C161464890F82000012810D1434890F8E5
:1006A0002100032808DA414890F82100401CC1B21B
:1006B0003E4880F8211002E000213C48C1623B48DE
:1006C00090F83000012810D1384890F83100032804
:1006D00008DA364890F83100401CC1B2334880F83F
:1006E000311002E000213148C16300202549888093
:1006F0000846007A401C08722D480078002804DD66
:100700002B480078401E2A4908701F48007820F0C6
:100710000200801C1C4908700846007820F0200068
:10072000203008701D48007820F00100401C1B4953
:1007300008701448007A3C2814DB00201149087224
:100740001148007820F00400001D0F4908700D4882
:10075000407A401C0B4948720846407A3C2801DB2D
:1007600000204872704710B50121054805F01BF8BC
:1007700028B10121024805F027F8FFF76CFE10BDF3
:10078000000C0040D4000020050000200C000020D8
:10079000E00000200B000020200100204D00002080
:1007A000300200204E0000200C0600204C060020E5
:1007B0008800002038B504460D46FE4951F8241043
:1007C000FD4A52F82420114341F00100012103F0B9
:1007D00088FE34B9F94951F82400012103F081FE63
:1007E0001BE0012C0AD10121082003F0E0FBF349B2
:1007F00051F82400012103F081FE0EE0022C06D105
:10080000EE4951F82400012103F078FE05E0EB49A0
:1008100051F82400012103F071FE18208DF8030027
:10082000E74830F81400ADF8000003208DF802000E
:10083000E44951F82400694603F0E8FA04208DF8F1
:100840000300E14830F81400ADF80000DF4951F82A
:100850002400694603F0DAFADD4951F824002946FC
:1008600003F0E7FEDA4951F82400012103F06DFF9F
:1008700038BD1CB50121202003F033FE0820ADF85F
:10088000040003208DF8060010208DF8070001A950
:10089000D04803F0BBFA0821CE4803F066FB0020E5
:1008A000CD498870CD498870CD498870CD49887010
:1008B000CD4988704FF4E130CC4908600020888031
:1008C000C880088188810C2048810120FFF772FFD1
:1008D000012240F22551C64803F043FF002240F2B6
:1008E0002771C34803F03DFF40F22661C04804F081
:1008F00047F8BE490320FFF75DFF012240F2255172
:10090000BC4803F02EFF002240F22771B94803F0E3
:1009100028FF40F22661B74804F032F8B3490420BA
:10092000FFF748FF012240F22551B34803F019FFB9
:10093000002240F22771B04803F013FF40F2266115
:10094000AD4804F01DF800214FF0006003F0C7F936
:100950004FF4407003F08CF925208DF80000002042
:100960008DF801008DF8020001208DF80300684623
:1009700003F083F926208DF8000000208DF8010097
:100980008DF8020001208DF80300684603F075F928
:1009900027208DF8000000208DF801008DF802005E
:1009A00001208DF80300684603F067F934208DF8C4
:1009B000000000208DF801008DF8020001208DF864
:1009C0000300684603F059F935208DF80000002037
:1009D0008DF801008DF8020001208DF803006846B3
:1009E00003F04BF91CBD70B504460D462946204660
:1009F00003F018FF00BF4021204603F081FF0028CC
:100A0000F9D070BD70B504460D460821714803F059
:100A1000AAFA0A20FFF7B8FC2946204603F002FF95
:100A200000BF4021204603F06BFF0028F9D00821C9
:100A3000684803F09AFA70BDF0B58FB003460C46D3
:100A4000012111E0585C402806DD585C3738C6B2F9
:100A5000481E0DF8006005E0585C3038C6B2481EEC
:100A60000DF80060481CC1B2601C8142EADB002224
:100A700000210BE04800401C1DF800601DF811002B
:100A800006EB0010104482B2481CC1B204EBD476CD
:100A9000B1EB660FEEDB1046D61702EB1666361288
:100AA000A2EB0626B2B2C2F5807082B21046D6170B
:100AB00002EB16663612A2EB0626F5B228460FB0F8
:100AC000F0BD70B54D4803F0B1FEC6B24248807823
:100AD000A8B93A2E12D100203F4908704848007842
:100AE00020F00200801C464908703B488178C01CF9
:100AF0004654C01E8078401C37498870B4E03648A0
:100B000080783C287EDA34488178C01C4654C01E68
:100B10008078401C304988700846C0783A28EDD16A
:100B2000084680780428E9DB08468078401EC91C06
:100B3000085C0A2867D1C81E8078801E085C0D28D2
:100B400061D1C81E8078401FC1B22348C01CFFF786
:100B500073FF054620488078001F1F49C91C085CA8
:100B60003A280ADAC81E8078001F085C302190FB02
:100B7000F1F201FB1200C4B20EE017488078001FAA
:100B80001549C91C085C412190FBF1F201FB1200E0
:100B9000C4B204F10A00C4B22007040E0E488078E3
:100BA000C01E0D49C91C085C3A2836DAC81E807878
:100BB000C01E29E050890008648900083C890008AB
:100BC000788900082400002082890008380000206D
:100BD0001000002000140140E0000020200100204F
:100BE00060010020A0010020E00100202002002080
:100BF00000440040004C00400050004000380140DC
:100C00000C0000202DE02FE0085C302190FBF1F279
:100C100001FB12002044C4B20FE0FE488078C01EE1
:100C2000FC49C91C085C412190FBF1F201FB120058
:100C30002044C4B204F10A00C4B2A54206D1F64869
:100C4000007820F00100401CF34908700020F149B1
:100C500088700870F048007820F00200EE490870B3
:100C600002E00020EB49887070BD70B5EB4803F0DE
:100C7000DDFDC6B2EA488078A8B93A2E12D100202C
:100C8000E7490870E748007820F00200801CE54939
:100C90000870E3488178C01C4654C01E8078401C10
:100CA000DF4988708CE0DE4880783C287EDADC48BA
:100CB0008178C01C4654C01E8078401CD84988707A
:100CC0000846C0783A287BD108468078042877DB2C
:100CD00008468078401EC91C085C0A2870D1C81ECE
:100CE0008078801E085C0D286AD1C81E8078401F5D
:100CF000C1B2CB48C01CFFF79FFE0546C8488078AC
:100D0000001FC749C91C085C3A280ADAC81E807847
:100D1000001F085C302190FBF1F201FB1200C4B20D
:100D20000EE0BF488078001FBD49C91C085C412106
:100D300090FBF1F201FB1200C4B204F10A00C4B24C
:100D40002007040EB6488078C01EB549C91C085C4F
:100D50003A280BDAC81E8078C01E085C302190FB50
:100D6000F1F201FB12002044C4B20FE0AC488078DD
:100D7000C01EAB49C91C085C412190FBF1F201FB8C
:100D800012002044C4B204F10A00C4B2A54206D144
:100D9000A448007820F00100401CA24908700020FF
:100DA0009F49887008709C48007801E005E007E0E2
:100DB00020F001009849087002E0002098498870EE
:100DC00070BD70B5984803F031FDC6B29748807881
:100DD000A8B93A2E12D1002094490870944800789E
:100DE00020F00200801C9249087090488178C01C55
:100DF0004654C01E8078401C8C4988708CE08B481B
:100E000080783C287EDA89488178C01C4654C01E10
:100E10008078401C854988700846C0783A287BD184
:100E200008468078042877DB08468078401EC91C75
:100E3000085C0A2870D1C81E8078801E085C0D28C6
:100E40006AD1C81E8078401FC1B27848C01CFFF725
:100E5000F3FD054675488078001F7449C91C085C7D
:100E60003A280ADAC81E8078001F085C302190FBFF
:100E7000F1F201FB1200C4B20EE06C488078001F52
:100E80006A49C91C085C412190FBF1F201FB120088
:100E9000C4B204F10A00C4B22007040E634880788B
:100EA000C01E6249C91C085C3A280BDAC81E80784B
:100EB000C01E085C302190FBF1F201FB12002044BF
:100EC000C4B20FE059488078C01E5849C91C085C5C
:100ED000412190FBF1F201FB12002044C4B204F165
:100EE0000A00C4B2A54206D15148007820F00100A2
:100EF000401C4F49087000204C49887008704C48CD
:100F0000007801E005E007E020F0020048490870A1
:100F100002E000204549887070BD70B5454803F077
:100F200085FCC6B244488078A8B93A2E12D1002078
:100F3000414908704148007820F00200801C3F4978
:100F400008703D488178C01C4654C01E8078401C03
:100F500039498870A3E0384880783C2870DA3648F0
:100F60008178C01C4654C01E8078401C324988706D
:100F70000846C0783A28EDD1084680780428E9DB95
:100F800008468078401EC91C085C0A287ED1C81E0D
:100F90008078801E085C0D2878D1C81E8078401F9C
:100FA000C1B22548C01CFFF747FD0546224880789E
:100FB000001F2149C91C085C3A280ADAC81E80783B
:100FC000001F085C302190FBF1F201FB1200C4B25B
:100FD0000EE019488078001F1749C91C085C4121A0
:100FE00090FBF1F201FB1200C4B204F10A00C4B29A
:100FF0002007040E10488078C01E0F49C91C085CE9
:101000003A2823DAC81E8078C01E085C302190FB85
:10101000F1F216E0E00000200C0000200044004047
:10102000200100200B00002000480040600100204B
:101030000A000020004C0040A00100200900002010
:101040002AE001FB12002044C4B20FE0C7488078B8
:10105000C01EC649C91C085C412190FBF1F201FB8E
:1010600012002044C4B204F10A00C4B2A54206D161
:10107000BF48007820F00100401CBD4908700020E6
:10108000BA4988700870BA48007800E007E020F09C
:101090000200B749087002E00020B449887070BDB2
:1010A00070B5B44803F0C2FBC6B2B3488078A8B9A3
:1010B0003A2E12D10020B0490870B048007820F0D4
:1010C0000200801CAD490870AB488178C01C4654B2
:1010D000C01E8078401CA84988708CE0A6488078A3
:1010E0003C287DDAA4488178C01C4654C01E807814
:1010F000401CA14988700846C0783A287BD1084630
:101100008078042877DB08468078401EC91C085C7C
:101110000A2870D1C81E8078801E085C0D286AD10C
:10112000C81E8078401FC1B29348C01CFFF784FCE2
:10113000054691488078001F8F49C91C085C3A28F1
:101140000ADAC81E8078001F085C302190FBF1F29B
:1011500001FB1200C4B20EE087488078001F864968
:10116000C91C085C412190FBF1F201FB1200C4B2E2
:1011700004F10A00C4B22007040E7F488078C01E24
:101180007D49C91C085C3A280BDAC81E8078C01E4D
:10119000085C302190FBF1F201FB12002044C4B244
:1011A0000FE075488078C01E7349C91C085C412156
:1011B00090FBF1F201FB12002044C4B204F10A00DA
:1011C000C4B2A54206D16D48007820F00100401C51
:1011D0006A4908700020684988700870674801E013
:1011E00006E008E0007820F002006449087002E0A0
:1011F00000206149887070BD70B504460D46E1B2AB
:101200005F4803F00FFB00BF40215D4803F078FB0F
:101210000028F9D0204670BD10B540F2255159483C
:1012200003F084FB30B140F22551564803F0A8FB8F
:10123000FFF747FC40F22771524803F077FB20B1DB
:1012400040F227714F4803F09BFB08214D4803F003
:1012500057FB10B14B4803F0E9FA10BD10B540F24E
:101260002551474803F062FB30B140F22551444814
:1012700003F086FBFFF7F9FC40F22771404803F0CA
:1012800055FB20B140F227713D4803F079FB08215E
:101290003B4803F035FB10B1394803F0C7FA10BDE5
:1012A00010B540F22551384803F040FB30B140F210
:1012B0002551354803F064FBFFF783FD40F22771A9
:1012C000314803F033FB20B140F227712E4803F080
:1012D00057FB08212C4803F013FB10B12A4803F0F8
:1012E000A5FA10BD10B540F22551284803F01EFBA9
:1012F00030B140F22551254803F042FBFFF70DFEC7
:1013000040F22771214803F011FB20B140F2277110
:101310001E4803F035FB08211C4803F0F1FA10B118
:101320001A4803F083FA10BD10B540F22551114858
:1013300003F0FCFA30B140F225510E4803F020FBD7
:10134000FFF7AEFE40F227710A4803F0EFFA20B132
:1013500040F22771074803F013FB0821054803F00A
:10136000CFFA10B1034803F061FA10BDA0010020CC
:101370000900002000500040E0010020080000208B
:10138000004400400038014000480040004C00404C
:1013900070B5002500244FF48071F84802F0C9FDB3
:1013A00008B1601CC4B26006040E8021F34802F04C
:1013B000C0FD08B1601CC4B26006040E4FF4806129
:1013C000EE4802F0B6FD08B1601CC4B26006040E1F
:1013D0004FF40071E94802F0ACFD08B1601CC4B2E2
:1013E0004FF48051E54802F0A4FD4FF40061E3485A
:1013F00002F09FFD4FF48041E04802F09AFD18B1E1
:101400000120DF49887002E00020DD498870102C3F
:101410001DD2DFE804F01A1C100C1C1C1C08120E54
:1014200018161C0A1C14012513E0022511E00325DF
:101430000FE004250DE005250BE0062509E0112548
:1014400007E0122505E0132503E0202501E0202513
:1014500000BF00BFCA4845708078012803D1202012
:10146000C749087103E0C6484078C549087170BD96
:1014700010B5C4480078C0F3001010B3C14800781C
:1014800020F01000BF490870FFF782FFBC48407889
:10149000BB490871BB480078C0F3C00088B94878E0
:1014A000C11700EB11710222B2EB211F0AD1B5481E
:1014B000007820F008000830B2490870EE20B249E8
:1014C000087002E0FF20B0490870B0480078C0F30F
:1014D000400048B1AD48007820F00200AB490870E8
:1014E000A948007800F0F5FE10BD70B504460D4621
:1014F000E11704EB1171091100296ED10121A448F3
:1015000002F031FD8021A34802F02DFD2046E117B5
:1015100004EB11710911A4EB011107297ED2DFE858
:1015200001F0D904274A6E93B60085B90121994884
:1015300002F019FD0221974802F017FD0421954899
:1015400002F013FD0821934802F00FFD0FE0012186
:10155000904802F008FD02218E4802F006FD0421A9
:101560008C4802F000FD08218A4802F0FEFCB2E03F
:1015700085B90121874802F0F8FC0221854802F074
:10158000F4FC0421834802F0EEFC0821814802F0BB
:10159000ECFC0FE001217F4802F0E5FC02217D48D0
:1015A00002F0E3FC04217B4802F0DDFC08217948CD
:1015B00002F0DBFC8FE08DB90121764802F0D3FC0C
:1015C0000221744802F0CFFC0421724802F0CDFCE5
:1015D0000821704802F0C9FC10E07DE001216D484F
:1015E00002F0C1FC02216B4802F0BDFC04216948F5
:1015F00002F0B9FC0821674802F0B7FC00BF95B9BA
:101600000121644802F0B1FC0221624802F0ABFC07
:101610000421604802F0A7FC082100E05AE05D4880
:1016200002F0A3FC0FE001215A4802F09CFC0221C9
:10163000584802F098FC0421564802F094FC082116
:10164000544802F092FC46E085B90121514802F06D
:101650008AFC02214F4802F086FC04214D4802F02A
:1016600084FC08214B4802F07EFC0FE00121494830
:1016700002F079FC0221474802F075FC042145483C
:1016800002F071FC0821434802F06DFC23E085B9AB
:101690000121404802F069FC02213E4802F063FC4F
:1016A00004213C4802F05FFC08213A4802F05BFC50
:1016B0000FE00121374802F056FC0221354802F0C4
:1016C00052FC0421334802F04EFC0821314802F05C
:1016D0004AFC00E000BFB6E0E11704EB1171012203
:1016E000B2EB211F7BD10121294802F03CFC802173
:1016F000284802F03AFC2046E11704EB1171091169
:10170000A4EB0111012904D0022925D0032979D1A4
:1017100053E085B901211F4802F027FC02211D4832
:1017200002F023FC04211B4802F01FFC0821194889
:1017300002F01BFC0FE00121164802F014FC02210C
:10174000144802F012FC0421124802F00CFC08219B
:10175000104802F00AFC56E0F5B901210D4802F0EC
:1017600004FC02210B4802F0FEFB0421094802F0B0
:10177000FCFB0821074802F0F8FB1DE000180140BF
:10178000300200204E000020030000200500002051
:10179000000C0140000801400121D74802F0E3FBA2
:1017A0000221D54802F0DFFB0421D34802F0DBFB25
:1017B0000821D14802F0D9FB25E095B90121CE4896
:1017C00002F0D3FB0221CC4802F0CDFB0421CA4831
:1017D00002F0CBFB0821C84802F0C5FB11E013E082
:1017E00010E00121C44802F0BEFB0221C24802F011
:1017F000BAFB0421C04802F0B6FB0821BE4802F043
:10180000B2FB00E000BF1EE0E11704EB1171022201
:10181000B2EB211F17D10121B84802F0A6FB8021AD
:10182000B54802F0A0FB0121B34802F09CFB022165
:10183000B14802F098FB0421AF4802F094FB082164
:10184000AD4802F090FB70BD10B5FFF7A1FDAC4AAA
:1018500091785078FFF749FE10BD10B5FFF798FD5D
:10186000A748807840B9A6494878C11700EB1171A4
:10187000091109B1A2494878A14A91785078FFF737
:1018800034FE10BD08B50121402002F02AFE4FF4BD
:101890008070ADF8000003208DF8020004208DF860
:1018A00003006946974802F0B1FA0121402002F096
:1018B00018FE8020ADF8000003208DF802000420FF
:1018C0008DF8030069468F4802F0A0FA01214020FC
:1018D00002F007FE4FF48060ADF8000003208DF8A1
:1018E000020004208DF803006946864802F08EFA53
:1018F0000121402002F0F5FD4FF40070ADF800002A
:1019000003208DF8020004208DF8030069467D480D
:1019100002F07CFA0121402002F0E3FD4FF48050F8
:10192000ADF8000003208DF8020004208DF80300BC
:101930006946744802F06AFA0121402002F0D1FDA4
:101940004FF40060ADF8000003208DF80200042081
:101950008DF8030069466B4802F058FA01214020D7
:1019600002F0BFFD4FF48040ADF8000003208DF879
:10197000020004208DF803006946624802F046FA2E
:101980000121402002F0ADFD4FF40050ADF8000001
:1019900003208DF8020004208DF8030069465948A1
:1019A00002F034FA0121042002F09BFD0120ADF881
:1019B000000003208DF8020010208DF80300694616
:1019C0004D4802F023FA0121042002F08AFD022092
:1019D000ADF8000003208DF8020010208DF8030000
:1019E0006946454802F012FA0121042002F079FD0F
:1019F0000420ADF8000003208DF8020010208DF8BF
:101A0000030069463C4802F001FA0121042002F07B
:101A100068FD0820ADF8000003208DF802001020BA
:101A20008DF803006946344802F0F0F901210420E2
:101A300002F057FD4020ADF8000003208DF80200B1
:101A400010208DF8030069462B4802F0DFF90121D0
:101A5000042002F046FD8020ADF8000003208DF840
:101A6000020010208DF803006946234802F0CEF9E9
:101A70000121082002F035FD0120ADF8000003200F
:101A80008DF8020010208DF8030069461B4802F013
:101A9000BDF90121082002F024FD0220ADF800006C
:101AA00003208DF8020010208DF8030069461348CA
:101AB00002F0ACF90121104802F055FA02210E485B
:101AC00002F051FA04210C4802F04DFA08210A48AC
:101AD00002F049FA4021084802F045FA8021064800
:101AE00002F041FA0121054802F03DFA02210348C3
:101AF00002F039FA08BD000000080140000C014066
:101B000030020020001801401CB50121084602F0F7
:101B1000E8FC0121202002F0E4FC0121202002F059
:101B2000E0FC0121082002F0DCFC0121082002F089
:101B3000D8FC01214FF0C06002F0E0FC0120ADF8BC
:101B4000040048208DF8070001A9FE4802F05EF964
:101B50002020ADF8040048208DF8070001A9FA48BC
:101B600002F054F90220ADF8040018208DF80700A7
:101B700003208DF8060001A9F24802F047F9402041
:101B8000ADF8040018208DF8070003208DF806003A
:101B900001A9ED4802F03AF901214FF4EB1002F0EF
:101BA00006FA0121E94802F002FAE94804F038F89F
:101BB000E84804F035F8E84804F056F90020E64912
:101BC0008871C871087248728872C8728870C8704B
:101BD000022008710420487110200880DC4804F0BD
:101BE00038F8DD49DB4804F034F80020DB4988721E
:101BF000C872012008730020088048808880C8804F
:101C0000088101204873084604F0ADF80E20D3493E
:101C10008872084604F0A7F801220221CC4804F09B
:101C2000A1FB01220221CB4804F09CFB00214FF0D4
:101C3000006002F054F84FF4407002F019F81420DC
:101C40008DF8000002208DF8010000208DF80200C0
:101C500001208DF80300684602F00FF840208DF84F
:101C6000000003208DF8010000208DF80200012003
:101C70008DF80300684602F000F81CBD2DE9F04124
:101C8000B74A0021B24804F052FAB5484068B54955
:101C9000884214D1B248817BC07B01EB0020B2495D
:101CA0008885888D06F022FD064600224FF07F537E
:101CB00006F036FC044606F03AFDAB498885A84894
:101CC0004068AA49884213D1A548007BA64981F8FB
:101CD000260091F8260006F009FD0646A44AA54B09
:101CE00006F01EFC044606F022FD9F4981F82600FE
:101CF0000020A14908609A48406848600020487266
:101D000004200872082088729548C07AC8729448E6
:101D1000017B994801739248417B974841739048F1
:101D2000817B954881738E48C17B9348C1738C48F1
:101D3000017C914801748A48417C8F4841748848ED
:101D4000817C8D4881740146824804F0FBF8844808
:101D500040688A49884273D189480078C0F380007E
:101D600020B388490879C11700EB1171091119B91D
:101D700088208149C87244E082490879C11700EB84
:101D800011710122B2EB211F03D172207A49C8726E
:101D900037E07C490879C11700EB11710222B2EBE0
:101DA000211F2ED17D207449C8722AE07549087917
:101DB000C11700EB1171091129B9724800798730F8
:101DC0006D49C8721DE06F490879C11700EB1171A8
:101DD0000122B2EB211F06D16A480079C0F18300CD
:101DE0006549C8720DE067490879C11700EB1171A8
:101DF0000222B2EB211F04D1624800795D305E49B6
:101E0000C8726049C878C11700EB1171091131B966
:101E10005C48C0788730C1B25748817320E0594987
:101E2000C878C11700EB11710122B2EB211F08D154
:101E30005448C078C0F18300C1B24F4881730FE0AD
:101E400029E05049C878C11700EB11710222B2EBAA
:101E5000211F05D14B48C0785D30C1B2464881731F
:101E60000020454908604848486000204872042026
:101E700008720820887200213F480173417343486B
:101E800001783D48C1730021017441748174014699
:101E9000304804F057F8324840683249884279D1D6
:101EA0000020354908603A48486000204872042004
:101EB0000872082088722C49C889C11700EB11618B
:101EC0000912A0EB01212C4AD1722749C889C117F8
:101ED00000EB11610A0A28490A732349088AC117CD
:101EE00000EB11610912A0EB0121CAB222494A7329
:101EF0001D49088AC11700EB11610A0A1E498A733D
:101F00001949488AC11700EB11610912A0EB0121A0
:101F1000CAB21949CA731449488AC11700EB116142
:101F20000A0A15490A741049888AC11700EB116121
:101F30000912A0EB0121CAB20F494A740A49888AE2
:101F4000C11728E000140140000C014040002000AF
:101F500000640040006800403C020020480200206D
:101F60006C0200200004F00C880000200003F00C3C
:101F70009A9999999999D93F8002002000F2FE1808
:101F80004E000020300200200305F018030000205E
:101F90000005F00C41E000EB11610A0A52498A7415
:101FA000524803F0CFFF00204F4908605048486076
:101FB0000020487204200872082088724D49C88A9F
:101FC000C11700EB11610912A0EB0121464AD17241
:101FD0004849C88AC11700EB11610A0A42490A73CD
:101FE0004449088BC11700EB11610912A0EB0121D4
:101FF000CAB23D494A733F49088BC11700EB1161D2
:102000000A0A39498A7300213748C173017441743F
:1020100081740146354803F095FF374840683749D9
:10202000884258D100203049086035484860002077
:10203000487204200872082088722E49488BC11704
:1020400000EB11610912A0EB0121274AD172294945
:10205000488BC11700EB11610A0A23490A7325490D
:10206000888BC11700EB11610912A0EB0121CAB2E4
:102070001D494A731F49888BC11700EB11610A0A79
:1020800019498A731B49C88BC11700EB11610912EA
:10209000A0EB0121CAB21449CA731649C88BC117F3
:1020A00000EB11610A0A10490A741249088CC11721
:1020B00000EB11610912A0EB0121CAB20A494A746E
:1020C0000C49088CC11700EB11610A0A06498A7491
:1020D000064803F037FFBDE8F08110B5094A00213A
:1020E000024804F024F810BD80020020006800407F
:1020F0000006F00C880000206C0200200003F00CA9
:102100000007F00C9402002070B50446002521E081
:102110000421FB4801F029FF0120FEF735F904F006
:102120008006802E04D10221F54801F01CFF03E057
:102130000221F34801F019FF0120FEF725F960069E
:10214000040E0421EE4801F00EFF0120FEF71CF9F9
:10215000681CC5B2082DDBDB70BD70B504460D46AA
:102160000121E74801F001FF0120FEF70DF90020F1
:10217000FFF7CAFF0020FFF7C7FF0120FEF704F9B1
:10218000E0B2FFF7C1FFE8B2FFF7BEFF0120FEF7A4
:10219000FBF80020FFF7B8FF0020FFF7B5FF012193
:1021A000D74801F0E0FE0120FEF7EEF870BD70B5F3
:1021B00004460D460121D24801F0D7FE0120FEF76A
:1021C000E3F8E0B2FFF7A0FFE8B2FFF79DFF0120C0
:1021D000FEF7DAF80020FFF797FF0020FFF794FFE3
:1021E0000120FEF7D1F80020FFF78EFF0020FFF757
:1021F0008BFF0121C24801F0B6FE0120FEF7C4F8B2
:1022000070BD70B504460D460121BD4801F0ADFE1C
:102210000120FEF7B9F80020FFF776FF0020FFF756
:1022200073FF0120FEF7B0F80020FFF76DFF0020DC
:10223000FFF76AFF0120FEF7A7F8E0B2FFF764FF9F
:10224000E8B2FFF761FF0121AD4801F08CFE0120EB
:10225000FEF79AF870BD10B500210F20FFF7D1FFEF
:1022600000210F20FFF779FF00210F20FFF79FFFCC
:1022700002210A20FFF7C5FF02210A20FFF76DFFA8
:1022800002210A20FFF793FF07210B20FFF7B9FF78
:1022900007210B20FFF761FF07210B20FFF787FFC6
:1022A00000210920FFF7ADFF00210920FFF755FFAE
:1022B00000210920FFF77BFF01210C20FFF7A1FF80
:1022C00001210C20FFF749FF01210C20FFF76FFFD0
:1022D00010BD70B50446FFF7BEFF2046E11704EBC2
:1022E00011710911A4EB0111864A555C294607209A
:1022F000FFF733FF2046E11704EB11710911814A02
:10230000555C29460820FFF728FF70BD2DE9F041F4
:1023100005460F461646FFF79EFF642095FBF0F139
:1023200000FB1150C5B2012F1ED10A2095FBF0F021
:10233000C4B27448045D022E01D144F080042146E9
:102340000120FFF70AFF0A2095FBF0F100FB115076
:10235000C4B26C48045D012E01D144F080042146D2
:102360000220FFF7FAFE61E0022F1ED10A2095FB42
:10237000F0F0C4B26348045D022E01D144F0800441
:1023800021460320FFF7E9FE0A2095FBF0F100FB50
:102390001150C4B25B48045D012E01D144F08004A9
:1023A00021460420FFF7D9FE40E0032F1ED10A206A
:1023B00095FBF0F0C4B25348045D022E01D144F005
:1023C000800421460520FFF7C8FE0A2095FBF0F1A6
:1023D00000FB1150C4B24B48045D012E01D144F002
:1023E000800421460620FFF7B8FE1FE0042F1DD110
:1023F0000A2095FBF0F0C4B24248045D022E01D1E0
:1024000044F0800421460720FFF7A7FE0A2095FB31
:10241000F0F100FB1150C4B23A48045D012E01D125
:1024200044F0800421460820FFF797FEBDE8F081C4
:1024300070B504460D46FFF70EFF012D73D13248EB
:102440000078C0F3800060B12E48867B31460320BF
:10245000FFF783FE2B48867B31460420FFF77DFE85
:102460002FE1E11704EB1171091139BBE11704EBFE
:1024700011710911A4EB011199B12248867A3146F4
:102480000320FFF76AFE2046E11704EB11710911E2
:10249000A4EB01111B4A565C31460420FFF75DFE98
:1024A0000FE11848867A31460320FFF756FE15489B
:1024B000467B31460420FFF750FE02E1E11704EBB2
:1024C00011710122B2EB211F2ED1E11704EB117122
:1024D0000911A4EB0111C9B10A48C67A314603209B
:1024E000FFF73BFE2046E11704EB11710911A4EB45
:1024F0000111044A565C31460420FFF72EFEE0E04D
:10250000001801408C8900084E000020FE48C67A61
:1025100031460320FFF721FEFB48467B314604206D
:10252000FFF71BFECDE02EE0E11704EB1171022254
:10253000B2EB211F94D1E11704EB11710911A4EB47
:10254000011199B1F048067B31460320FFF705FEE3
:102550002046E11704EB11710911A4EB0111EA4ABD
:10256000565C31460420FFF7F8FDAAE0E648067BFA
:1025700031460320FFF7F1FDE348467B3146042056
:10258000FFF7EBFD9DE0022D8AD1E0480078C0F313
:10259000800060B1DC48867B31460120FFF7DDFD1D
:1025A000D948867B31460220FFF7D7FD89E0E11745
:1025B00004EB1171091139BBE11704EB1171091119
:1025C000A4EB011199B1D048867A31460120FFF77A
:1025D000C4FD2046E11704EB11710911A4EB0111B0
:1025E000C94A565C31460220FFF7B7FD69E0C6488C
:1025F000867A31460120FFF7B0FDC348467B31465D
:102600000220FFF7AAFD5CE0E11704EB1171012243
:10261000B2EB211F27D1E11704EB11710911A4EBD3
:10262000011199B1B848C67A31460120FFF795FDEE
:102630002046E11704EB11710911A4EB0111B24A14
:10264000565C31460220FFF788FD3AE0AE48C67A74
:1026500031460120FFF781FDAB48467B3146022021
:10266000FFF77BFD2DE0E11704EB11710222B2EBC5
:10267000211F26D1E11704EB11710911A4EB0111FF
:1026800099B1A148067B31460120FFF766FD20463F
:10269000E11704EB11710911A4EB01119A4A565C80
:1026A00031460220FFF759FD0BE09748067B314683
:1026B0000120FFF752FD9448467B31460220FFF788
:1026C0004CFD70BD2DE9F04105460F461646FFF75B
:1026D000C2FD42F2107095FBF0F100FB115085B283
:1026E000012F46D14FF47A7095FBF0F0C4B28648C2
:1026F000045D042E01D144F0800421460120FFF73F
:1027000080FD4FF47A7095FBF0F100FB11506421CD
:1027100090FBF1F0C4B27C48045D032E01D144F07B
:10272000800421460220FFF76CFD642095FBF0F148
:1027300000FB11500A2190FBF1F0C4B27248045D15
:10274000022E01D144F0800421460320FFF759FDF9
:102750000A2095FBF0F100FB1150C4B26A48045DF9
:10276000012E01D144F0800421460420FFF749FDE9
:1027700047E0022F45D14FF47A7095FBF0F0C4B2D8
:102780006148045D042E01D144F0800421460520F7
:10279000FFF737FD4FF47A7095FBF0F100FB115015
:1027A000642190FBF1F0C4B25748045D032E01D1BF
:1027B00044F0800421460620FFF723FD642095FBAA
:1027C000F0F100FB11500A2190FBF1F0C4B24E4829
:1027D000045D022E01D144F0800421460720FFF75A
:1027E00010FD0A2095FBF0F100FB1150C4B24648E1
:1027F000045D012E01D144F0800421460820FFF73A
:1028000000FDBDE8F0812DE9F04105460F46164672
:10281000FFF721FD42F2107095FBF0F100FB115023
:1028200085B2012F46D14FF47A7095FBF0F0C4B217
:102830003548045D042E01D144F080042146012076
:10284000FFF7B5FC4FF47A7095FBF0F100FB1150E7
:10285000642190FBF1F0C4B22B48045D032E01D13A
:1028600044F0800421460220FFF7A1FC642095FB80
:10287000F0F100FB11500A2190FBF1F0C4B22248A4
:10288000045D022E01D144F0800421460320FFF7AD
:102890008EFC0A2095FBF0F100FB1150C4B21A48DF
:1028A000045D012E01D144F0800421460420FFF78D
:1028B0007EFC4DE0022F4BD14FF47A7095FBF0F087
:1028C000C4B21148045D042E01D144F080042146B5
:1028D0000520FFF76CFC4FF47A7095FBF0F100FBDC
:1028E0001150642190FBF1F0C4B20748045D032E3F
:1028F00001D144F0800421460620FFF758FC6420F3
:1029000095FBF0F104E000008C8900084E000020E7
:1029100000FB11500A2190FBF1F0C4B27048045D35
:10292000022E01D144F0800421460720FFF73FFC2E
:102930000A2095FBF0F100FB1150C4B26848045D19
:10294000012E01D144F0800421460820FFF72FFC1E
:10295000BDE8F08110B56348408C0A2190FBF1F08E
:1029600084B2032201212046FFF74DFF5D49888E86
:1029700000220221FFF747FF5A49888D00220121DA
:10298000FFF7A0FE5749888C00220221FFF79AFE2C
:10299000554948790221FFF74BFD53490879012138
:1029A000FFF746FD4F4890F82600642805DB00221B
:1029B00003216320FFF7AAFC06E04A4991F82600AC
:1029C00000220321FFF7A2FC48480078FFF781FCB2
:1029D00010BD10B5012405E000212046FFF7E7FBFC
:1029E000601CC4B2082CF7DD10BD10B5012405E051
:1029F00000212046FFF7B1FB601CC4B2082CF7DDB4
:102A000010BD10B5012405E000212046FFF7F9FBB9
:102A1000601CC4B2082CF7DD10BD08B501214020B0
:102A200001F05FFD0121402001F05BFD012140200C
:102A300001F057FD0220ADF8000003208DF80200E0
:102A400010208DF803006946294801F0DFF90120C4
:102A5000ADF8000003208DF8020010208DF803006F
:102A60006946234801F0D2F90420ADF800000320A4
:102A70008DF8020010208DF8030069461C4801F013
:102A8000C5F902211A4801F070FA0121184801F035
:102A90006AFA0421164801F068FAFFF7DCFBFFF739
:102AA000B0FFFFF7A2FFFFF794FF08BD70B5054622
:102AB0000E461446012C04D131462846FFF7A1FBEF
:102AC0000CE0022C04D131462846FFF746FB05E016
:102AD000032C03D131462846FFF769FB70BD000087
:102AE0008C890008880000203002002003000020AC
:102AF0000018014010B50821D14801F036FA0A202B
:102B0000FDF742FC2021CE4801F02DFA0A20FDF706
:102B10003BFC0821CA4801F026FA0A20FDF734FCE4
:102B200010BD38B50121402001F0DBFC0820ADF8D4
:102B3000000003208DF8020004208DF80300694690
:102B4000BF4801F063F90A20FDF71EFC2021BC48B4
:102B500001F009FA0A20FDF717FC01E0601CC4B27D
:102B60000821B74801F0E5F9012801D1C82CF5DBAF
:102B70000A20FDF709FC2021B14801F0F6F90A20EE
:102B8000FDF702FC0121402001F0ABFC0820ADF86C
:102B9000000003208DF8020010208DF80300694624
:102BA000A74801F033F90A20FDF7EEFB38BD70B5F8
:102BB00005462021A24801F0D8F90A20FDF7E4FBE0
:102BC00080241DE004EA050020B108219C4801F0A2
:102BD000CAF903E008219A4801F0C7F90A20FDF775
:102BE000D3FB2021964801F0BEF90A20FDF7CCFB6B
:102BF0002021934801F0B9F90A20FDF7C5FB6410C4
:102C0000002CDFDC08218E4801F0ADF90A20FDF729
:102C1000BBFBFFF786FF70BD10B50821884801F0A7
:102C2000A2F90A20FDF7B0FB2021854801F09BF9AD
:102C30000A20FDF7A9FB0821814801F096F90A2036
:102C4000FDF7A2FB10BD70B505460C46FFF7E4FF8B
:102C50002846FFF7ACFF2046FFF7A9FFFFF74AFF22
:102C600070BD08B50121402001F03BFC2020ADF8EB
:102C7000000003208DF8020010208DF80300694643
:102C80006F4801F0C3F80121402001F02AFC082020
:102C9000ADF8000003208DF8020010208DF803002D
:102CA0006946674801F0B2F82021654801F05DF9F6
:102CB0000821634801F059F900217020FFF7C3FF94
:102CC00008BD10B520215E4801F04FF90A20FDF73C
:102CD0005BFB08215A4801F046F90A20FDF754FB36
:102CE0002021574801F03FF90A20FDF74DFB202134
:102CF000534801F03AF90A20FDF746FB10BD38B5FC
:102D00000121402001F0EDFB0820ADF80000032078
:102D10008DF8020004208DF803006946484801F050
:102D200075F80A20FDF730FB0024002518E0600646
:102D3000040E2021424801F018F90A20FDF724FB77
:102D400020213F4801F00FF90A20FDF71DFB082163
:102D50003B4801F0EEF808B144F00104681CC5B22C
:102D6000082DE4DB2021364801F0FFF80A20FDF7AA
:102D70000BFB0121402001F0B4FB0820ADF800005E
:102D800003208DF8020010208DF8030069462C48BE
:102D900001F03CF80A20FDF7F7FAFFF792FF204612
:102DA00038BD70B50446FFF737FF2046FFF7FFFE3A
:102DB000FFF7A5FF0546FFF79DFE284670BD10B53D
:102DC00000247320FFF7EDFF0446FE2C03D1012001
:102DD0001C49087032E0FD2C03D10220194908700B
:102DE0002CE0FB2C03D103201649087026E0F72CB9
:102DF00003D104201349087020E0EF2C03D10520F3
:102E0000104908701AE0DF2C03D106200D49087024
:102E100014E0BF2C03D107200A4908700EE07F2C74
:102E200003D108200749087008E00748007820F01F
:102E300001000549087000200249087010BD00001B
:102E4000001801404F0000205000002010B5012163
:102E50004FF0C05001F052FB012003F0EAFC03F0F8
:102E60007BFC012001F036FA00BF412001F066F939
:102E70000028FAD04FF4807001F048FA012001F0E8
:102E80004BFA03F02AFC03F01FFC0121084603F073
:102E9000BFFB03F019FC47F6FF7003F0EFFB03F0F4
:102EA00013FC10BD0146CA1701EB92729210A1EB00
:102EB000820292B9642091FBF0F200FB121050B92B
:102EC0004FF4C87091FBF0F200FB121008B901201A
:102ED00070470020FCE70120FAE70020F8E72DE921
:102EE000F05F06460F4690469946DDE90AAB00249E
:102EF000B6F5FA6F03DB40F63300864202DD0120AF
:102F0000BDE8F09F40F2B2750AE02846FFF7CAFF1D
:102F100010B1AD48044401E0AC480444681C85B2DB
:102F2000B542F2DB781EC7B2002510E0A848405D2C
:102F300040F2A321484304EBC0143046FFF7B2FF30
:102F400018B1012D01D1A3480444681C85B2BD42CB
:102F5000ECDBA8F1010040F2A321484304EBC014CC
:102F6000C9EB4910C0EB092004EB0014CAEB0A10AE
:102F700004EB80045C44012003F05BFC03F0A4FB41
:102F8000204603F06EFB03F09FFB0020B8E70EB570
:102F9000042003F016FC4AF2A551884212D0FFF734
:102FA00055FF00202E2115230F22CDE9001004210A
:102FB00040F2DE70FFF793FF4AF2A551042003F0C0
:102FC000F4FB0EE07B2001F0B9F810B97A2001F093
:102FD000B5F803F082FB0121084603F019FB03F06A
:102FE00073FB01214FF0C05001F088FA012003F07B
:102FF00020FC002003F0BBFB802003F0C0FB01F0AD
:10300000BAFA012003F09EFB03F05EFB00214FF0B3
:10301000006000F064FE4FF4407000F029FE0320D1
:103020008DF808000E208DF8090000208DF80A00A8
:1030300001208DF80B0002A800F01FFE0EBDF0B5B8
:1030400003460C461546642093FBF0F0C6B264209C
:1030500093FBF0F700FB1730C1B2132E02DD01F134
:103060006400C1B20846CF1701EB977701EBA707C1
:10307000BAB2072092FBF0F700FB172082B2571973
:10308000601EDFF854C11CF80000384482B2CF172C
:1030900001EB9777BF10A1EB87071FB9032C01DA6B
:1030A000501E82B2072092FBF0F700FB1720C0B23F
:1030B000F0BD70B500260024002503F0C9FA0646CD
:1030C0004448B6FBF0F445480088A0423CD0434950
:1030D0000C8040F2B27510E02846FFF7E3FE40B1E5
:1030E000B4F5B77F02D3A4F5B77404E0681C85B2C9
:1030F00006E0A4F26D14681C85B2B4F5B67FEBD877
:1031000000BF3748C580002516E03549C888FFF75D
:10311000C9FE30B1012D04D11D2C01D31D3C09E0A5
:103120000CE02B48405DA04203D82948405D241A9A
:1031300000E003E0681C85B21C2CE6D200BF681CCE
:1031400027490872601C48722248B6FBF0F100FB68
:1031500011644FF46160B4FBF0F0214988704FF4C2
:103160006160B4FBF0F100FB11403C21B0FBF1F0D9
:103170001B49C8704FF46160B4FBF0F100FB1140D3
:103180003C21B0FBF1F201FB1200154908710B461E
:103190005A7A197AD888FFF752FF114988720020AD
:1031A00070BD10B5012003F0BDFA58B1012003F045
:1031B000C9FA03F089FA0B48007820F00100401C9E
:1031C0000849087010BD00000085E2018033E1016C
:1031D0009D89000880510100A98900085400002041
:1031E000A80200205200002000B593B00120ADF8E5
:1031F000080000208DF80B0002A9BD4800F006FE73
:103200000121102001F06DF90220ADF80800002026
:103210008DF80B0002A9B64800F0F8FD012110203E
:1032200001F05FF90420ADF8080000208DF80B00D4
:1032300002A9AF4800F0EAFD0121102001F051F988
:103240000820ADF8080000208DF80B0002A9A8485E
:1032500000F0DCFD0121102001F043F91020ADF851
:10326000080000208DF80B0002A9A14800F0CEFD57
:103270000121102001F035F92020ADF808000020D0
:103280008DF80B0002A99A4800F0C0FD012104202E
:1032900001F027F90121084601F016F9954803F0DD
:1032A00023FB954803909548049000200590B42096
:1032B0000690002007908020089040000990800030
:1032C0000A9020200B9000020C9000200D9003A982
:1032D000884803F0ABFB01220221864803F0DDFBA6
:1032E000022003F01CFC0121824803F0CAFB0021EC
:1032F0004FF0006000F0F3FC4FF4407000F0B8FCB9
:103300000B208DF8040002208DF8050000208DF8B8
:10331000060001208DF8070001A800F0AEFC012195
:10332000480201F0DEF800200E9001208DF83C00EC
:103330008DF83D004FF46020109000201190062081
:103340008DF848000EA96C484C3802F068FA052345
:1033500001220A2168484C3802F0F9FA05230222BA
:103360000B2165484C3802F0F2FA052303220C21A8
:1033700061484C3802F0EBFA052304220D215E4827
:103380004C3802F0E4FA05231A460E215A484C380C
:1033900002F0DDFA052306220F2157484C3802F0CF
:1033A000D6FA012154484C3802F070FA01215248F3
:1033B0004C3802F060FA50484C3802F07EFA00BFF8
:1033C0004D484C3802F07EFA0028F9D14A484C3872
:1033D00002F082FA00BF48484C3802F082FA002816
:1033E000F9D1012144484C3802F085FA13B000BDF0
:1033F0002DE9FF5F002438E0002532E0681C86B22A
:103400002BE005EB45003D4901EB800030F814004E
:1034100006EB4601394A02EB810131F8141088426B
:1034200019DD05EB4500114601EB800030F814A0D2
:1034300006EB460001EB800030F8140005EB450177
:1034400002EB810121F8140006EB4600114601EB66
:10345000800020F814A0701C86B21E2ED1DB681CE0
:1034600085B21D2DCADB601C84B2062CC4DB00248F
:103470002DE04FF00009052509E005EB45001F4947
:1034800001EB800030F814008144681C85B2192DCE
:10349000F3DB484605F02AF907464FF06632184B31
:1034A00005F03EF80022174BCDE9000105F0AAF81F
:1034B000CDE9020105F054F983461349584604F05A
:1034C000F1FF8346114840F824B0601C84B2062CFA
:1034D000CFDBBDE8FF9F10B50D48007820F001005C
:1034E000401C0B490870022003F019FB10BD0000BE
:1034F00000100140080002404C240140D00200208E
:1035000066660A400000B0400000A041A00500200F
:103510005600002030B589B004460D4601214020F8
:1035200000F0DFFF0420ADF8080003208DF80A004A
:1035300010208DF80B0002A9FE4800F067FC012165
:10354000082000F0CEFF8020ADF8080004208DF8A0
:103550000B0003208DF80A0002A9F74800F056FC82
:103560000121082000F0BDFF4FF48070ADF8080085
:1035700004208DF80B0003208DF80A0002A9EE4804
:1035800000F044FC0121082000F0ABFF4FF4007074
:10359000ADF8080004208DF80B0003208DF80A0018
:1035A00002A9E54800F032FC0121042000F0A6FF4A
:1035B0000121042000F0A2FF4FF6FF70ADF81C00BF
:1035C0004720ADF818000020ADF81E00ADF81A0035
:1035D00006A9DA4801F0C2FA0420ADF80C00002078
:1035E000ADF80E000120ADF810000020ADF812007B
:1035F000ADF8140003A9D14801F043FD0820ADF84F
:103600000C000020ADF80E000120ADF810000020E5
:10361000ADF81200ADF8140003A9C84801F031FD5F
:103620000C20ADF80C000020ADF80E000120ADF824
:1036300010000020ADF81200ADF8140003A9BF4837
:1036400001F01FFD01221D21BC4801F0FEFD1D21DE
:10365000BA4802F0B9F80121B84801F0DBFD0020BA
:10366000B74908700120087481F8200081F8300003
:103670000021C00600F033FB4FF4407000F0F8FA70
:103680001E208DF8040005208DF8050000208DF81F
:10369000060001208DF8070001A800F0EEFA09B03D
:1036A00030BD2DE9F0410221A64802F07CF8002847
:1036B00042D00020A44948700846807838B9A14813
:1036C00002F052F8A04988800120887030E09D48BF
:1036D00002F04AF89C49C880002088700846C088DB
:1036E0008988884207DD9848C08897498988401AA8
:1036F000954988600CE0944880884FF6FF71081A5D
:103700009149886008468068C98808448E49886065
:103710008D49886804F0EAFF064632460B460020D1
:103720008A4904F06FFF044605F01AF88649C8601C
:103730000221844802F048F80421824802F033F85C
:10374000002840D0002180484174807C40B97D48E9
:1037500002F00DF87C49888201217B4881742EE0BB
:10376000784802F004F87849C882002176488174CC
:10377000C18A808A814206DD7348C18A808A091A1B
:10378000714881610BE07048808A4FF6FF71091A19
:103790006D4881618169C08A01446B4881616A49D1
:1037A000886904F0A3FF064632460B4600206749AD
:1037B00004F028FF044604F0D3FF6349C8610421E4
:1037C000604802F001F808215E4801F0ECFF002893
:1037D00044D000215C4880F8211090F8220048B9BC
:1037E000584801F0C7FF584988840121564880F89D
:1037F00022102FE0534801F0BDFF5349C884002137
:10380000514880F82210C18C808C814206DD4E48E0
:10381000C18C808C091A4C4881620BE04A48808C2C
:103820004FF6FF71091A48488162816AC08C0144D1
:10383000454881624449886A04F058FF064632468A
:103840000B460020414904F0DDFE044604F088FFE9
:103850003D49C86208213B4801F0B6FF10213948B4
:1038600001F0A1FF002844D00021374880F8311032
:1038700090F8320048B9334801F07FFF324988861A
:103880000121314880F832102FE02E4801F075FFF9
:103890002D49C88600212C4880F83210C18E808EB8
:1038A000814206DD2848C18E808E091A2648816330
:1038B0000BE02548808E4FF6FF71091A224881637C
:1038C000816BC08E0144204881631F49886B04F0DE
:1038D0000DFF064632460B4600201C4904F092FEBE
:1038E000044604F03DFF1849C8631021154801F053
:1038F0006BFF0121134801F056FF18B10121114857
:1039000001F062FFBDE8F08110B502210B4801F023
:103910004AFF50B10221094801F056FF0020084932
:10392000487008468068401C88600421034801F004
:103930003AFF0DE000180140000C01400008004073
:103940004C060020002C01400C06002080842E41F3
:1039500050B104211A4801F037FF00211948417481
:103960008069401C174988610821154801F01BFF38
:1039700058B10821124801F027FF0021114880F8B2
:103980002110806A401C0F49886210210C4801F008
:103990000AFF58B110210A4801F016FF002109481A
:1039A00080F83110806B401C06498863012104486F
:1039B00001F0F9FE18B10121014801F005FF10BD29
:1039C000000800404C0600200CB50020019000903B
:1039D0009248006840F480309049086000BF8F48EA
:1039E000006800F4003000900198401C019000989D
:1039F00018B90198B0F5A06FF1D18848006800F4BB
:103A0000003010B10120009001E0002000900098EB
:103A100001285CD18248006840F0100080490860AD
:103A20000846006820F0030008600846006840F07F
:103A30000200086079484068784948600846406854
:103A400048600846406840F4806048600846C06AA4
:103A5000744908407149C8620846C06A72490843FF
:103A60006E49C8620846006840F08060086000BF88
:103A70006A48006800F000600028F9D06748406894
:103A800020F47C10654948600846406840F4E8101E
:103A900048600846006840F08070086000BF5F48DA
:103AA000006800F000700028F9D05C48406820F001
:103AB00003005A4948600846406840F002004860E8
:103AC00000BF5648406800F00C000828F9D10CBD32
:103AD00010B5FFF779FF10BD10B55048006840F0F1
:103AE00001004E49086008464068504908404B496B
:103AF0004860084600684E49084048490860084642
:103B0000006820F4802008600846406820F4FE0029
:103B100048600846006820F0A05008604FF47F001D
:103B200088600020C862FFF7D3FF4FF00060414972
:103B3000086010BDF0B50021002000230024002201
:103B400000250026354F7F6807F00C0121B10429BC
:103B500008D008294BD10BE0374FDFF8E0C0CCF894
:103B600000704AE0364FDFF8D4C0CCF8007044E073
:103B70002A4F7F6807F47010284F7F6807F480335E
:103B8000800C0D2801D0801C00E0062033B92D4F99
:103B90004743DFF8A8C0CCF8007027E01F4FFF6A4A
:103BA00007F480341D4FFF6A07F00F077A1C44B9F1
:103BB000234FB7FBF2F74743DFF880C0CCF8007023
:103BC00014E0164FFF6AC7F303177D1C134FFF6AFB
:103BD000C7F30327BE1C1A4FB7FBF5F77743B7FBB4
:103BE000F2F74743DFF854C0CCF8007005E0124FFD
:103BF000DFF848C0CCF8007000BF00BF074F7F68F7
:103C0000C7F30317DFF840C01CF807100B4F3F68DD
:103C1000CF40DFF828C0CCF80070F0BD00100240A3
:103C20000020024000F0FEFF440601000000FFF00B
:103C3000FFFFF6FE08ED00E000127A0058000020B9
:103C400040787D0100093D005C0000200648804767
:103C500006480047FEE7FEE7FEE7FEE7FEE7FEE771
:103C6000FEE7FEE7FEE7FEE7D93A0008510100084B
:103C700031490143314A1160704770B5002100237A
:103C80000F22C47804B32D4C246804F4E064C4F516
:103C9000E064210AC1F10403CA40447804FA03F144
:103CA0008478144021430901254C0678A1550478F5
:103CB00004F01F050124AC4005786D11AD0005F13D
:103CC000E025C5F8004109E0047804F01F0501244F
:103CD000AC401C4D0678761145F8264070BD1A4A56
:103CE0000A400243154B1B1F1A60704739B1134A33
:103CF000121D12680243114B1B1D1A6006E00F4A89
:103D0000121D126882430D4B1B1D1A607047042858
:103D100008D14FF0E021096941F004014FF0E022A1
:103D2000116107E04FF0E021096921F004014FF033
:103D3000E0221161704700000000FA050CED00E080
:103D400000E400E080E100E080FFFF1F10B50446C2
:103D5000CC48844208D10121042000F0E9FB002175
:103D6000042000F0E5FB46E0C748844208D1012169
:103D7000082000F0DDFB0021082000F0D9FB3AE02C
:103D8000C248844208D10121102000F0D1FB00215B
:103D9000102000F0CDFB2EE0BD48844208D1012167
:103DA000202000F0C5FB0021202000F0C1FB22E014
:103DB000B848844208D10121402000F0B9FB00211D
:103DC000402000F0B5FB16E0B348844208D1012141
:103DD000802000F0ADFB0021802000F0A9FB0AE06C
:103DE000AE48844207D10121801500F0A1FB0021DB
:103DF000A01500F09DFB10BD10B50121084600F094
:103E000097FB0021012000F093FB10BD2DE9F0414C
:103E1000024600250026002000230024002791F8F8
:103E200003C00CF00F0591F803C00CF0100CBCF1AE
:103E3000000F03D091F802C04CEA050591F800C0CC
:103E4000BCF1000F31D0146800202BE04FF0010CC2
:103E50000CFA00F3B1F800C00CEA03069E4220D130
:103E600083004FF00F0C0CFA03F7BC4305FA03FC78
:103E70004CEA040491F803C0BCF1280F06D14FF0BE
:103E8000010C0CFA00FCC2F814C00AE091F803C05F
:103E9000BCF1480F05D14FF0010C0CFA00FCC2F840
:103EA00010C0401C0828D1D31460B1F800C0BCF188
:103EB000FF0F34DD546800202EE000F1080C4FF0B5
:103EC000010808FA0CF3B1F800C00CEA03069E42A0
:103ED00021D183004FF00F0C0CFA03F7BC4305FA15
:103EE00003FC4CEA040491F803C0BCF1280F05D18F
:103EF00000F1080C08FA0CF8C2F8148091F803C01D
:103F0000BCF1480F07D100F1080C4FF0010808FA86
:103F10000CF8C2F81080401C0828CED35460BDE8CD
:103F2000F0814FF6FF710180022181700421C17080
:103F300070470246002093680B400BB1012000E05F
:103F4000002070470146886880B270470246002012
:103F5000D3680B400BB1012000E000207047014600
:103F6000C86880B2704701617047416170470AB10B
:103F7000016100E041617047C16070474FF48032D9
:103F80000A43826181618261826982697047024667
:103F90000020434B18684FF68073184040EA021027
:103FA00008433F4B186070473E49C8617047F0B501
:103FB0000A46002300240021002500F00046B6F147
:103FC000004F02D1364EF16901E0354E7168C0F301
:103FD000034583B200F44016B6F5401F08D121F026
:103FE00070612F4E766826F070662D4F7E6012E06D
:103FF00000F48016B6F5801F06D1032606FA05F4F4
:10400000A14341F0706106E0460D360103FA06F661
:10401000B14341F0706122B1460D360103FA06F654
:10402000314300F00046B6F1004F02D11C4EF16161
:1040300001E01B4E7160F0BD30B500228B071C0FF4
:104040000F2303FA04F2164B08338C1053F8243074
:104050009343134C08348D1044F8253023468C10BC
:1040600053F824308C07240F00FA04F423430C4C3B
:1040700008348D1044F8253030BD0A49DC31086021
:104080007047000000080140000C01400010014092
:104090000014014000180140001C014000200140B4
:1040A0000000014000002042FB48006840F0010091
:1040B000F949086008464068F8490840F6494860F0
:1040C00008460068F6490840F34908600846006859
:1040D00020F4802008600846406820F4FE00486014
:1040E0000846006820F0A05008604FF47F00886008
:1040F0000020C8627047E849096821F48031E64A27
:1041000011601146096821F480211160B0F5803FEB
:1041100003D0B0F5802F0ED106E0DF49096841F4E5
:104120008031DD4A116007E0DB49096841F4A021D4
:10413000D94A116000E000BF00BF704710B50146CA
:104140000022002300204A11012A02D1D24C236808
:1041500006E0022A02D1D04C236A01E0CE4C636A09
:1041600001F01F02012494401C400CB1012000E02A
:10417000002010BD38B5002000900024002500BFAD
:104180003120FFF7DBFF05460098401C00900098A7
:10419000B0F5A06F01D0002DF2D03120FFF7CEFF97
:1041A00008B1012400E00024204638BD014600206B
:1041B000B94A106820F0F80040EAC100106070476A
:1041C000B8490860704702460020B34B586820F495
:1041D000741042EA01031843AF4B58607047B1496D
:1041E0000866704702460020AB4BD86AAE4B1840B9
:1041F00042EA01031843A84BD862704701460020E9
:10420000A54AD06A20F0F0000843D062704701460A
:104210000020A14AD06A20F470600843D062704741
:10422000A04988667047014600209B4AD06A20F466
:1042300070400843D06270479A490867704701464A
:104240000020954A506820F00300084350607047F2
:104250009148406800F00C007047014600208E4AEB
:10426000506820F0F000084350607047014600207D
:10427000894A506820F4E060084350607047014666
:104280000020854A506820F4605040EAC100506028
:10429000704729B1804A527A02437F4B5A7204E038
:1042A0007D4A527A82437C4B5A7270477D49D8319D
:1042B0000860704701460020774A506820F440406B
:1042C0000843506070477949086070477749091D75
:1042D000086070470021704A203211706E4A82F8DF
:1042E0002010012802D004280AD104E001216A4AE2
:1042F0002032117005E00521674A2032117000E07C
:1043000000BF00BF70476A49086070476249096A88
:104310000143614A1162704765494439086070473A
:104320002DE9F04100210022002500230026002471
:1043300000278C46DFF86081D8F8048008F00C0173
:1043400021B1042907D0082959D109E0DFF8648197
:10435000C0F8008058E0DFF86081C0F8008053E0CA
:10436000DFF83481D8F8048008F47012DFF828816F
:10437000D8F8048008F48035920C0D2A01D0921CE4
:1043800000E0062235B9DFF8348102FB08F8C0F8F6
:10439000008033E0DFF80081D8F82C8008F4803604
:1043A000DFF8F480D8F82C8008F00F0808F1010439
:1043B00046B9DFF80481B8FBF4F808FB02F8C0F84E
:1043C00000801BE0DFF8D080D8F82C80C8F30318F9
:1043D00008F10107DFF8C080D8F82C80C8F3032863
:1043E00008F1020CDFF8D080B8FBF7F808FB0CF8F6
:1043F000B8FBF4F808FB02F8C0F8008004E0DFF82E
:10440000B480C0F8008000BF00BFDFF88C80D8F80F
:10441000048008F0F0010909DFF8A48018F80130E1
:10442000D0F8008028FA03F8C0F80480DFF868802C
:10443000D8F8048008F4E061090ADFF8848018F8ED
:104440000130D0F8048028FA03F8C0F80880DFF8BB
:104450004880D8F8048008F46051C90ADFF8608009
:1044600018F80130D0F8048028FA03F8C0F80C805E
:10447000DFF82480D8F8048008F44041890BDFF885
:10448000448018F80130D0F80C80B8FBF3F8C0F87D
:104490001080BDE8F0810000001002400000FFF035
:1044A000FFFFF6FE00004242F0FFFEFFC40542425D
:1044B0008004424200127A0040787D0100093D00EC
:1044C0006C0000207C00002029B1354A526902436B
:1044D000334B5A6104E0324A52698243304B5A618D
:1044E000704729B12E4A926902432D4B9A6104E02C
:1044F0002B4A926982432A4B9A61704729B1284A14
:10450000D2690243264BDA6104E0254AD26982432C
:10451000234BDA61704729B1214A926A0243204B4A
:104520009A6204E01E4A926A82431D4B9A62704767
:1045300029B11B4AD2680243194BDA6004E0184AD9
:10454000D2688243164BDA60704729B1144A126967
:104550000243134B1A6104E0114A12698243104B63
:104560001A6170470F49086070470F49C864704767
:104570000B49C87170470A48406A40F0807008498A
:104580004862704701460020054A92680A400AB115
:10459000012000E000207047014988727047000048
:1045A00000100240400442420000424210B504465E
:1045B000FB48844209D101218803FFF7B9FF00219C
:1045C0004FF48040FFF7B4FF32E0F648844209D14F
:1045D00001214804FFF7B9FF00214FF40030FFF735
:1045E000B4FF25E0F048844209D101218804FFF797
:1045F000ACFF00214FF48020FFF7A7FF18E0EB4845
:10460000844209D10121C804FFF79FFF00214FF424
:104610000020FFF79AFF0BE0E548844208D1012112
:104620000805FFF792FF00214FF48010FFF78DFF80
:1046300010BD2DE9F04786B005460E460024A2467F
:1046400000BFA1460027B08900B100BF2F462C8AC9
:104650004CF6FF700440F08804432C82AC894EF67F
:10466000F3100440B088318908437189084304433A
:10467000AC81AC8A4FF6FF400440B0890443AC8261
:1046800001A8FFF74DFEC648874202D1DDF810A011
:1046900001E0DDF80CA0A88900F4004040B10AEB6D
:1046A000CA0000EB0A1031684900B0FBF1F807E0DE
:1046B0000AEBCA0000EB0A1031688900B0FBF1F880
:1046C0006420B8FBF0F004012009642101FB10898B
:1046D000A88900F4004040B1322000EBC900B0FBD3
:1046E000F1F000F00700044308E0322000EB09106D
:1046F0006421B0FBF1F000F00F0004432C8106B000
:10470000BDE8F0874FF41651016000218180C1801F
:1047100001810C21418100218181704710B5024641
:104720000020108A4FF2FF0318400B884C88234367
:104730008C882343CC8823431843108210BD00216A
:10474000018041808180C180704721B1828942F41B
:104750000052828104E082894DF6FF731A40828103
:104760007047F0B50346002400260025002040F6DF
:104770006A17B94200D100BF1846C1F3421401F0D4
:104780001F06012707FA06F5012C01D10C3004E0C1
:10479000022C01D1103000E014301AB107682F4309
:1047A000076002E00768AF430760F0BD1AB1838A73
:1047B0000B43838202E0838A8B4383827047028AA1
:1047C0004FF6F0731A400282028A0A43028270474F
:1047D00082894FF2FF731A40828182890A43828163
:1047E000704721B1828942F00202828104E082890D
:1047F0004FF6FD731A4082817047028A4FF6DF73CD
:104800001A400282028A0A430282704721B1028A58
:1048100042F48042028204E0028A4BF6FF731A409F
:1048200002827047C1F3080282807047014688887F
:10483000C0F308007047818941F001018181704710
:10484000028BD2B20283028B42EA012202837047BA
:10485000028B02F47F420283028B0A430283704779
:1048600021B1828A42F02002828204E0828A4FF6DD
:10487000DF731A408282704721B1828A42F01002AF
:10488000828204E0828A4FF6EF731A408282704778
:1048900021B1828A42F00802828204E0828A4FF6C5
:1048A000F7731A408282704721B1828942F4004234
:1048B000828103E08289C2F30E028281704721B1B6
:1048C000828A42F40062828204E0828A4FF2FF739D
:1048D0001A4082827047828A4FF6FB731A408282A6
:1048E000828A0A438282704721B1828A42F00202A0
:1048F000828204E0828A4FF6FD731A4082827047FA
:1049000002460020B1F5007F00D100BF13880B40A4
:104910000BB1012000E00020704701F40072B2F5F5
:10492000007F00D100BFCA430280704770B50246C5
:10493000002400230025002040F66A16B14200D171
:1049400000BFC1F3421501F01F03012606FA03F36D
:10495000012D02D19689334006E0022D02D1168A3C
:10496000334001E0968A33400C12012606FA04F423
:104970001688344013B10CB1012000E0002070BD56
:1049800010B50022002340F66A14A14200D100BFF6
:104990000A1201249440A3B2DC43048010BD00003D
:1049A000003801400044004000480040004C0040F6
:1049B0000050004010B50446FE48844208D1012151
:1049C000C014FFF7B5FD0021E014FFF7B1FDC4E00E
:1049D000B4F1804F08D101210846FFF7B6FD002150
:1049E0000120FFF7B2FDB8E0F348844208D101216D
:1049F0000220FFF7AAFD00210220FFF7A6FDACE090
:104A0000EE48844208D101210420FFF79EFD0021D9
:104A10000420FFF79AFDA0E0E948844208D1012173
:104A20000820FFF792FD00210820FFF78EFD94E09B
:104A3000E448844208D101211020FFF786FD0021BF
:104A40001020FFF782FD88E0DF48844208D1012171
:104A50002020FFF77AFD00212020FFF776FD7CE083
:104A6000DA48844208D101214014FFF761FD00219A
:104A70006014FFF75DFD70E0D548844209D1012143
:104A8000C804FFF755FD00214FF40020FFF750FD4B
:104A900063E0D048844209D101210805FFF748FDB1
:104AA00000214FF48010FFF743FD56E0CA488442CE
:104AB00009D101214805FFF73BFD00214FF400100B
:104AC000FFF736FD49E0C548844208D10121402066
:104AD000FFF73BFD00214020FFF737FD3DE0C048D8
:104AE000844208D101218020FFF72FFD0021802082
:104AF000FFF72BFD31E0BB48844208D1012180152E
:104B0000FFF723FD0021A015FFF71FFD25E0B648A4
:104B1000844209D101210804FFF70AFD00214FF466
:104B20008030FFF705FD18E0B048844209D101212B
:104B30004804FFF7FDFC00214FF40030FFF7F8FCBC
:104B40000BE0AB48844208D101218804FFF7F0FC58
:104B500000214FF48020FFF7EBFC10BD00220288FB
:104B6000944B98420ED0994B98420BD0B0F1804FA5
:104B700008D0914B984205D0904B984202D0904B70
:104B8000984204D14FF68F731A404B881A438D4BCD
:104B9000984207D08C4B984204D04FF6FF431A40FE
:104BA000CB881A4302808B8883850B880385814BD1
:104BB00098420BD0854B984208D08B4B984205D039
:104BC0008A4B984202D08A4B984201D10B7A0386D5
:104BD00001238382704770B5002400220023058CD6
:104BE0004FF6FE7635400584028C8388048B4FF6A1
:104BF0008F752C40B51E2C400D882C43751E2A4005
:104C00000D892A434D882A436A4DA8420BD06F4D27
:104C1000A84208D0744DA84205D0744DA84202D0D5
:104C2000734DA84213D14FF6F7752A404D892A4398
:104C30004FF6FB752A408D882A434FF6FF652B40BF
:104C40004FF6FF552B408D892B43CD892B43838015
:104C50000483CD888586028470BD70B5002400224F
:104C60000023058C4FF6EF7635400584028C83884F
:104C7000048B48F6FF752C404FF6FF452C400D88FD
:104C80004FF6FF7606EA05252C434FF6DF752A40DE
:104C90000D8906EA05152A434D8806EA05152A43BB
:104CA000444DA84202D0494DA8421DD14FF67F7510
:104CB0002A404D894FF6FF7606EA05152A434FF63E
:104CC000BF752A408D8806EA05152A434FF6FF3541
:104CD0002B404FF2FF752B408D8906EA85052B434B
:104CE000CD8906EA85052B4383800483CD8805871B
:104CF000028470BD70B5002400220023058C4FF69D
:104D0000FF6635400584028C8388848B4FF68F754F
:104D10002C404FF6FC752C400D882C434FF6FF5568
:104D20002A400D894FF6FF7606EA05252A434D886D
:104D300006EA05252A431F4DA84202D0234DA8426A
:104D40001DD14FF2FF752A404D894FF6FF7606EAD6
:104D500005252A434FF6FF352A408D8806EA0525AA
:104D60002A434EF6FF752B404DF6FF752B408D897B
:104D700006EA05152B43CD8906EA05152B438380EA
:104D80008483CD888587028470BD70B5002200239E
:104D90000024058C4EF6FF7635400584038C84880C
:104DA000828B48F6FF752A404FF6FF452A400D8852
:104DB00020E00000002C01400004004000080040FA
:104DC000000C00400010004000140040003401407E
:104DD000004C0140005001400054014000180040C8
:104DE000001C004000200040004001400044014001
:104DF000004801404FF6FF7606EA05252A434DF6A6
:104E0000FF752B400D8906EA05352B434D8806EAD0
:104E100005352B43FA4DA84202D0FA4DA84208D1DD
:104E20004BF6FF752C408D894FF6FF7606EA851507
:104E30002C4384808283CD88A0F84050038470BDC9
:104E4000828B4FF2FF331A408283828B4FF6FF73BF
:104E500003EA01231A4382837047F0B50C461546D6
:104E6000002200210026078C4EF6FF7C07EA0C0783
:104E70000784828B018C4FF6FF7707EA043640F6F1
:104E8000FF473A404FF6FF7707EA05273A434FF6C8
:104E9000FF7707EA03373A43D94FB8420ED0D94FCC
:104EA000B8420BD0B0F1804F08D0D74FB84205D0F0
:104EB000D64FB84202D0D64FB84206D14DF6FF7752
:104EC000394046F48057394305E047F6FF573940EB
:104ED00044F48057394382830184F0BD828B4FF6BE
:104EE000F3731A408283828B0A4382837047F0B542
:104EF0000C461546002200210026078C4FF6FF6C59
:104F000007EA0C070784828B018C4FF6FF7707EACC
:104F100004264FF60C773A404FF6FF7707EA03175F
:104F20002F433A43B64FB8420ED0B64FB8420BD0DB
:104F3000B0F1804F08D0B44FB84205D0B34FB8425B
:104F400002D0B34FB84206D14FF6FF57394046F46E
:104F50008077394305E04FF2FF57394044F48077BA
:104F6000394382830184F0BD028B4FF2FF331A4034
:104F70000283028B4FF6FF7303EA01231A43028375
:104F80007047F0B50C461546002200210026078C1C
:104F90004FF6EF7C07EA0C070784028B018C4FF673
:104FA000FF7707EA041640F6FF473A404FF6FF77CF
:104FB00007EA03373A434FF6FF7707EA05273A43F4
:104FC0008F4FB8420ED08F4FB8420BD0B0F1804F08
:104FD00008D08D4FB84205D08C4FB84202D08C4FCC
:104FE000B84206D14FF6DF77394046F01007394313
:104FF00005E04FF65F77394044F0100739430283EC
:105000000184F0BD028B4FF6F3731A400283028BCA
:105010000A4302837047F0B50C4615460022002172
:10502000068C4FF6FE773E400684028B018C4FF6CD
:105030000C7632407E1C06EA03162E433243704E35
:10504000B0420ED06F4EB0420BD0B0F1804F08D0BE
:105050006D4EB04205D06D4EB04202D06C4EB042A3
:1050600006D14FF6FD76314044F00106314305E0AC
:105070004FF6F576314044F0010631430283018456
:10508000F0BD70B505460C465D4885420ED05D48C2
:1050900085420BD0B5F1804F08D05B48854205D0E2
:1050A0005A48854202D05A48854200D100E000BFEC
:1050B000208850B92389A28861882846FFF7ABFF72
:1050C000E1882846FFF79EFF25E0208804280AD1C2
:1050D0002389A28861882846FFF753FFE188284684
:1050E000FFF742FF17E0208808280AD12389A28809
:1050F00061882846FFF7FBFEE1882846FFF7EEFEB1
:1051000009E02389A28861882846FFF7A6FEE18886
:105110002846FFF795FE70BD2DE9F04105460C4687
:1051200000260127608808B9022600E00026A08832
:10513000012801D1022700E001272088A0B9238996
:10514000A28861882846FFF766FFE1882846FFF7B6
:1051500059FF23893A4631462846FFF712FFE18876
:105160002846FFF701FF13E02389A28861882846BB
:10517000FFF707FFE1882846FFF7F6FE23893A4646
:1051800031462846FFF747FFE1882846FFF73AFFF8
:10519000BDE8F0810A884B881A438B881A43CB8874
:1051A0001A430B891A434B891A438B891A43A0F877
:1051B000442070474FF6FF71818000210180C1803B
:1051C0004180017270470021018041808180C1804F
:1051D000018141818181C18170470021018041802D
:1051E000012181800021C18001817047002101805F
:1051F00041808180C18001814181818170470000AF
:10520000002C014000340140000400400008004030
:10521000000C004021B1028842F00102028004E04B
:1052200002884FF6FE731A400280704731B1B0F821
:10523000442042F40042A0F8442005E0B0F84420A5
:10524000C2F30E02A0F8442070471AB183890B43C1
:10525000838102E083898B43838170478182704719
:1052600041EA0203A0F8483070471AB183890B4322
:10527000838102E083898B438381704701894FF6E4
:10528000F8721140018170470A46002101894FF6EA
:105290008F73194011430181704730B504460D46A4
:1052A00029462046FFF7F0FF208940F007002081C3
:1052B00030BD2DE9F04104460D4616461F46602DCF
:1052C00006D13B46012231462046FFF75AFE05E053
:1052D0003B46012231462046FFF79DFE29462046E7
:1052E000FFF7D2FF208940F007002081BDE8F08160
:1052F00030B50C4600210189C9B24FF6FF7505EAA9
:105300000325154325432943018130BD2DE9F04193
:1053100005460E4617469846002443463A4631460F
:105320002846FFF7E5FF2C894FF6F870044044F05B
:1053300007044FF68F70044044F070042C81BDE8E0
:10534000F081F0B504460D4616461F463B463246F0
:1053500029462046FFF7CCFF208940F48040208179
:10536000F0BD0185828270470A46002101884FF610
:105370008F731940114301807047F0B50C461546F4
:105380001E460021002200230189028B038C4FF668
:10539000F877394021434FF6FC473A4040F2011775
:1053A0003A434FF6DD773B404FF6FF7707EA0617A3
:1053B0002F433B43018102830384F0BD0A46002151
:1053C000018B4FF68F7319401143018370470A46D2
:1053D0000021018B48F6FF7319404FF6FF7303EA73
:1053E00002231943018370470A460021818B4FF63F
:1053F0008F7319401143818370470A460021818BC6
:1054000048F6FF7319404FF6FF7303EA022319436E
:105410008183704721B1028842F08002028004E05B
:1054200002884FF67F731A400280704721B182884C
:1054300042F00402828004E082884FF6FB731A4037
:105440008280704721B1828842F00802828004E0A5
:1054500082884FF6F7731A408280704721B18288A4
:1054600042F00102828004E082884FF6FE731A4007
:10547000828070470A460021018B4FF6F77319406E
:105480001143018370470A460021018B4FF2FF73DD
:1054900019404FF6FF7303EA022319430183704753
:1054A0000A460021818B4FF6F7731940114381831F
:1054B00070470A460021818B4FF2FF7319404FF667
:1054C000FF7303EA02231943818370470A460021D0
:1054D000018B4FF6FB7319401143018370470A4655
:1054E0000021018B4FF6FF3319404FF6FF7303EA9B
:1054F00002231943018370470A460021818B4FF62E
:10550000FB7319401143818370470A460021818B48
:105510004FF6FF3319404FF6FF7303EA0223194396
:10552000818370470A460021018B4FF67F73194033
:105530001143018370470A460021018BC1F30E011C
:105540004FF6FF7303EA02231943018370470A46AB
:105550000021818B4FF67F7319401143818370477F
:105560000A460021818BC1F30E014FF6FF7303EA57
:1055700002231943818370470A460021018C4FF6AC
:10558000FD7319401143018470470A460021018CC4
:105590004FF6F77319401143018470470A46002102
:1055A000018C4FF6DF7319404FF6FF7303EA0213C5
:1055B0001943018470470A460021018C4FF67F731E
:1055C00019404FF6FF7303EA021319430184704731
:1055D0000A460021018C4FF6FF5319404FF6FF7326
:1055E00003EA02231943018470470A460021018C13
:1055F0004FF2FF7319404FF6FF7303EA022319437A
:10560000018470470A460021018C4DF6FF73194052
:105610004FF6FF7303EA023319430184704730B534
:10562000002301248C40A3B2048C9C430484048C8A
:1056300002FA01F5ADB22C43048430BD30B500232D
:1056400004248C40A3B2048C9C430484048C02FA8E
:1056500001F5ADB22C43048430BD70B50346002083
:1056600000241846183001258D40ACB21D8CA5438E
:105670001D8409B1082909D100EB6100056825F0F6
:10568000700505600568154305600EE00D1FC5F344
:105690004E052844056825F4E045056005684FF689
:1056A000FF7606EA02263543056070BD21B1028807
:1056B00042F00202028004E002884FF6FD731A40B5
:1056C0000280704721B1028842F00402028004E0A7
:1056D00002884FF6FB731A400280704721B182881E
:1056E00042F08002828004E082884FF67F731A4085
:1056F0008280704702884FF6F7731A400280028852
:105700000A430280704782884FF68F731A40828066
:1057100082880A438280704702894FF6F8731A40E4
:10572000028102890A430281704702894FF67F7322
:105730001A40028102890A430281704781847047BE
:1057400081857047818670470187704781877047E0
:10575000A0F84010704702884FF6FF431A400280BD
:1057600002880A43028070470146888E70470146CE
:10577000088F70470146888F70470146B1F8400096
:1057800070470146888C70470146088D7047024675
:105790000020138A0B400BB1012000E0002070476D
:1057A000CA430282704730B502460020002300241D
:1057B000158A05EA0103958905EA010413B10CB1C4
:1057C000012000E0002030BDCA4302827047000083
:1057D00010B50446FA48844208D101214015FEF76D
:1057E000A7FE00216015FEF7A3FE17E0F5488442EE
:1057F00008D101210015FEF79BFE00212015FEF7C0
:1058000097FE0BE0F048844208D10121C803FEF75F
:105810008FFE00214FF40040FEF78AFE10BD30B528
:105820000246002000235068E84C20400D790C68A7
:1058300044EA0524204350609068E54C2040D1E9BB
:1058400002542C434D7944EA450420439060D06AC9
:1058500020F470000C7C641EE4B2234340EA035041
:10586000D06230BD00210160017141718160C16071
:1058700001210174704721B1826842F00102826007
:1058800003E0826822F001028260704721B18268E1
:1058900042F48072826003E0826822F48072826047
:1058A000704710B50023CBB21AB144681C43446062
:1058B00002E044689C43446010BD816841F00801E7
:1058C00081607047014600208A6802F008020AB130
:1058D000012000E000207047816841F004018160F0
:1058E0007047014600208A6802F004020AB10120D4
:1058F00000E00020704721B1826842F4A00282607B
:1059000003E0826822F4A002826070470146002012
:105910008A6802F480020AB1012000E0002070478A
:1059200010B50A4600210023416821F46041531E4E
:1059300041EA4331416010BD21B1426842F4006246
:10594000426003E0426822F4006242607047F0B5B2
:1059500004460D4600200021092D11DDE068A5F167
:105960000A0606EB4607072606FA07F18843A5F163
:105970000A0606EB460603FA06F10843E0600CE06F
:10598000206905EB4507072606FA07F1884305EB72
:10599000450603FA06F108432061072A0FDA606B17
:1059A000561E06EB86071F2606FA07F18843561E89
:1059B00006EB860605FA06F10843606322E00D2A2D
:1059C0000FDA206BD61F06EB86071F2606FA07F1B3
:1059D0008843D61F06EB860605FA06F108432063C6
:1059E00010E0E06AA2F10D0606EB86071F2606FA14
:1059F00007F18843A2F10D0606EB860605FA06F1CB
:105A00000843E062F0BD21B1826842F480128260F6
:105A100003E0826822F48012826070470146C86CFD
:105A200080B2704766484C300068704721B14268C8
:105A300042F48062426003E0426822F48062426085
:105A4000704721B1426842F48052426003E04268EC
:105A500022F48052426070470A460021816821F496
:105A6000E04111438160704721B1826842F40042F5
:105A7000826003E0826822F400428260704721B1B4
:105A8000826842F40212826003E0826822F4021209
:105A900082607047014600208A6802F400120AB151
:105AA000012000E000207047F0B5044615460020B4
:105AB00000220026092911DDE068A1F10A0707EBA1
:105AC000470C072707FA0CF29043A1F10A0707EBEE
:105AD000470703FA07F21043E0600CE0206901EB8E
