:020000040800F2
:10000000201000208D290008952900089729000854
:10001000992900089B2900089D290008000000007C
:100020000000000000000000000000009F29000800
:10003000A129000800000000A3290008A529000844
:10004000A7290008A7290008A7290008C71E00083B
:10005000A7290008A7290008A7290008A729000840
:10006000A7290008A7290008A7290008FB210008E4
:10007000A7290008A7290008A7290008A729000820
:10008000A7290008A7290008A7290008A729000810
:100090006D130008A7290008A7290008A729000850
:1000A000A7290008A7290008A7290008DB230008C2
:1000B0007F710008A729000875240008A7290008F7
:1000C000A7290008A7290008A7290008A7290008D0
:1000D000A7290008391000087D100008C110000889
:1000E000A7290008A7290008A72900080000000088
:1000F0000000000000000000000000000000000000
:100100000000000000000000E7060008A729000822
:100110000511000849110008A7290008A7290008AF
:10012000A7290008A7290008A7290008A72900086F
:10013000A7290008A7290008A7290008A72900085F
:10014000CB170008A7290008A72900088771000815
:1001500000F002F800F03AF80AA090E8000C82449F
:100160008344AAF10107DA4501D100F02FF8AFF27C
:10017000090EBAE80F0013F0010F18BFFB1A43F085
:1001800001031847A0780000C0780000103A24BF8F
:1001900078C878C1FAD8520724BF30C830C144BFEC
:1001A00004680C607047000000230024002500262E
:1001B000103A28BF78C1FBD8520728BF30C148BFCA
:1001C0000B6070471FB51FBD10B510BD06F0EEFFE8
:1001D0001146FFF7F7FF00F018F807F00CF803B42A
:1001E000FFF7F2FF03BC07F00DF8000010B502F0B6
:1001F00013FB00204E49087000F0D6FF01F0FCFA16
:1002000002F0AAF900F0ACF810BDFFF7EFFF86E0AE
:100210004FF40051474802F03AFD68B100204649CA
:10022000087046490870464908704148007820F037
:100230000400001D3E4908704FF480413D4802F023
:1002400026FD28B13A48007820F0040038490870AB
:1002500037480078C0F38000002846D0712001F0B4
:1002600033FC38490870732001F02EFC36490870C1
:100270003448007848B13548007830B134480078C7
:1002800068B901203249087009E031480078012836
:1002900005D100202E4908700120284908702A48FD
:1002A000007858B12B48007840B12B48007860B9ED
:1002B0000120294908702249087006E02648007884
:1002C000012802D10020244908701C48007860B140
:1002D0001B48007848B118480078401C164908703F
:1002E000002016490870164908701C480078C0F3B1
:1002F000400028B11948007820F002001749087022
:100300001648007800F0010048B11448007820F049
:100310000100124908700848007802F090F977E768
:1003200000BF0100A0F1010290B2FAD170470000B5
:100330000000002000140140260000202B000020B7
:100340002C00002032000020330000202700002075
:1003500029000020280000202A000020340000206E
:100360001FB50121082002F077FF6320ADF80800D7
:1003700040F2CF20ADF804000020ADF80A00ADF83F
:10038000060001A9DE4803F097FA0121DC4804F0D9
:10039000C9F801221146DA4803F005FE0121D848C8
:1003A00003F0E6FD00214FF0006002F046FB4FF441
:1003B000407002F00BFB32208DF800000F208DF80A
:1003C000010000208DF8020001208DF8030068462E
:1003D00002F001FB1FBDCB488088401CC9498880C2
:1003E00008460068401C0860C7480078C0F3001049
:1003F00090B10846C088401CC8800846C08840F2BA
:10040000DC51884208DB0020BE49C880BE48007825
:1004100020F01000BC490870BC480078C0F34000D0
:1004200098B1BB480078C82805DAB9480078401C64
:10043000B749087009E00020B54988700870B348D2
:10044000007820F00200B1490870B2480078C0F38B
:10045000400098B1B0480078C82805DAAE48007866
:10046000401CAD49087009E00020AB498870087055
:10047000A848007820F00200A6490870A1488088AA
:100480000A2190FBF1F201FB1200E8B9A3480078C1
:1004900020F00400001DA1490870A149087800EB74
:1004A000D0714910A0EB4101012906D19D48007887
:1004B00020F0100010309B4908709348007820F01D
:1004C00008000830904908708E488088C82190FB49
:1004D000F1F201FB1200A8B99149087800EBD07144
:1004E0004910A0EB410131B98E48007820F010008E
:1004F00010308C4908708448007820F00100401CBE
:10050000814908707F488088642190FBF1F201FBEB
:10051000120030B98148007820F00200801C7F4929
:10052000087078488088B0F57A7F6EDB7E48007866
:1005300001280CD17C484078032805DA7A484078B5
:10054000401C7949487002E000207749C86076482D
:10055000007C01280DD17448407C032806DA7248DB
:10056000407C401CC1B27048417402E000216E48DA
:10057000C1616D4890F82000012810D16A4890F8B8
:100580002100032808DA684890F82100401CC1B215
:10059000654880F8211002E000216348C16262488A
:1005A00090F83000012810D15F4890F831000328FE
:1005B00008DA5D4890F83100401CC1B25A4880F812
:1005C000311002E000215848C163584800780128E2
:1005D0000CD156484078032805DA54484078401C2E
:1005E0005249487002E000205049C8604F48007CE2
:1005F00001280ED14D48407C032807DA4B48407C47
:10060000401CC1B24948417403E06BE000214748F7
:10061000C161464890F82000012810D1434890F865
:100620002100032808DA414890F82100401CC1B29B
:100630003E4880F8211002E000213C48C1623B485E
:1006400090F83000012810D1384890F83100032884
:1006500008DA364890F83100401CC1B2334880F8BF
:10066000311002E000213148C16300202549888013
:100670000846007A401C08722D480078002804DDE6
:100680002B480078401E2A4908701F48007820F047
:100690000200801C1C4908700846007820F02000E9
:1006A000203008701D48007820F00100401C1B49D4
:1006B00008701448007A3C2814DB002011490872A5
:1006C0001148007820F00400001D0F4908700D4803
:1006D000407A401C0B4948720846407A3C2801DBAE
:1006E00000204872704710B50121054803F009FF4A
:1006F00028B10121024803F015FFFFF76CFE10BD81
:10070000000C004008010020340000203C000020C4
:10071000140100203B000020570100207D00002034
:10072000740200207E000020500600209006002069
:10073000BC00002038B504460D46FA4951F8241093
:10074000F94A52F82420114341F00100012102F03E
:1007500076FD34B9F54951F82400012102F06FFD0E
:100760001BE0012C0AD10121082002F0CEFAEF494A
:1007700051F82400012102F06FFD0EE0022C06D199
:10078000EA4951F82400012102F066FD05E0E7493D
:1007900051F82400012102F05FFD18208DF80300BC
:1007A000E34830F81400ADF8000003208DF8020093
:1007B000E04951F82400694602F0D6F904208DF88A
:1007C0000300DD4830F81400ADF80000DB4951F8B3
:1007D0002400694602F0C8F9D94951F82400294695
:1007E00002F0D5FDD64951F82400012102F05BFE4C
:1007F00038BD08B50020D3498870D3498870D349E3
:100800008870D3498870D34988704FF41650D24904
:10081000086000208880C880088188810C20488179
:100820000020FFF787FF012240F22551CB4802F05C
:1008300046FE002240F22771C84802F040FE40F216
:100840002661C64802F04AFF00214FF0006002F026
:10085000F4F84FF4407002F0B9F825208DF800004C
:1008600000208DF801008DF8020001208DF80300B2
:10087000684602F0B0F826208DF8000000208DF8C0
:1008800001008DF8020001208DF80300684602F097
:10089000A2F827208DF8000000208DF801008DF8C7
:1008A000020001208DF80300684602F094F834201D
:1008B0008DF8000000208DF801008DF80200012065
:1008C0008DF80300684602F086F835208DF80000A8
:1008D00000208DF801008DF8020001208DF8030042
:1008E000684602F078F808BD70B504460D46294602
:1008F000204602F045FE00BF4021204602F0AEFE39
:100900000028F9D070BDF0B58FB003460C46012128
:1009100011E0585C402806DD585C3738C6B2481EE6
:100920000DF8006005E0585C3038C6B2481E0DF87E
:100930000060481CC1B2601C8142EADB0022002139
:100940000BE04800401C1DF800601DF8110006EB8C
:100950000010104482B2481CC1B204EBD476B1EB53
:10096000660FEEDB1046D61702EB16663612A2EBC8
:100970000626B2B2C2F5807082B21046D61702EBDC
:1009800016663612A2EB0626F5B228460FB0F0BD69
:1009900070B5724802F0F8FDC6B26A488078A8B90E
:1009A0003A2E12D10020674908706D48007820F077
:1009B0000200801C6A49087062488178C01C465455
:1009C000C01E8078401C5F4988708CE05D4880784C
:1009D0003C287DDA5B488178C01C4654C01E807874
:1009E000401C584988700846C0783A287BD1084690
:1009F0008078042877DB08468078401EC91C085C94
:100A00000A2870D1C81E8078801E085C0D286AD123
:100A1000C81E8078401FC1B24A48C01CFFF773FF50
:100A2000054648488078001F4649C91C085C3A289A
:100A30000ADAC81E8078001F085C302190FBF1F2B2
:100A400001FB1200C4B20EE03E488078001F3D4911
:100A5000C91C085C412190FBF1F201FB1200C4B2F9
:100A600004F10A00C4B22007040E36488078C01E84
:100A70003449C91C085C3A280BDAC81E8078C01EAD
:100A8000085C302190FBF1F201FB12002044C4B25B
:100A90000FE02C488078C01E2A49C91C085C4121FF
:100AA00090FBF1F201FB12002044C4B204F10A00F1
:100AB000C4B2A54206D12A48007820F00100401CAB
:100AC0002749087000201F4988700870244801E0F9
:100AD00006E008E0007820F002002149087002E0FA
:100AE00000201849887070BD10B51E4802F04CFDFA
:100AF000C4B215488078C8BBFA2C72D100201249C4
:100B000008701948007820F00200801C164908700F
:100B10000D488178C01C4454C01E8078401C0A498E
:100B200088705EE0D0790008E4790008BC7900089C
:100B3000F879000854000020027A000868000020BC
:100B40004000002014010020570100209A010020DD
:100B5000DD01002020020020640200200038014056
:100B60003C000020004400403B000020FFE7F74825
:100B70008078052832DAF5488178C01C4454C01EBC
:100B80008078401CF14988700846C078FA2828D13E
:100B900008468078042824DB08468078401EC91C5B
:100BA000085C0A281DD1C81E0079A2280BD1E8488C
:100BB000007820F00100401CE5490870E3484079C6
:100BC000E24981F840000020E04988700870E04860
:100BD000007820F00200DE49087002E00020DB49C6
:100BE000887010BD70B5DB4802F0CEFCC6B2DA48A2
:100BF0008078A8B93A2E12D10020D7490870D7487A
:100C0000007820F00200801CD4490870D248817816
:100C1000C01C4654C01E8078401CCF4988708CE0B0
:100C2000CD4880783C287DDACB488178C01C46547A
:100C3000C01E8078401CC84988700846C0783A2891
:100C40007BD108468078042877DB08468078401EF0
:100C5000C91C085C0A2870D1C81E8078801E085CF8
:100C60000D286AD1C81E8078401FC1B2BA48C01C86
:100C7000FFF749FE0546B8488078001FB649C91CF1
:100C8000085C3A280ADAC81E8078001F085C302108
:100C900090FBF1F201FB1200C4B20EE0AE48807886
:100CA000001FAD49C91C085C412190FBF1F201FB1A
:100CB0001200C4B204F10A00C4B22007040EA64810
:100CC0008078C01EA449C91C085C3A280BDAC81EEB
:100CD0008078C01E085C302190FBF1F201FB12000D
:100CE0002044C4B20FE09C488078C01E9A49C91CB9
:100CF000085C412190FBF1F201FB12002044C4B2D8
:100D000004F10A00C4B2A54206D19448007820F04C
:100D10000100401C9149087000208F4988700870BC
:100D20008E4801E006E008E0007820F002008B49E0
:100D3000087002E000208849887070BD70B588484E
:100D400002F022FCC6B287488078A8B93A2E12D1A8
:100D50000020844908708448007820F00200801C3C
:100D6000814908707F488178C01C4654C01E807835
:100D7000401C7C4988708CE07A4880783C287DDA79
:100D800078488178C01C4654C01E8078401C754944
:100D900088700846C0783A287BD1084680780428B5
:100DA00077DB08468078401EC91C085C0A2870D191
:100DB000C81E8078801E085C0D286AD1C81E807805
:100DC000401FC1B26748C01CFFF79DFD054665483E
:100DD0008078001F6349C91C085C3A280ADAC81EDB
:100DE0008078001F085C302190FBF1F201FB1200BB
:100DF000C4B20EE05B488078001F5A49C91C085CE9
:100E0000412190FBF1F201FB1200C4B204F10A008F
:100E1000C4B22007040E53488078C01E5149C91C33
:100E2000085C3A280BDAC81E8078C01E085C3021A6
:100E300090FBF1F201FB12002044C4B20FE04948DC
:100E40008078C01E4749C91C085C412190FBF1F223
:100E500001FB12002044C4B204F10A00C4B2A5424E
:100E600006D14148007820F00100401C3E4908703E
:100E700000203C49887008703B4801E006E008E02B
:100E8000007820F002003849087002E0002035495F
:100E9000887070BD70B5354802F076FBC6B2344834
:100EA0008078A8B93A2E12D1002031490870314813
:100EB000007820F00200801C2E4908702C488178B0
:100EC000C01C4654C01E8078401C29498870A2E08E
:100ED000274880783C2874DA25488178C01C46541D
:100EE000C01E8078401C224988700846C0783A2885
:100EF000EDD1084680780428E9DB08468078401E5A
:100F0000C91C085C0A287DD1C81E8078801E085C38
:100F10000D2877D1C81E8078401FC1B21448C01C6C
:100F2000FFF7F1FC054612488078001F1049C91CE4
:100F3000085C3A2820DAC81E8078001F085C30213F
:100F400090FBF1F201FB1200C4B224E05701002033
:100F50003B000020004800409A0100203A00002099
:100F6000004C0040DD01002039000020005000400E
:100F7000200200203800002084488078001F834928
:100F8000C91C085C412190FBF1F201FB1200C4B2C4
:100F900004F10A00C4B22007040E7C488078C01E09
:100FA0007A49C91C085C3A280CDAC81E8078C01E31
:100FB000085C302190FBF1F201FB12002044C4B226
:100FC00010E025E071488078C01E7049C91C085C9B
:100FD000412190FBF1F201FB12002044C4B204F164
:100FE0000A00C4B2A54206D16948007820F0010089
:100FF000401C674908700020644988700870644884
:10100000007800E007E020F002006149087002E08B
:1010100000205E49887070BD70B504460D46E1B28F
:101020005C4802F0ADFA00BF40215A4802F016FBBE
:101030000028F9D0204670BD10B540F22551564821
:1010400002F022FB30B140F22551534802F046FB3A
:10105000FFF79EFC40F227714F4802F015FB20B1CC
:1010600040F227714C4802F039FB08214A4802F04F
:10107000F5FA10B1484802F087FA10BD10B540F2F9
:101080002551444802F000FB30B140F2255141485F
:1010900002F024FBFFF728FD40F227713D4802F0E3
:1010A000F3FA20B140F227713A4802F017FB082109
:1010B000384802F0D3FA10B1364802F065FA10BD94
:1010C00010B540F22551354802F0DEFA30B140F259
:1010D0002551324802F002FBFFF784FD40F22771F0
:1010E0002E4802F0D1FA20B140F227712B4802F0CD
:1010F000F5FA0821294802F0B1FA10B1274802F0A8
:1011000043FA10BD10B540F22551254802F0BCFA53
:1011100030B140F22551224802F0E0FAFFF70EFE0E
:1011200040F227711E4802F0AFFA20B140F2277159
:101130001B4802F0D3FA0821194802F08FFA10B1C7
:10114000174802F021FA10BD10B540F2255115489C
:1011500002F09AFA30B140F22551124802F0BEFA7C
:10116000FFF798FE40F227710E4802F08DFA20B189
:1011700040F227710B4802F0B1FA0821094802F049
:101180006DFA10B1074802F0FFF910BD20020020EF
:101190003800002000440040003801400048004072
:1011A000004C00400050004008B50121202002F012
:1011B00046F84FF40050ADF8000003208DF802000F
:1011C00004208DF8030069460A4801F0CDFC012196
:1011D000202002F034F84FF48040ADF800000320E6
:1011E0008DF8020004208DF803006946014801F0E3
:1011F000BBFC08BD001401401CB50121084602F0EB
:101200001EF80121202002F01AF80121202002F00E
:1012100016F80121082002F012F80121082002F03E
:101220000EF801214FF0C06002F016F80120ADF871
:10123000040048208DF8070001A9FE4801F094FC45
:101240002020ADF8040048208DF8070001A9FA48D5
:1012500001F08AFC0220ADF8040018208DF8070088
:1012600003208DF8060001A9F24801F07DFC402022
:10127000ADF8040018208DF8070003208DF8060053
:1012800001A9ED4801F070FC01214FF4EB1001F0D1
:101290003CFD0121E94801F038FDE94803F06EFB0F
:1012A000E84803F06BFBE84803F08CFC0020E649BB
:1012B0008871C871087248728872C8728870C87064
:1012C000022008710420487110200880DC4803F0D7
:1012D0006EFBDD49DB4803F06AFB0020DB498872C6
:1012E000C872012008730020088048808880C88068
:1012F000088101204873084603F0E3FB0E20D34920
:101300008872084603F0DDFB01220221CC4803F07D
:10131000D7FE01220221CB4803F0D2FE00214FF07C
:10132000006001F08AFB4FF4407001F04FFB142085
:101330008DF8000002208DF8010000208DF80200D9
:1013400001208DF80300684601F045FB40208DF830
:10135000000003208DF8010000208DF8020001201C
:101360008DF80300684601F036FB1CBD2DE9F04105
:10137000B74A0021B24803F088FDB5484068B54936
:10138000884214D1B248817BC07B01EB0020B24976
:101390008885888D06F0F3F8064600224FF07F53CB
:1013A00006F000F9044606F0BDF8AB498885A84868
:1013B0004068AA49884213D1A548007BA64981F814
:1013C000260091F8260006F0DAF80646A44AA54B56
:1013D00006F0E8F8044606F0A5F89F4981F82600D3
:1013E0000020A14908609A4840684860002048727F
:1013F00004200872082088729548C07AC872944800
:10140000017B994801739248417B9748417390480A
:10141000817B954881738E48C17B9348C1738C480A
:10142000017C914801748A48417C8F484174884806
:10143000817C8D4881740146824803F031FC8448E8
:1014400040688A49884273D189480078C0F3800097
:1014500020B388490879C11700EB1171091119B936
:1014600088208149C87244E082490879C11700EB9D
:1014700011710122B2EB211F03D172207A49C87287
:1014800037E07C490879C11700EB11710222B2EBF9
:10149000211F2ED17D207449C8722AE07549087930
:1014A000C11700EB1171091129B972480079873011
:1014B0006D49C8721DE06F490879C11700EB1171C1
:1014C0000122B2EB211F06D16A480079C0F18300E6
:1014D0006549C8720DE067490879C11700EB1171C1
:1014E0000222B2EB211F04D1624800795D305E49CF
:1014F000C8726049C878C11700EB1171091131B980
:101500005C48C0788730C1B25748817320E05949A0
:10151000C878C11700EB11710122B2EB211F08D16D
:101520005448C078C0F18300C1B24F4881730FE0C6
:1015300029E05049C878C11700EB11710222B2EBC3
:10154000211F05D14B48C0785D30C1B24648817338
:10155000002045490860484848600020487204203F
:1015600008720820887200213F4801734173434884
:1015700001783D48C17300210174417481740146B2
:10158000304803F08DFB324840683249884279D1B7
:101590000020354908603A4848600020487204201D
:1015A0000872082088722C49C889C11700EB1161A4
:1015B0000912A0EB01212C4AD1722749C889C11711
:1015C00000EB11610A0A28490A732349088AC117E6
:1015D00000EB11610912A0EB0121CAB222494A7342
:1015E0001D49088AC11700EB11610A0A1E498A7356
:1015F0001949488AC11700EB11610912A0EB0121BA
:10160000CAB21949CA731449488AC11700EB11615B
:101610000A0A15490A741049888AC11700EB11613A
:101620000912A0EB0121CAB20F494A740A49888AFB
:10163000C11728E000140140000C014040002000C8
:101640000064004000680040800200208C020020FE
:10165000B00200200004F00CBC0000200003F00CDD
:101660009A9999999999D93FC402002000F2FE18DD
:101670007E000020740200200305F0180300002003
:101680000005F00C41E000EB11610A0A52498A742E
:10169000524803F005FB00204F490860504848605D
:1016A0000020487204200872082088724D49C88AB8
:1016B000C11700EB11610912A0EB0121464AD1725A
:1016C0004849C88AC11700EB11610A0A42490A73E6
:1016D0004449088BC11700EB11610912A0EB0121ED
:1016E000CAB23D494A733F49088BC11700EB1161EB
:1016F0000A0A39498A7300213748C1730174417459
:1017000081740146354803F0CBFA374840683749C1
:10171000884258D100203049086035484860002090
:10172000487204200872082088722E49488BC1171D
:1017300000EB11610912A0EB0121274AD17229495E
:10174000488BC11700EB11610A0A23490A73254926
:10175000888BC11700EB11610912A0EB0121CAB2FD
:101760001D494A731F49888BC11700EB11610A0A92
:1017700019498A731B49C88BC11700EB1161091203
:10178000A0EB0121CAB21449CA731649C88BC1170C
:1017900000EB11610A0A10490A741249088CC1173A
:1017A00000EB11610912A0EB0121CAB20A494A7487
:1017B0000C49088CC11700EB11610A0A06498A74AA
:1017C000064803F06DFABDE8F08110B5094A002122
:1017D000024803F05AFB10BDC4020020006800401C
:1017E0000006F00CBC000020B00200200003F00C4A
:1017F0000007F00CD802002008B50121202001F0DC
:101800001EFD4FF48050ADF8000003208DF802005B
:1018100010208DF803006946D24801F0A5F9012196
:10182000202001F00CFD4FF40060ADF80000032013
:101830008DF8020010208DF803006946C94801F0B8
:1018400093F908BD10B54FF40061C64801F039FAAC
:101850000A20FEF765FD4FF48051C24801F031FACD
:101860000A20FEF75DFD4FF40061BE4801F02BFA3F
:101870000A20FEF755FD10BD10B54FF40061B948C0
:1018800001F021FA0A20FEF74BFD4FF48051B548D4
:1018900001F017FA0A20FEF743FD4FF40061B1484A
:1018A00001F00FFA0A20FEF73BFD10BD10B54FF412
:1018B0008051AC4801F007FA0A20FEF731FD4FF4E1
:1018C0000061A84801F0FDF90A20FEF729FD4FF458
:1018D0008051A44801F0F5F90A20FEF721FD4FF4EC
:1018E0008051A04801F0EFF90A20FEF719FD10BD64
:1018F00038B50121202001F0A2FC4FF40060ADF8C2
:10190000000003208DF8020004208DF803006946D2
:10191000944801F029F90A20FEF702FD4FF48051A6
:10192000904801F0CEF90A20FEF7FAFC01E0601CB5
:10193000C4B24FF400618B4801F0A9F9012801D12C
:10194000C82CF4DB0A20FEF7EBFC4FF480518548ED
:1019500001F0B9F90A20FEF7E3FC0121202001F093
:101960006EFC4FF40060ADF8000003208DF802001B
:1019700010208DF8030069467A4801F0F5F80A2036
:10198000FEF7CEFC38BD70B505464FF48051754862
:1019900001F099F90A20FEF7C3FC802421E004EA53
:1019A000050028B14FF400616E4801F08AF904E0A7
:1019B0004FF400616B4801F086F90A20FEF7B0FC95
:1019C0004FF48051674801F07CF90A20FEF7A8FC2B
:1019D0004FF48051634801F076F90A20FEF7A0FC2D
:1019E0006410002CDBDC4FF400615E4801F069F903
:1019F0000A20FEF795FCFFF77BFF70BD38B501218B
:101A0000202001F01CFC4FF40060ADF80000032022
:101A10008DF8020004208DF803006946514801F05A
:101A2000A3F80A20FEF77CFC002400251BE06006DA
:101A3000040E4FF480514B4801F045F90A20FEF79F
:101A40006FFC4FF48051474801F03BF90A20FEF744
:101A500067FC4FF40061434801F019F908B144F004
:101A60000104681CC5B2082DE1DB4FF480513D48EC
:101A700001F029F90A20FEF753FC0121202001F092
:101A8000DEFB4FF40060ADF8000003208DF802008B
:101A900010208DF803006946324801F065F80A20ED
:101AA000FEF73EFCFFF702FF204638BD70B5054645
:101AB0000C46FFF7C7FE2846FFF765FF2046FFF7F5
:101AC00062FFFFF7D9FE70BD70B50446FFF7BAFE9E
:101AD0002046FFF758FFFFF791FF0546FFF7CCFEC2
:101AE000284670BD10B500247320FFF7EDFF0446B3
:101AF000FE2C03D101201C49087032E0FD2C03D1DB
:101B00000220194908702CE0FB2C03D10320164950
:101B1000087026E0F72C03D104201349087020E058
:101B2000EF2C03D10520104908701AE0DF2C03D1F7
:101B300006200D49087014E0BF2C03D107200A4984
:101B400008700EE07F2C03D108200749087008E0D8
:101B50000648007820F0010004490870002002497E
:101B6000087010BD001401407F000020800000209C
:101B700010B501214FF0C05001F06EFB012003F0C1
:101B800006FD03F097FC012001F052FA00BF41204E
:101B900001F082F90028FAD04FF4807001F064FA65
:101BA000012001F067FA03F046FC03F03BFC012141
:101BB000084603F0DBFB03F035FC47F6FF7003F04B
:101BC0000BFC03F02FFC10BD0146CA1701EB92720B
:101BD0009210A1EB820292B9642091FBF0F200FB1B
:101BE000121050B94FF4C87091FBF0F200FB1210C4
:101BF00008B9012070470020FCE70120FAE7002027
:101C0000F8E72DE9F05F06460F4690469946DDE974
:101C10000AAB0024B6F5FA6F03DB40F633008642C8
:101C200002DD0120BDE8F09F40F2B2750AE02846CF
:101C3000FFF7CAFF10B1AD48044401E0AC480444CA
:101C4000681C85B2B542F2DB781EC7B2002510E0F1
:101C5000A848405D40F2A321484304EBC01430463D
:101C6000FFF7B2FF18B1012D01D1A3480444681C4D
:101C700085B2BD42ECDBA8F1010040F2A32148434C
:101C800004EBC014C9EB4910C0EB092004EB0014AD
:101C9000CAEB0A1004EB80045C44012003F077FCDB
:101CA00003F0C0FB204603F08AFB03F0BBFB0020DF
:101CB000B8E70EB5042003F032FC4AF2A551884281
:101CC00012D0FFF755FF00202E2115230F22CDE95A
:101CD0000010042140F2DE70FFF793FF4AF2A55195
:101CE000042003F010FC0EE07B2001F0D5F810B9C1
:101CF0007A2001F0D1F803F09EFB0121084603F0A1
:101D000035FB03F08FFB01214FF0C05001F0A4FA26
:101D1000012003F03CFC002003F0D7FB802003F0FF
:101D2000DCFB01F0D6FA012003F0BAFB03F07AFBEA
:101D300000214FF0006000F080FE4FF4407000F092
:101D400045FE03208DF808000E208DF809000020C4
:101D50008DF80A0001208DF80B0002A800F03BFE70
:101D60000EBDF0B503460C461546642093FBF0F01B
:101D7000C6B2642093FBF0F700FB1730C1B2132EFC
:101D800002DD01F16400C1B20846CF1701EB97777D
:101D900001EBA707BAB2072092FBF0F700FB172070
:101DA00082B25719601EDFF854C11CF80000384495
:101DB00082B2CF1701EB9777BF10A1EB87071FB94E
:101DC000032C01DA501E82B2072092FBF0F700FBD1
:101DD0001720C0B2F0BD70B500260024002503F026
:101DE000E5FA06464448B6FBF0F445480088A042B0
:101DF0003CD043490C8040F2B27510E02846FFF712
:101E0000E3FE40B1B4F5B77F02D3A4F5B77404E0A4
:101E1000681C85B206E0A4F26D14681C85B2B4F5A6
:101E2000B67FEBD800BF3748C580002516E035499E
:101E3000C888FFF7C9FE30B1012D04D11D2C01D394
:101E40001D3C09E00CE02B48405DA04203D8294826
:101E5000405D241A00E003E0681C85B21C2CE6D229
:101E600000BF681C27490872601C48722248B6FBF4
:101E7000F0F100FB11644FF46160B4FBF0F0214914
:101E800088704FF46160B4FBF0F100FB11403C211D
:101E9000B0FBF1F01B49C8704FF46160B4FBF0F186
:101EA00000FB11403C21B0FBF1F201FB120015498F
:101EB00008710B465A7A197AD888FFF752FF1149F0
:101EC0008872002070BD10B5012003F0D9FA58B116
:101ED000012003F0E5FA03F0A5FA0B48007820F0A2
:101EE0000100401C0849087010BD00000085E20197
:101EF0008033E1010C7A000880510100187A000853
:101F000084000020EC0200208200002000B593B085
:101F10000120ADF8080000208DF80B0002A9BD4893
:101F200000F022FE0121102001F089F90220ADF815
:101F3000080000208DF80B0002A9B64800F014FE3E
:101F40000121102001F07BF90420ADF808000020E9
:101F50008DF80B0002A9AF4800F006FE0121102009
:101F600001F06DF90820ADF8080000208DF80B0095
:101F700002A9A84800F0F8FD0121102001F05FF946
:101F80001020ADF8080000208DF80B0002A9A14830
:101F900000F0EAFD0121102001F051F92020ADF8F8
:101FA000080000208DF80B0002A99A4800F0DCFD23
:101FB0000121042001F043F90121084601F032F922
:101FC000954803F03FFB9548039095480490002006
:101FD0000590B420069000200790802008904000D3
:101FE000099080000A9020200B9000020C900020A5
:101FF0000D9003A9884803F0C7FB012202218648FF
:1020000003F0F9FB022003F038FC0121824803F0C1
:10201000E6FB00214FF0006000F00FFD4FF4407030
:1020200000F0D4FC0B208DF8040002208DF8050090
:1020300000208DF8060001208DF8070001A800F0AF
:10204000CAFC0121480201F0FAF800200E9001209C
:102050008DF83C008DF83D004FF46020109000207A
:10206000119006208DF848000EA96C484C3802F0FB
:1020700084FA052301220A2168484C3802F015FB36
:10208000052302220B2165484C3802F00EFB052384
:1020900003220C2161484C3802F007FB052304227F
:1020A0000D215E484C3802F000FB05231A460E2134
:1020B0005A484C3802F0F9FA052306220F215748F6
:1020C0004C3802F0F2FA012154484C3802F08CFAF4
:1020D000012152484C3802F07CFA50484C3802F04A
:1020E0009AFA00BF4D484C3802F09AFA0028F9D10C
:1020F0004A484C3802F09EFA00BF48484C3802F07B
:102100009EFA0028F9D1012144484C3802F0A1FA86
:1021100013B000BD2DE9FF5F002438E0002532E058
:10212000681C86B22BE005EB45003D4901EB8000C1
:1021300030F8140006EB4601394A02EB810131F810
:102140001410884219DD05EB4500114601EB8000B3
:1021500030F814A006EB460001EB800030F81400C4
:1021600005EB450102EB810121F8140006EB460066
:10217000114601EB800020F814A0701C86B21E2EC0
:10218000D1DB681C85B21D2DCADB601C84B2062C15
:10219000C4DB00242DE04FF00009052509E005EB24
:1021A00045001F4901EB800030F814008144681C91
:1021B00085B2192DF3DB484605F0E1F907464FF0EB
:1021C0006632184B05F0EEF90022174BCDE90001FD
:1021D00005F050F8CDE9020105F01AF883461349DD
:1021E000584605F0DDFA8346114840F824B0601CDB
:1021F00084B2062CCFDBBDE8FF9F10B50D480078F8
:1022000020F00100401C0B490870022003F035FB50
:1022100010BD000000100140080002404C240140A5
:102220001403002066660A400000B0400000A04190
:10223000E40500208600002030B589B004460D4634
:102240000121402000F0FBFF0420ADF8080003202E
:102250008DF80A0010208DF80B0002A9B74800F095
:1022600083FC0121082000F0EAFF8020ADF808007F
:1022700004208DF80B0003208DF80A0002A9B04855
:1022800000F072FC0121082000F0D9FF4FF48070AB
:10229000ADF8080004208DF80B0003208DF80A002B
:1022A00002A9A74800F060FC0121082000F0C7FF48
:1022B0004FF40070ADF8080004208DF80B000320E7
:1022C0008DF80A0002A99E4800F04EFC012104206E
:1022D00000F0C2FF0121042000F0BEFF4FF6FF70A6
:1022E000ADF81C004720ADF818000020ADF81E0026
:1022F000ADF81A0006A9934801F0DEFA0420ADF803
:102300000C000020ADF80E000120ADF810000020F8
:10231000ADF81200ADF8140003A98A4801F05FFD82
:102320000820ADF80C000020ADF80E000120ADF83B
:1023300010000020ADF81200ADF8140003A9814888
:1023400001F04DFD0C20ADF80C000020ADF80E00A2
:102350000120ADF810000020ADF81200ADF8140017
:1023600003A9784801F03BFD01221D21754801F0C9
:102370001AFE1D21734802F0D5F80121714801F0C1
:10238000F7FD002070490870087481F8200081F87A
:10239000300040F698016C48816180692821B0FBCB
:1023A000F1F06A49088000214FF0006000F045FB21
:1023B0004FF4407000F00AFB1E208DF80400052049
:1023C0008DF8050000208DF8060001208DF807002B
:1023D00001A800F000FB09B030BD10B502215C4837
:1023E00002F08FF850B10221594802F09BF800200A
:1023F0005849487008468068401C88600421544849
:1024000002F07FF850B10421514802F08BF800210E
:10241000504841748069401C4E49886108214C48ED
:1024200002F06FF858B10821494802F07BF800210A
:10243000484880F82110806A401C46498862102173
:10244000434802F05EF858B11021414802F06AF8A2
:102450000021404880F83110806B401C3D49886362
:1024600001213B4802F04DF818B10121384802F033
:1024700059F810BD10B50221324802F042F850B1AF
:102480000221304802F04EF800202F4948700846DB
:102490008068401C886004212A4802F032F808B3A2
:1024A0000421284802F03EF80021274841744FF4E7
:1024B0008071224800F0EBFB50B123488069B0F5F1
:1024C000486F0FD220488069401C1F49886109E08D
:1024D0001D488069B0F5966F04D91B488069401E7D
:1024E000194988610821174802F00BF858B10821F2
:1024F000144802F017F80021134880F82110806A70
:10250000401C1149886210210E4801F0FAFF58B1B1
:1025100010210C4802F006F800210B4880F8311019
:10252000806B401C084988630121064801F0E9FFDF
:1025300018B10121034801F0F5FF10BD001801405A
:10254000000C014000080040900600208A00002096
:10255000002C01405006002008B50121202000F089
:102560006EFE4FF48060ADF8000002208DF802008E
:1025700010208DF803006946614800F0F5FA4FF429
:102580008070ADF8000002208DF8020010208DF858
:10259000030069465A4800F0E7FA4FF40070ADF8BE
:1025A000000002208DF8020010208DF8030069461B
:1025B000534800F0D9FA4FF48061514800F083FB92
:1025C0004FF480714E4800F07EFB4FF400714C4890
:1025D00000F079FB08BD70B50446254600261AE0D8
:1025E0004FF48071464800F06EFB05F0010028B101
:1025F0004FF48061424800F064FB04E04FF48061D6
:102600003F4800F060FB4FF480713D4800F059FBFB
:102610006D10701CC6B2082EE2DB70BD10B54FF411
:102620000071374800F04FFB4FF40071344800F060
:1026300048FB4FF40071324800F045FB10BD38B53F
:1026400004460A2094FBF0F100FB1140C0B28DF863
:1026500000000A2094FBF0F00A2190FBF1F201FB4C
:102660001200C0B28DF80100642094FBF0F090FBE2
:10267000F1F201FB1200C0B28DF802004FF47A7043
:1026800094FBF0F090FBF1F201FB1200C0B28DF868
:1026900003000120FFF79FFF9DF80310194A505CCB
:1026A000FFF799FFFFF7BAFF6420FDF739FE02201C
:1026B000FFF791FF9DF80210124A505CFFF78BFF65
:1026C000FFF7ACFF6420FDF72BFE0420FFF783FF2C
:1026D0009DF801100B4A505CFFF77DFFFFF79EFF4E
:1026E0006420FDF71DFE0820FFF775FF9DF8001020
:1026F000044A505CFFF76FFFFFF790FF38BD000002
:10270000001401401C0000200CB500200190009036
:102710009248006840F480309049086000BF8F48BC
:10272000006800F4003000900198401C019000986F
:1027300018B90198B0F5A06FF1D18848006800F48D
:10274000003010B10120009001E0002000900098BE
:1027500001285CD18248006840F010008049086080
:102760000846006820F0030008600846006840F052
:102770000200086079484068784948600846406827
:1027800048600846406840F4806048600846C06A77
:10279000744908407149C8620846C06A72490843D2
:1027A0006E49C8620846006840F08060086000BF5B
:1027B0006A48006800F000600028F9D06748406867
:1027C00020F47C10654948600846406840F4E810F1
:1027D00048600846006840F08070086000BF5F48AD
:1027E000006800F000700028F9D05C48406820F0D4
:1027F00003005A4948600846406840F002004860BB
:1028000000BF5648406800F00C000828F9D10CBD04
:1028100010B5FFF779FF10BD10B55048006840F0C3
:1028200001004E49086008464068504908404B493D
:102830004860084600684E49084048490860084614
:10284000006820F4802008600846406820F4FE00FC
:1028500048600846006820F0A05008604FF47F00F0
:1028600088600020C862FFF7D3FF4FF00060414945
:10287000086010BDF0B500210020002300240022D4
:1028800000250026354F7F6807F00C0121B104298F
:1028900008D008294BD10BE0374FDFF8E0C0CCF867
:1028A00000704AE0364FDFF8D4C0CCF8007044E046
:1028B0002A4F7F6807F47010284F7F6807F4803331
:1028C000800C0D2801D0801C00E0062033B92D4F6C
:1028D0004743DFF8A8C0CCF8007027E01F4FFF6A1D
:1028E00007F480341D4FFF6A07F00F077A1C44B9C4
:1028F000234FB7FBF2F74743DFF880C0CCF80070F6
:1029000014E0164FFF6AC7F303177D1C134FFF6ACD
:10291000C7F30327BE1C1A4FB7FBF5F77743B7FB86
:10292000F2F74743DFF854C0CCF8007005E0124FCF
:10293000DFF848C0CCF8007000BF00BF074F7F68C9
:10294000C7F30317DFF840C01CF807100B4F3F68B0
:10295000CF40DFF828C0CCF80070F0BD0010024076
:102960000020024000F0FEFF440601000000FFF0DE
:10297000FFFFF6FE08ED00E000127A008C00002058
:1029800040787D0100093D00900000200948804703
:1029900009480047FEE7FEE7FEE7FEE7FEE7FEE741
:1029A000FEE7FEE7FEE7FEE704480549054A064B59
:1029B000704700001928000851010008200A002073
:1029C00020100020200C0020200C00203149014361
:1029D000314A1160704770B5002100230F22C4787E
:1029E00004B32D4C246804F4E064C4F5E064210AC7
:1029F000C1F10403CA40447804FA03F18478144016
:102A000021430901254C0678A155047804F01F05DF
:102A10000124AC4005786D11AD0005F1E025C5F845
:102A2000004109E0047804F01F050124AC401C4D6E
:102A30000678761145F8264070BD1A4A0A400243CE
:102A4000154B1B1F1A60704739B1134A121D1268CB
:102A50000243114B1B1D1A6006E00F4A121D12683B
:102A600082430D4B1B1D1A607047042808D14FF09C
:102A7000E021096941F004014FF0E022116107E013
:102A80004FF0E021096921F004014FF0E0221161CB
:102A9000704700000000FA050CED00E000E400E0E3
:102AA00080E100E080FFFF1F10B50446CC4884425F
:102AB00008D10121042000F0E9FB0021042000F0EE
:102AC000E5FB46E0C748844208D10121082000F018
:102AD000DDFB0021082000F0D9FB3AE0C248844227
:102AE00008D10121102000F0D1FB0021102000F0BE
:102AF000CDFB2EE0BD48844208D10121202000F00A
:102B0000C5FB0021202000F0C1FB22E0B848844230
:102B100008D10121402000F0B9FB0021402000F045
:102B2000B5FB16E0B348844208D10121802000F0B3
:102B3000ADFB0021802000F0A9FB0AE0AE488442F2
:102B400007D10121801500F0A1FB0021A01500F0A4
:102B50009DFB10BD10B50121084600F097FB002138
:102B6000012000F093FB10BD2DE9F0410246002545
:102B70000026002000230024002791F803C00CF059
:102B80000F0591F803C00CF0100CBCF1000F03D03E
:102B900091F802C04CEA050591F800C0BCF1000FA5
:102BA00031D0146800202BE04FF0010C0CFA00F338
:102BB000B1F800C00CEA03069E4220D183004FF01A
:102BC0000F0C0CFA03F7BC4305FA03FC4CEA0404AF
:102BD00091F803C0BCF1280F06D14FF0010C0CFA9C
:102BE00000FCC2F814C00AE091F803C0BCF1480F21
:102BF00005D14FF0010C0CFA00FCC2F810C0401CCB
:102C00000828D1D31460B1F800C0BCF1FF0F34DD47
:102C1000546800202EE000F1080C4FF0010808FA7B
:102C20000CF3B1F800C00CEA03069E4221D18300E8
:102C30004FF00F0C0CFA03F7BC4305FA03FC4CEA07
:102C4000040491F803C0BCF1280F05D100F1080C71
:102C500008FA0CF8C2F8148091F803C0BCF1480FD0
:102C600007D100F1080C4FF0010808FA0CF8C2F87F
:102C70001080401C0828CED35460BDE8F0814FF688
:102C8000FF710180022181700421C17070470246EA
:102C9000002093680B400BB1012000E0002070473A
:102CA0000146886880B2704702460020D3680B4016
:102CB0000BB1012000E0002070470146C86880B2D7
:102CC000704701617047416170470AB1016100E0DE
:102CD00041617047C16070474FF480320A4382619E
:102CE0008161826182698269704702460020434B9C
:102CF00018684FF68073184040EA021008433F4BB3
:102D0000186070473E49C8617047F0B50A46002315
:102D100000240021002500F00046B6F1004F02D14A
:102D2000364EF16901E0354E7168C0F3034583B258
:102D300000F44016B6F5401F08D121F070612F4E07
:102D4000766826F070662D4F7E6012E000F48016E3
:102D5000B6F5801F06D1032606FA05F4A14341F01B
:102D6000706106E0460D360103FA06F6B14341F004
:102D7000706122B1460D360103FA06F6314300F0C8
:102D80000046B6F1004F02D11C4EF16101E01B4E2E
:102D90007160F0BD30B500228B071C0F0F2303FAC2
:102DA00004F2164B08338C1053F824309343134C21
:102DB00008348D1044F8253023468C1053F8243005
:102DC0008C07240F00FA04F423430C4C08348D10B4
:102DD00044F8253030BD0A49DC31086070470000F6
:102DE00000080140000C01400010014000140140A7
:102DF00000180140001C014000200140000001407B
:102E000000002042FB48006840F00100F9490860DA
:102E100008464068F8490840F64948600846006896
:102E2000F6490840F34908600846006820F480200D
:102E300008600846406820F4FE00486008460068C4
:102E400020F0A05008604FF47F0088600020C86226
:102E50007047E849096821F48031E64A116011465B
:102E6000096821F480211160B0F5803F03D0B0F5EE
:102E7000802F0ED106E0DF49096841F48031DD4A38
:102E8000116007E0DB49096841F4A021D94A1160CB
:102E900000E000BF00BF704710B5014600220023CC
:102EA00000204A11012A02D1D24C236806E0022AEE
:102EB00002D1D04C236A01E0CE4C636A01F01F02BC
:102EC000012494401C400CB1012000E0002010BD02
:102ED00038B5002000900024002500BF3120FFF706
:102EE000DBFF05460098401C00900098B0F5A06FED
:102EF00001D0002DF2D03120FFF7CEFF08B1012420
:102F000000E00024204638BD01460020B94A106880
:102F100020F0F80040EAC10010607047B84908602E
:102F2000704702460020B34B586820F4741042EA00
:102F300001031843AF4B58607047B14908667047AA
:102F400002460020AB4BD86AAE4B184042EA010360
:102F50001843A84BD862704701460020A54AD06AA2
:102F600020F0F0000843D062704701460020A14ADB
:102F7000D06A20F470600843D0627047A049886628
:102F80007047014600209B4AD06A20F470400843F5
:102F9000D06270479A490867704701460020954AF9
:102FA000506820F003000843506070479148406823
:102FB00000F00C007047014600208E4A506820F057
:102FC000F00008435060704701460020894A50686D
:102FD00020F4E06008435060704701460020854AB5
:102FE000506820F4605040EAC1005060704729B139
:102FF000804A527A02437F4B5A7204E07D4A527AE9
:1030000082437C4B5A7270477D49D83108607047C3
:1030100001460020774A506820F440400843506041
:1030200070477949086070477749091D0860704703
:103030000021704A203211706E4A82F82010012857
:1030400002D004280AD104E001216A4A203211701A
:1030500005E00521674A2032117000E000BF00BF83
:1030600070476A49086070476249096A0143614ACA
:103070001162704765494439086070472DE9F04195
:1030800000210022002500230026002400278C4672
:10309000DFF86081D8F8048008F00C0121B1042920
:1030A00007D0082959D109E0DFF86481C0F8008011
:1030B00058E0DFF86081C0F8008053E0DFF8348129
:1030C000D8F8048008F47012DFF82881D8F804805A
:1030D00008F48035920C0D2A01D0921C00E00622E3
:1030E00035B9DFF8348102FB08F8C0F8008033E01E
:1030F000DFF80081D8F82C8008F48036DFF8F480FF
:10310000D8F82C8008F00F0808F1010446B9DFF860
:103110000481B8FBF4F808FB02F8C0F800801BE05B
:10312000DFF8D080D8F82C80C8F3031808F1010725
:10313000DFF8C080D8F82C80C8F3032808F1020C0F
:10314000DFF8D080B8FBF7F808FB0CF8B8FBF4F810
:1031500008FB02F8C0F8008004E0DFF8B480C0F893
:10316000008000BF00BFDFF88C80D8F8048008F032
:10317000F0010909DFF8A48018F80130D0F80080C8
:1031800028FA03F8C0F80480DFF86880D8F80480D3
:1031900008F4E061090ADFF8848018F80130D0F8FB
:1031A000048028FA03F8C0F80880DFF84880D8F8CF
:1031B000048008F46051C90ADFF8608018F8013013
:1031C000D0F8048028FA03F8C0F80C80DFF82480D7
:1031D000D8F8048008F44041890BDFF8448018F8DF
:1031E0000130D0F80C80B8FBF3F8C0F81080BDE8CF
:1031F000F0810000001002400000FFF0FFFFF6FE2B
:1032000000004242F0FFFEFFC405424280044242F9
:1032100000127A0040787D0100093D00A0000020E6
:10322000B000002029B1354A52690243334B5A613C
:1032300004E0324A52698243304B5A61704729B1E7
:103240002E4A926902432D4B9A6104E02B4A9269FF
:1032500082432A4B9A61704729B1284AD2690243B6
:10326000264BDA6104E0254AD2698243234BDA61B6
:10327000704729B1214A926A0243204B9A6204E0C6
:103280001E4A926A82431D4B9A62704729B11B4ABB
:10329000D2680243194BDA6004E0184AD2688243CC
:1032A000164BDA60704729B1144A12690243134B76
:1032B0001A6104E0114A12698243104B1A61704787
:1032C0000F49086070470F49C86470470B49C871BF
:1032D00070470A48406A40F0807008494862704769
:1032E00001460020054A92680A400AB1012000E028
:1032F00000207047014988727047000000100240AA
:10330000400442420000424210B50446FB48844259
:1033100009D101218803FFF7B9FF00214FF4804054
:10332000FFF7B4FF32E0F648844209D10121480496
:10333000FFF7B9FF00214FF40030FFF7B4FF25E09D
:10334000F048844209D101218804FFF7ACFF002135
:103350004FF48020FFF7A7FF18E0EB48844209D123
:103360000121C804FFF79FFF00214FF40020FFF761
:103370009AFF0BE0E548844208D101210805FFF7D8
:1033800092FF00214FF48010FFF78DFF10BD2DE953
:10339000F04786B005460E460024A24600BFA1466F
:1033A0000027B08900B100BF2F462C8A4CF6FF7071
:1033B0000440F08804432C82AC894EF6F31004409C
:1033C000B08831890843718908430443AC81AC8AD1
:1033D0004FF6FF400440B0890443AC8201A8FFF7D8
:1033E0004DFEC648874202D1DDF810A001E0DDF8AD
:1033F0000CA0A88900F4004040B10AEBCA0000EB21
:103400000A1031684900B0FBF1F807E00AEBCA0086
:1034100000EB0A1031688900B0FBF1F86420B8FBBA
:10342000F0F004012009642101FB1089A88900F44F
:10343000004040B1322000EBC900B0FBF1F000F0D9
:103440000700044308E0322000EB09106421B0FBC0
:10345000F1F000F00F0004432C8106B0BDE8F087C6
:103460004FF41651016000218180C18001810C213F
:10347000418100218181704710B502460020108AE9
:103480004FF2FF0318400B884C8823438C8823435A
:10349000CC8823431843108210BD00210180418055
:1034A0008180C180704721B1828942F400528281BB
:1034B00004E082894DF6FF731A4082817047F0B5AF
:1034C0000346002400260025002040F66A17B94272
:1034D00000D100BF1846C1F3421401F01F060127B6
:1034E00007FA06F5012C01D10C3004E0022C01D1C1
:1034F000103000E014301AB107682F43076002E073
:103500000768AF430760F0BD1AB1838A0B4383821B
:1035100002E0838A8B4383827047028A4FF6F073FE
:103520001A400282028A0A430282704782894FF25D
:10353000FF731A40828182890A438281704721B1D8
:10354000828942F00202828104E082894FF6FD7393
:103550001A4082817047028A4FF6DF731A40028256
:10356000028A0A430282704721B1028A42F48042F1
:10357000028204E0028A4BF6FF731A40028270470F
:10358000C1F308028280704701468888C0F30800B2
:103590007047818941F0010181817047028BD2B26D
:1035A0000283028B42EA012202837047028B02F4FB
:1035B0007F420283028B0A430283704721B1828AD1
:1035C00042F02002828204E0828A4FF6DF731A40C2
:1035D0008282704721B1828A42F01002828204E026
:1035E000828A4FF6EF731A408282704721B1828A35
:1035F00042F00802828204E0828A4FF6F7731A4092
:103600008282704721B1828942F40042828103E0C4
:103610008289C2F30E028281704721B1828A42F40C
:103620000062828204E0828A4FF2FF731A40828233
:103630007047828A4FF6FB731A408282828A0A435D
:103640008282704721B1828A42F00202828204E0C3
:10365000828A4FF6FD731A4082827047024600202C
:10366000B1F5007F00D100BF13880B400BB10120E2
:1036700000E00020704701F40072B2F5007F00D135
:1036800000BFCA430280704770B502460024002381
:103690000025002040F66A16B14200D100BFC1F3F8
:1036A000421501F01F03012606FA03F3012D02D192
:1036B0009689334006E0022D02D1168A334001E09C
:1036C000968A33400C12012606FA04F41688344018
:1036D00013B10CB1012000E0002070BD10B5002234
:1036E000002340F66A14A14200D100BF0A1201244F
:1036F0009440A3B2DC43048010BD000000380140B8
:103700000044004000480040004C00400050004091
:1037100010B50446FE48844208D10121C014FFF7C9
:10372000B5FD0021E014FFF7B1FDC4E0B4F1804F16
:1037300008D101210846FFF7B6FD00210120FFF75F
:10374000B2FDB8E0F348844208D101210220FFF71E
:10375000AAFD00210220FFF7A6FDACE0EE4884425E
:1037600008D101210420FFF79EFD00210420FFF76E
:103770009AFDA0E0E948844208D101210820FFF722
:1037800092FD00210820FFF78EFD94E0E44884427A
:1037900008D101211020FFF786FD00211020FFF73E
:1037A00082FD88E0DF48844208D101212020FFF714
:1037B0007AFD00212020FFF776FD7CE0DA48844284
:1037C00008D101214014FFF761FD00216014FFF7CB
:1037D0005DFD70E0D548844209D10121C804FFF79E
:1037E00055FD00214FF40020FFF750FD63E0D04865
:1037F000844209D101210805FFF748FD00214FF45B
:103800008010FFF743FD56E0CA48844209D10121E8
:103810004805FFF73BFD00214FF40010FFF736FD90
:1038200049E0C548844208D101214020FFF73BFD13
:1038300000214020FFF737FD3DE0C048844208D119
:1038400001218020FFF72FFD00218020FFF72BFDB5
:1038500031E0BB48844208D101218015FFF723FDE8
:103860000021A015FFF71FFD25E0B648844209D1CD
:1038700001210804FFF70AFD00214FF48030FFF713
:1038800005FD18E0B048844209D101214804FFF742
:10389000FDFC00214FF40030FFF7F8FC0BE0AB48D3
:1038A000844208D101218804FFF7F0FC00214FF485
:1038B0008020FFF7EBFC10BD00220288944B984259
:1038C0000ED0994B98420BD0B0F1804F08D0914B5D
:1038D000984205D0904B984202D0904B984204D128
:1038E0004FF68F731A404B881A438D4B984207D07E
:1038F0008C4B984204D04FF6FF431A40CB881A43B2
:1039000002808B8883850B880385814B98420BD07E
:10391000854B984208D08B4B984205D08A4B9842F1
:1039200002D08A4B984201D10B7A0386012383820D
:10393000704770B5002400220023058C4FF6FE76F8
:1039400035400584028C8388048B4FF68F752C409C
:10395000B51E2C400D882C43751E2A400D892A4324
:103960004D882A436A4DA8420BD06F4DA84208D01B
:10397000744DA84205D0744DA84202D0734DA842A0
:1039800013D14FF6F7752A404D892A434FF6FB7540
:103990002A408D882A434FF6FF652B404FF6FF558E
:1039A0002B408D892B43CD892B4383800483CD8885
:1039B0008586028470BD70B5002400220023058C2A
:1039C0004FF6EF7635400584028C8388048B48F6E9
:1039D000FF752C404FF6FF452C400D884FF6FF76C3
:1039E00006EA05252C434FF6DF752A400D8906EAC5
:1039F00005152A434D8806EA05152A43444DA84279
:103A000002D0494DA8421DD14FF67F752A404D89FD
:103A10004FF6FF7606EA05152A434FF6BF752A4092
:103A20008D8806EA05152A434FF6FF352B404FF2E5
:103A3000FF752B408D8906EA85052B43CD8906EA63
:103A400085052B4383800483CD880587028470BD60
:103A500070B5002400220023058C4FF6FF66354028
:103A60000584028C8388848B4FF68F752C404FF62B
:103A7000FC752C400D882C434FF6FF552A400D89CC
:103A80004FF6FF7606EA05252A434D8806EA052506
:103A90002A431F4DA84202D0234DA8421DD14FF208
:103AA000FF752A404D894FF6FF7606EA05252A4321
:103AB0004FF6FF352A408D8806EA05252A434EF643
:103AC000FF752B404DF6FF752B408D8906EA0515D5
:103AD0002B43CD8906EA05152B4383808483CD884B
:103AE0008587028470BD70B5002200230024058CF8
:103AF0004EF6FF7635400584038C8488828B48F629
:103B0000FF752A404FF6FF452A400D8820E000004F
:103B1000002C01400004004000080040000C004060
:103B2000001000400014004000340140004C0140EF
:103B3000005001400054014000180040001C0040AB
:103B40000020004000400140004401400048014086
:103B50004FF6FF7606EA05252A434DF6FF752B4002
:103B60000D8906EA05352B434D8806EA05352B43BA
:103B7000FA4DA84202D0FA4DA84208D14BF6FF7583
:103B80002C408D894FF6FF7606EA85152C438480FC
:103B90008283CD88A0F84050038470BD828B4FF2A1
:103BA000FF331A408283828B4FF6FF7303EA0123AF
:103BB0001A4382837047F0B50C4615460022002157
:103BC0000026078C4EF6FF7C07EA0C070784828BE1
:103BD000018C4FF6FF7707EA043640F6FF473A407C
:103BE0004FF6FF7707EA05273A434FF6FF7707EAD4
:103BF00003373A43D94FB8420ED0D94FB8420BD011
:103C0000B0F1804F08D0D74FB84205D0D64FB84258
:103C100002D0D64FB84206D14DF6FF77394046F470
:103C20008057394305E047F6FF57394044F4805741
:103C3000394382830184F0BD828B4FF6F3731A40BF
:103C40008283828B0A4382837047F0B50C46154607
:103C5000002200210026078C4FF6FF6C07EA0C07B4
:103C60000784828B018C4FF6FF7707EA04264FF614
:103C70000C773A404FF6FF7707EA03172F433A4392
:103C8000B64FB8420ED0B64FB8420BD0B0F1804F0D
:103C900008D0B44FB84205D0B34FB84202D0B34FAA
:103CA000B84206D14FF6FF57394046F48077394382
:103CB00005E04FF2FF57394044F48077394382835F
:103CC0000184F0BD028B4FF2FF331A400283028B56
:103CD0004FF6FF7303EA01231A4302837047F0B5DE
:103CE0000C461546002200210026078C4FF6EF7C7B
:103CF00007EA0C070784028B018C4FF6FF7707EA6F
:103D0000041640F6FF473A404FF6FF7707EA0337BD
:103D10003A434FF6FF7707EA05273A438F4FB842F9
:103D20000ED08F4FB8420BD0B0F1804F08D08D4FDE
:103D3000B84205D08C4FB84202D08C4FB84206D161
:103D40004FF6DF77394046F01007394305E04FF66C
:103D50005F77394044F01007394302830184F0BD96
:103D6000028B4FF6F3731A400283028B0A430283DD
:103D70007047F0B50C46154600220021068C4FF620
:103D8000FE773E400684028B018C4FF60C76324063
:103D90007E1C06EA03162E433243704EB0420ED00C
:103DA0006F4EB0420BD0B0F1804F08D06D4EB04294
:103DB00005D06D4EB04202D06C4EB04206D14FF6E7
:103DC000FD76314044F00106314305E04FF6F576CB
:103DD000314044F00106314302830184F0BD70B5E7
:103DE00005460C465D4885420ED05D4885420BD0A5
:103DF000B5F1804F08D05B48854205D05A488542CE
:103E000002D05A48854200D100E000BF208850B956
:103E10002389A28861882846FFF7ABFFE1882846FE
:103E2000FFF79EFF25E0208804280AD12389A28875
:103E300061882846FFF753FFE1882846FFF742FFD5
:103E400017E0208808280AD12389A288618828469B
:103E5000FFF7FBFEE1882846FFF7EEFE09E0238925
:103E6000A28861882846FFF7A6FEE1882846FFF76A
:103E700095FE70BD2DE9F04105460C460026012750
:103E8000608808B9022600E00026A088012801D138
:103E9000022700E001272088A0B92389A288618831
:103EA0002846FFF766FFE1882846FFF759FF238978
:103EB0003A4631462846FFF712FFE1882846FFF7C9
:103EC00001FF13E02389A28861882846FFF707FFD6
:103ED000E1882846FFF7F6FE23893A463146284610
:103EE000FFF747FFE1882846FFF73AFFBDE8F0817A
:103EF0000A884B881A438B881A43CB881A430B894C
:103F00001A434B891A438B891A43A0F844207047FF
:103F10004FF6FF71818000210180C18041800172D4
:103F200070470021018041808180C18001814181F1
:103F30008181C18170470021018041800121818000
:103F40000021C18001817047002101804180818072
:103F5000C18001814181818170470000002C0140B6
:103F6000003401400004004000080040000C004004
:103F700021B1028842F00102028004E002884FF67B
:103F8000FE731A400280704731B1B0F8442042F409
:103F90000042A0F8442005E0B0F84420C2F30E022D
:103FA000A0F8442070471AB183890B43838102E053
:103FB00083898B43838170478182704741EA020382
:103FC000A0F8483070471AB183890B43838102E01F
:103FD00083898B438381704701894FF6F8721140C2
:103FE000018170470A46002101894FF68F731940FD
:103FF00011430181704730B504460D4629462046DD
:10400000FFF7F0FF208940F00700208130BD2DE947
:10401000F04104460D4616461F46602D06D13B462C
:10402000012231462046FFF75AFE05E03B460122B9
:1040300031462046FFF79DFE29462046FFF7D2FF76
:10404000208940F007002081BDE8F08130B50C46A2
:1040500000210189C9B24FF6FF7505EA0325154312
:1040600025432943018130BD2DE9F04105460E4627
:1040700017469846002443463A4631462846FFF7FD
:10408000E5FF2C894FF6F870044044F007044FF622
:104090008F70044044F070042C81BDE8F081F0B5CD
:1040A00004460D4616461F463B46324629462046E4
:1040B000FFF7CCFF208940F480402081F0BD0185CE
:1040C000828270470A46002101884FF68F7319409B
:1040D000114301807047F0B50C4615461E4600217D
:1040E000002200230189028B038C4FF6F8773940B8
:1040F00021434FF6FC473A4040F201173A434FF64E
:10410000DD773B404FF6FF7707EA06172F433B4327
:10411000018102830384F0BD0A460021018B4FF622
:104120008F7319401143018370470A460021018BA8
:1041300048F6FF7319404FF6FF7303EA0223194351
:10414000018370470A460021818B4FF68F73194017
:104150001143818370470A460021818B48F6FF7323
:1041600019404FF6FF7303EA022319438183704716
:1041700021B1028842F08002028004E002884FF6FA
:104180007F731A400280704721B1828842F0040296
:10419000828004E082884FF6FB731A408280704769
:1041A00021B1828842F00802828004E082884FF6C2
:1041B000F7731A408280704721B1828842F0010271
:1041C000828004E082884FF6FE731A408280704736
:1041D0000A460021018B4FF6F77319401143018302
:1041E00070470A460021018B4FF2FF7319404FF6CA
:1041F000FF7303EA02231943018370470A46002133
:10420000818B4FF6F77319401143818370470A463B
:104210000021818B4FF2FF7319404FF6FF7303EAC1
:1042200002231943818370470A460021018B4FF610
:10423000FB7319401143018370470A460021018B2B
:104240004FF6FF3319404FF6FF7303EA0223194379
:10425000018370470A460021818B4FF6FB7319409A
:104260001143818370470A460021818B4FF6FF334B
:1042700019404FF6FF7303EA022319438183704705
:104280000A460021018B4FF67F73194011430183C9
:1042900070470A460021018BC1F30E014FF6FF73F0
:1042A00003EA02231943018370470A460021818BE8
:1042B0004FF67F7319401143818370470A460021EE
:1042C000818BC1F30E014FF6FF7303EA02231943FA
:1042D000818370470A460021018C4FF6FD73194017
:1042E0001143018470470A460021018C4FF6F77391
:1042F00019401143018470470A460021018C4FF692
:10430000DF7319404FF6FF7303EA02131943018468
:1043100070470A460021018C4FF67F7319404FF613
:10432000FF7303EA02131943018470470A46002110
:10433000018C4FF6FF5319404FF6FF7303EA022337
:104340001943018470470A460021018C4FF2FF7324
:1043500019404FF6FF7303EA0223194301847047A3
:104360000A460021018C4DF6FF7319404FF6FF738A
:1043700003EA023319430184704730B50023012456
:104380008C40A3B2048C9C430484048C02FA01F593
:10439000ADB22C43048430BD30B5002304248C40DE
:1043A000A3B2048C9C430484048C02FA01F5ADB2E0
:1043B0002C43048430BD70B5034600200024184609
:1043C000183001258D40ACB21D8CA5431D8409B168
:1043D000082909D100EB6100056825F0700505602A
:1043E0000568154305600EE00D1FC5F34E05284412
:1043F000056825F4E045056005684FF6FF7606EA96
:1044000002263543056070BD21B1028842F00202E8
:10441000028004E002884FF6FD731A400280704764
:1044200021B1028842F00402028004E002884FF6C3
:10443000FB731A400280704721B1828842F08002EB
:10444000828004E082884FF67F731A408280704732
:1044500002884FF6F7731A40028002880A430280EE
:10446000704782884FF68F731A40828082880A4391
:104470008280704702894FF6F8731A4002810289E0
:104480000A430281704702894FF67F731A40028106
:1044900002890A4302817047818470478185704791
:1044A000818670470187704781877047A0F8401068
:1044B000704702884FF6FF431A40028002880A4381
:1044C000028070470146888E70470146088F70470A
:1044D0000146888F70470146B1F840007047014699
:1044E000888C70470146088D704702460020138A69
:1044F0000B400BB1012000E000207047CA4302824C
:10450000704730B50246002000230024158A05EAD2
:104510000103958905EA010413B10CB1012000E003
:10452000002030BDCA4302827047000010B5044627
:10453000FA48844208D101214015FEF7A7FE002168
:104540006015FEF7A3FE17E0F548844208D101216B
:104550000015FEF79BFE00212015FEF797FE0BE0ED
:10456000F048844208D10121C803FEF78FFE0021E4
:104570004FF40040FEF78AFE10BD30B50246002021
:1045800000235068E84C20400D790C6844EA05246B
:10459000204350609068E54C2040D1E902542C4300
:1045A0004D7944EA450420439060D06A20F47000BD
:1045B0000C7C641EE4B2234340EA0350D06230BD59
:1045C00000210160017141718160C16001210174AC
:1045D000704721B1826842F00102826003E0826884
:1045E00022F001028260704721B1826842F4807239
:1045F000826003E0826822F480728260704710B5A6
:104600000023CBB21AB144681C43446002E0446802
:104610009C43446010BD816841F00801816070478F
:10462000014600208A6802F008020AB1012000E079
:1046300000207047816841F00401816070470146A5
:1046400000208A6802F004020AB1012000E0002084
:10465000704721B1826842F4A002826003E0826860
:1046600022F4A00282607047014600208A6802F4AA
:1046700080020AB1012000E00020704710B50A4610
:1046800000210023416821F46041531E41EA433177
:10469000416010BD21B1426842F40062426003E013
:1046A000426822F4006242607047F0B504460D464D
:1046B00000200021092D11DDE068A5F10A0606EBB6
:1046C0004607072606FA07F18843A5F10A0606EB16
:1046D000460603FA06F10843E0600CE0206905EBAA
:1046E0004507072606FA07F1884305EB450603FA56
:1046F00006F108432061072A0FDA606B561E06EBAD
:1047000086071F2606FA07F18843561E06EB860623
:1047100005FA06F10843606322E00D2A0FDA206BE8
:10472000D61F06EB86071F2606FA07F18843D61F19
:1047300006EB860605FA06F10843206310E0E06AFE
:10474000A2F10D0606EB86071F2606FA07F188433D
:10475000A2F10D0606EB860605FA06F10843E062B3
:10476000F0BD21B1826842F48012826003E0826869
:1047700022F48012826070470146C86C80B2704794
:1047800066484C300068704721B1426842F480624C
:10479000426003E0426822F480624260704721B1C7
:1047A000426842F48052426003E0426822F4805240
:1047B000426070470A460021816821F4E0411143BC
:1047C0008160704721B1826842F40042826003E058
:1047D000826822F400428260704721B1826842F40C
:1047E0000212826003E0826822F402128260704743
:1047F000014600208A6802F400120AB1012000E09C
:1048000000207047F0B5044615460020002200261F
:10481000092911DDE068A1F10A0707EB470C07271A
:1048200007FA0CF29043A1F10A0707EB470703FAD6
:1048300007F21043E0600CE0206901EB410C072710
:1048400007FA0CF2904301EB410703FA07F2104319
:104850002061A06BC0F30156EF1C06F1010CA7EB21
:104860000C0707EB870C1F2707FA0CF29043EF1C8D
:1048700006F1010CA7EB0C0707EB870701FA07F21B
:104880001043A063F0BD10B50A4600210023816BE0
:1048900021F44011531E41EA0351816310BD08B554
:1048A000002300930090009B0B440093009B1A6030
:1048B00008BD08B5024600200090009201F12800D2
:1048C000009B184400900098006880B208BD0A461A
:1048D00000214168164B1940114341607047416205
:1048E000826270470A460021416821F01F0111438E
:1048F0004160704740B109490831096841F400013D
:10490000064A0832116007E004490831096821F4B9
:104910000001024A08321160704700000024014083
:1049200000280140003C0140FFFEF0FFFDF7F1FFD1
:10493000FFFD3FFF0246002013680B400BB1012032
:1049400000E000207047CA430260704770B502461D
:104950000020002300240B125568CEB205EA06049D
:1049600015681D4015B10CB1012000E0002070BD9C
:1049700000220A12D34303607047000010B50446BA
:10498000FE48844209D101214806FEF78CFC002133
:104990004FF00070FEF787FC08E001218806FEF763
:1049A00082FC00214FF08060FEF77DFC10BD30B529
:1049B000024600200023146824F0020414601468E6
:1049C00044F00104146000E05B1C546804F001042E
:1049D0001CB94FF6FF74A342F6D1546804F00104E9
:1049E0000CB900206CE08C79012C04D1146844F0DF
:1049F0008004146003E0146824F080041460CC790F
:104A0000012C04D1146844F04004146003E01468DD
:104A100024F0400414600C7A012C04D1146844F092
:104A20002004146003E0146824F0200414604C7A1D
:104A3000012C04D1146844F01004146003E01468DD
:104A400024F0100414608C7A012C04D1146844F012
:104A50000804146003E0146824F008041460CC7A9D
:104A6000012C04D1146844F00404146003E01468B9
:104A700024F0040414608C78A407CD7844EA05641B
:104A80000D7944EA05444D7944EA05540D886D1EBC
:104A90002C43D461146824F001041460002300E066
:104AA0005B1C546804F001041CB14FF6FF74A34270
:104AB000F6D1546804F001040CB1002000E001209C
:104AC00030BD10B50021837A012202FA03F1AC4A0D
:104AD000126842F00102AA4B1A60A94A1C321268FD
:104AE0008A43A74B1C331A60027BCAB9A44A0C3212
:104AF00012688A43A24B0C331A604288C38842EA88
:104B000003439F4A4032847A42F8343002888388D3
:104B100042EA03439A4A4032847A02EBC402536069
:104B2000027B012A19D1964A0C3212680A43944B2F
:104B30000C331A604288038842EA0343904A4032A9
:104B4000847A42F83430C288838842EA03438C4A2C
:104B50004032847A02EBC4025360C27A3AB9884A7E
:104B6000121D12688A43864B1B1D1A6006E0844A98
:104B7000121D12680A43824B1B1D1A60028932B94A
:104B80007F4A143212688A437D4B14331A600289BB
:104B9000012A06D17A4A143212680A43784B143338
:104BA0001A60427B012A06D1754A1C3212680A43F8
:104BB000734B1C331A60724A126822F00102704B68
:104BC0001A6010BD00218171C17101724172817240
:104BD000C1728170C17003210171022141710121F3
:104BE000018070476649096841F00101644A11601B
:104BF0001146096843F60E729143614A11601146ED
:104C0000096841EA002111601146096821F001019B
:104C10001160704721B1026842F48032026003E003
:104C2000026822F4803202607047E1B1026842F00B
:104C3000800202604FF4C272125842F480734FF443
:104C4000C27213504FF4CA72125842F480734FF478
:104C5000CA7213504FF4D272125842F480734FF458
:104C6000D27213501BE0026822F0800202604FF4FF
:104C7000C272125822F480734FF4C27213504FF470
:104C8000CA72125822F480734FF4CA7213504FF450
:104C9000D272125822F480734FF4D27213507047BC
:104CA00010B502460020936803F08063B3F1806F73
:104CB00000D110E0936803F00063B3F1006F01D1FD
:104CC000012008E0936803F08053B3F1805F01D1C5
:104CD000022000E00420042879D002F5C07303EB21
:104CE00000131B6803F0010402F5C07303EB00130B
:104CF0001C600B7A7BB94B7A0C8843EA445302F56B
:104D0000C07404EB00142468234302F5C07404EB60
:104D10000014236010E00B7A4C6843EAC4034C7A19
:104D2000234302F5C07404EB00142468234302F506
:104D3000C07404EB001423608B7A03F00F038B72B2
:104D400002F5C07303EB00135B6823F00F0402F558
:104D5000C07303EB00135C6002F5C07303EB001338
:104D60005B688C7A234302F5C07404EB0014636023
:104D70008B7B1C064B7B44EA034403E00064004049
:104D8000006600400B7B44EA0323CC7A234302F500
:104D9000C07404EB0014A3608B7C1C064B7C44EABB
:104DA00003440B7C44EA0323CC7B234302F5C07409
:104DB00004EB0014E36002F5C07303EB00131B68FF
:104DC00043F0010402F5C07303EB00131C6010BD37
:104DD00010B50246002321B1012907D002290FD1C5
:104DE00009E09068F94C00EA04030BE09068F84C85
:104DF00000EA040306E09068F64C00EA040301E0D0
:104E0000002300BF00BFF44C181BA34216D007DCE0
:104E100083B16FF08060184470B1022818D111E09E
:104E2000B0F5007F10D0ED4C204448B1B0F5003F04
:104E30000ED10BE002230DE000230BE0002309E07C
:104E4000002307E0012305E0012303E0012301E043
:104E5000002300BF00BFD8B210BD21B1012907D087
:104E600002290FD109E0826842F0800282600AE0E4
:104E7000826842F40042826005E0826842F40002E7
:104E8000826000E000BF00BF704710B500F5D87326
:104E900003EB01131B6803F004031372137A53B975
:104EA00000F5D87303EB01131B6840F2FF7404EAAA
:104EB0005353136009E000F5D87303EB01131B682B
:104EC0006FF0604404EAD303536000F5D87303EB3A
:104ED00001131B6803F00203537200F5D87303EB50
:104EE00001135B6803F00F03937200F5D87303EBB3
:104EF00001135B681B0AD37400F5D87303EB01132D
:104F00009B68D37200F5D87303EB01139B681C0AEE
:104F1000147300F5D87303EB01139B681C0C5473D6
:104F200000F5D87303EB01139B681B0E937300F518
:104F3000D87303EB0113DB68D37300F5D87303EB6D
:104F40000113DB681C0A147400F5D87303EB01131A
:104F5000DB681C0C547400F5D87303EB0113DB6899
:104F60001B0E937421B9C36843F02003C36003E0B0
:104F7000036943F02003036110BD21B9C26842F008
:104F80002002C26003E0026942F020020261704721
:104F90000246002019B9D36803F0030006E0012996
:104FA00003D1136903F0030000E00020704710B53F
:104FB00002460B4600204FF6FF71BBB9146824F07F
:104FC000020444F00104146000E0491E546804F037
:104FD0000304012C01D00029F7D1546804F0030424
:104FE000012C01D0002032E0012030E0012B13D150
:104FF000146824F00304146000E0491E546804F0AF
:1050000003040CB10029F8D1546804F003040CB176
:1050100000201CE001201AE0022B17D1146824F0B4
:10502000010444F00204146000E0491E546804F0D6
:105030000304022C01D00029F7D1546804F00304C2
:10504000022C01D0002002E0012000E0002010BD71
:10505000014600200A6822F0010242F002020A60C2
:105060004A6802F00302022A00D10120704701467B
:105070004FF6FF7200200B6823F002030B6000E084
:10508000521E4B6803F00203022B01D1002AF7D114
:105090004B6803F00203022B00D001207047014649
:1050A00000208A6902F070007047014600208A697A
:1050B000100E7047014600208A69C2F3074070470E
:1050C0001AB143690B43436102E043698B43436177
:1050D000704710B50246002001F4700343B1936994
:1050E000C1F3130423400BB101202DE000202BE07D
:1050F00001F0807343B15368C1F3130423400BB133
:10510000012021E000201FE001F0006343B193681B
:10511000C1F3130423400BB1012015E0002013E07C
:1051200001F0007343B1D368C1F3130423400BB102
:10513000012009E0002007E01369C1F313042340B4
:105140000BB1012000E0002010BD0022244B994249
:1051500002D10023836111E0C1F3130201F0007357
:105160000BB1C2600AE001F080630BB1026105E09F
:1051700001F000630BB1826000E0426070470246BC
:10518000002002EA01030BB1012000E0002070477B
:1051900070B504460D46002660692840002872D08C
:1051A000B5F5807F69D01DDC082D42D006DC012DCD
:1051B0002DD0022D31D0042D7FD134E0102D3ED0E2
:1051C000202D42D0402D78D145E00000030000049E
:1051D0000003000800000310000100080001FFF7B1
:1051E0007000F030B5F5004F61D009DCB5F5007FF7
:1051F0004AD0B5F5806F4DD0B5F5006F5DD150E068
:10520000B5F5803F2DD0B5F5003F56D12FE0A06811
:105210005549FFF7B4FF064651E0E0680321FFF768
:10522000AEFF06464BE0E0680821FFF7A8FF064600
:1052300045E0E0681021FFF7A2FF06463FE0206945
:105240000321FFF79CFF064639E020690821FFF79C
:1052500096FF064633E020691021FFF790FF0646CF
:105260002DE060680821FFF78AFF064627E06068A6
:105270001021FFF784FF064621E0A0690121FFF716
:105280007EFF06461BE01BE0A0690221FFF777FFC7
:10529000064614E0A0690421FFF771FF06460EE000
:1052A0000BE0A0697021FFF76AFF064607E060681F
:1052B0000421FFF764FF064601E0002600BF00E07E
:1052C0000026304670BDB1F5007F3AD00FDC2029B2
:1052D00028D006DC01291CD004291DD0082940D182
:1052E0001DE0402921D0B1F5807F3AD126E0B1F50B
:1052F000004F31D006DCB1F5806F25D0B1F5006FDD
:105300002FD124E0B1F5803F12D0B1F5003F28D174
:1053100011E0154A826025E00822C26022E01022D6
:10532000C2601FE0082202611CE01022026119E045
:105330000822426016E01022426013E0042242601C
:1053400010E0042242600DE0042242600AE00022E4
:1053500082610422426005E00022826104224260F0
:1053600000E000BF00BF70470101010029B1504AB1
:10537000128802434E4B1A8004E04D4A1288824341
:105380004B4B1A8070474A48001D008840F01000BF
:105390004749091D088070474548001D00884FF6A1
:1053A000EF7108404249091D0880704700214048BC
:1053B0001C300188001F008841EA0040704700B59A
:1053C0000246FFF7E0FF100C394918310880091D2B
:1053D0000A80FFF7E1FF00BD00B50246FFF7D3FFEB
:1053E000C2F30340324908310880091D0A80FFF7E3
:1053F000D3FF00BD00B50246FFF7C5FF100C2C49D6
:1054000020310880091D0A80FFF7C6FF00BD00207B
:105410002749103109880907080B254914310988E3
:105420000843704700BF2248001D008800F020009C
:105430000028F8D070471E48001D00884FF6F7710D
:1054400008401B49091D088000BF1948001D00883D
:1054500000F008000028F8D0704701460020144AE8
:10546000121D12880A400AB1012000E00020704796
:105470000F49091D098881430D4A121D118070478B
:10548000014600200A4A121D12880A40D0B2084A7A
:1054900012880A4012B108B1012000E000207047D4
:1054A0000349091D09888143014A121D1180704773
:1054B0000028004010B50120FDF702FF0020FDF795
:1054C000FFFE10BD2A49086070472949091F08607E
:1054D0007047274984310860704701460020254AFB
:1054E00010884FF67F4210400843224A10807047D0
:1054F000014600201F4A10884FF680721040084372
:105500001C4A1080704708B500220092194A2C3AB4
:105510000092009A02440092009A116008BD08B5FA
:1055200001460020009013482C3800900098084451
:1055300000900098008808BD0D489C300068C0B2FB
:1055400070470C480830008840F0010009490831D4
:10555000088070470648A0300068C0B27047054810
:105560000830008840F00200024908310880704786
:1055700004860D422C6C004010B501210807FDF790
:1055800092FE00214FF08050FDF78DFE10BD2A499C
:105590000862704728490861704701460020274A81
:1055A000106820F0E0000843106070472249A031E5
:1055B0000860704710B502460020204B186820F0A4
:1055C0000300104318601E4B1B6843F004031C4C7F
:1055D0002360012901D130BF00E020BF184B1B68B8
:1055E00023F00403164C236010BD1448006840F0FB
:1055F0000400124908600846006840F00200086094
:105600000F48006840F004000D49086000BF00BF6B
:1056100030BF704701460020084A52680A400AB16C
:10562000012000E0002070470449096841EA800138
:10563000024A11607047000000000E4200700040F6
:1056400010ED00E001684FF6FE721140016000218C
:10565000016041608160C1608D49884208D18C49F8
:105660000839496841F00F01894A083A51608AE0D7
:1056700087491431884208D185490839496841F081
:10568000F001834A083A51607DE08149283188421F
:1056900008D17F490839496841F470617C4A083A69
:1056A000516070E07A493C31884208D17849083924
:1056B000496841F47041764A083A516063E07449A0
:1056C0005031884208D172490839496841F4702143
:1056D0006F4A083A516056E06D496431884208D1FA
:1056E0006B490839496841F47001694A083A5160C8
:1056F00049E067497831884208D1654908394968E5
:1057000041F07061624A083A51603CE06149884268
:1057100006D1011F096841F00F01021F116032E03C
:105720005C491431884208D15A49091F096841F07F
:10573000F001584A121F116025E05649283188426D
:1057400008D15449091F096841F47061514A121F78
:10575000116018E04F493C31884208D14D49091F7A
:10576000096841F470414B4A121F11600BE049492E
:105770005031884207D14749091F096841F4702117
:10578000444A121F1160704710B50022026847F6A4
:10579000F0739A430C6A8B6823430C6923434C696A
:1057A00023438C692343CC6923434C6A23438C6A8B
:1057B00023431A430260CB6843600B6883604B68E5
:1057C000C36010BD0021016041608160C160016162
:1057D00041618161C161016241628162704721B1B1
:1057E000026842F00102026004E002684FF6FE73B4
:1057F0001A40026070471AB103680B43036002E06D
:1058000003688B43036070474160704701464868F6
:1058100080B2704701460020002201F080531BB186
:105820001C4B083B1A6802E0194B083B1A6802EA55
:1058300001030BB1012000E00020704700F080510F
:1058400019B11449091F086002E01149083948607C
:10585000704701460020002201F080531BB10D4B20
:10586000083B1A6802E00A4B083B1A6802EA010387
:105870000BB1012000E00020704700F0805119B109
:105880000449091F086002E001490839486070476F
:10589000080002400804024008B500210091491E9A
:1058A0008268516082685161009921F0004101F1E4
:1058B00000410091009921F4006101F5006100911F
:1058C00000998268916108BDF8B50446002600255C
:1058D0000020009000BF032001F031FCA0680069A7
:1058E0000090681C0546FE49884201D90020F8BD99
:1058F0000098C00F0028EED00025009820F001008D
:10590000401C00900098A168086100BFA068006971
:105910000090681C0546F249884200D904E00098CE
:1059200000F001000028F1D100BF032001F007FCC6
:105930003046DCE72DE9F04104464FF0000C00262C
:105940000025D81C4FEAE07800EB98784FEAA806CB
:1059500004F1500050F8227000BF03E0086838607E
:105960006D1C091DB542F9D36046BDE8F081F0B564
:1059700003460024D01CC71700EB9777BD101E6D9F
:1059800000BF03E030680860641C091DAC42F9D315
:105990000846F0BD08B50146002000220092009A9A
:1059A00022F00102521C00928A689268009B9A437E
:1059B0008B689A6008BD7CB504460026002500204F
:1059C00001900090082020604FF4A0706060800576
:1059D000A060C449E160C3494031E16400BF07E011
:1059E000C14800EB451104F1100040F825106D1C72
:1059F0002068A842F4D8002507E0BC4800EB053138
:105A000004F1500040F825106D1C2068A842F4D81D
:105A1000B749C4F88C102046FFF7BCFFA068C068E7
:105A20000190019820F04000403001900198A16859
:105A3000C8602046FFF748FF00200090009820F43F
:105A4000803000F580300090009820F4802000F530
:105A500080200090009820F4002000F500200090A5
:105A60000098A1688863142001F02BFBA068C0682F
:105A70000190019820F4803001900198A168C860DD
:105A800030467CBD08B50146002000220092009AF5
:105A900022F00102521C00928A689268009B1A430D
:105AA0008B689A6008BDF8B504460D4600260027AD
:105AB00000200090009820F02000203000900098F6
:105AC00065F38A1000900098A168086100BFA06883
:105AD00000690090781C07468149884200D904E09B
