:020000040800F2
:10000000201A0020E5360008ED360008EF3600081B
:10001000F1360008F3360008F5360008000000004D
:10002000000000000000000000000000F73600089B
:10003000F936000800000000FB360008FD36000815
:10004000FF360008FF360008FF360008AB2B00081B
:10005000FF360008FF360008FF360008FF360008AC
:10006000FF360008FF360008FF360008DF2E0008C4
:10007000FF360008FF360008FF360008FF3600088C
:10008000FF360008FF360008FF360008FF3600087C
:1000900085160008FF360008FF360008FF36000806
:1000A000FF360008FF360008FF360008AB300008B6
:1000B000BB7E0008FF36000811330008FF36000839
:1000C000FF360008FF360008FF360008FF3600083C
:1000D000FF360008D133000815340008FF36000849
:1000E000FF360008FF360008FF3600080000000059
:1000F0000000000000000000000000000000000000
:1001000000000000000000008B050008FF3600081A
:10011000FF360008FF360008FF360008FF360008EB
:10012000FF360008FF360008FF360008FF360008DB
:10013000FF360008FF360008FF360008FF360008CB
:10014000E31A0008FF360008FF360008C37E0008E7
:10015000DFF80CD008F0DEF80048004799010008ED
:10016000201A002010B503F003FA00203A49087065
:1001700000F0F2FD02F055F902F077FA00F083FA90
:1001800000F072F802F034FD47214FF6FF7002F0E4
:10019000C5FE01F0BDF910BD90B0FFF7E3FF2EE002
:1001A0002E480078C0F3400048B32C48007820F077
:1001B00002002A49087008460078C0F3401090B148
:1001C0000846007820F0200008702549886907F06B
:1001D000A2FF2349C8610021214881610146C86905
:1001E00007F0ABFF84B23A208DF804009DF80410AC
:1001F0001C4800F098FAE1B21A4800F094FACFE7F0
:1002000000BF0100A0F1010290B2FAD1704710B511
:1002100090B03A208DF8040001208DF805000020F0
:100220008DF806008DF807008DF808008DF809009C
:100230000D208DF80A000A208DF80B00002406E03E
:1002400001A8015D074800F06EFA601CC4B2082CDA
:10025000F6DB10B010BD00000000002007000020F9
:10026000F0120020004400401FB50121082003F0D7
:1002700091FE6320ADF8080040F2CF20ADF80400F5
:100280000020ADF80A00ADF8060001A9C54804F049
:10029000B1F90121C34804F0E3FF01221146C1482E
:1002A00004F01FFD0121BF4804F000FD00214FF0C4
:1002B000006003F060FA4FF4407003F025FA32203A
:1002C0008DF800000F208DF8010000208DF802004D
:1002D00001208DF80300684603F01BFA1FBDB248E9
:1002E0008088401CB049888008460068401C08602F
:1002F000AE480078C0F3001090B10846C088401C9A
:10030000C8800846C08840F2DC51884208DB0020E3
:10031000A549C880A548007820F01000A3490870BE
:10032000A14880880A2190FBF1F201FB1200E8B994
:100330009F48007820F00400001D9D4908709D49E9
:10034000087800EBD0714910A0EB4101012906D1DA
:100350009948007820F010001030974908709348B1
:10036000007820F008000830904908708E48808896
:10037000642190FBF1F201FB1200A8B98D490878C5
:1003800000EBD0714910A0EB410131B98A480078E7
:1003900020F010001030884908708448007820F060
:1003A0000100401C814908707F488088642190FBCF
:1003B000F1F201FB120030B97D48007820F0020014
:1003C000801C7B49087078488088B0F57A7F6EDBA6
:1003D0007A48007801280CD178484078032805DA5B
:1003E00076484078401C7549487002E00020734907
:1003F000C8607248007C01280DD17048407C0328F9
:1004000006DA6E48407C401CC1B26C48417402E080
:1004100000216A48C161694890F82000012810D184
:10042000664890F82100032808DA644890F8210013
:10043000401CC1B2614880F8211002E000215F48F1
:10044000C1625E4890F83000012810D15B4890F8F6
:100450003100032808DA594890F83100401CC1B235
:10046000564880F8311002E000215448C1635448D6
:10047000007801280CD152484078032805DA50480A
:100480004078401C4E49487002E000204C49C8604A
:100490004B48007C01280ED14948407C032807DAEC
:1004A0004748407C401CC1B24548417403E06BE0C2
:1004B00000214348C161424890F82000012810D132
:1004C0003F4890F82100032808DA3D4890F82100C1
:1004D000401CC1B23A4880F8211002E0002138489F
:1004E000C162374890F83000012810D1344890F8A4
:1004F0003100032808DA324890F83100401CC1B2BC
:100500002F4880F8311002E000212D48C1630020FF
:10051000254988800846007A401C087229480078DE
:10052000002804DD27480078401E264908701F482F
:10053000007820F00200801C1C49087008460078F2
:1005400020F02000203008701948007820F00100C9
:10055000401C174908701448007A3C2814DB00201E
:10056000114908721148007820F00400001D0F495D
:1005700008700D48407A401C0B4948720846407A82
:100580003C2801DB00204872704710B50121054866
:1005900004F055FE28B10121024804F061FEFFF786
:1005A0009EFE10BD000C0040CC0000200700002083
:1005B00045000020D40E002046000020B01200208C
:1005C000F01200208000002038B504460D46FE4998
:1005D00051F82410FD4A52F82420114341F0010043
:1005E000012103F0CAFC34B9F94951F82400012172
:1005F00003F0C3FC1BE0012C0AD10121082003F009
:1006000022FAF34951F82400012103F0C3FC0EE063
:10061000022C06D1EE4951F82400012103F0BAFC66
:1006200005E0EB4951F82400012103F0B3FC182048
:100630008DF80300E74830F81400ADF800000320FF
:100640008DF80200E44951F82400694603F02AF9C4
:1006500004208DF80300E14830F81400ADF80000E4
:10066000DF4951F82400694603F01CF9DD4951F8CF
:100670002400294603F029FDDA4951F8240001211C
:1006800003F0AFFD38BD08B50121202003F075FC53
:100690001020ADF8000003208DF8020010208DF826
:1006A00003006946D04803F0FDF81021CE4803F05E
:1006B000A8F90020CD498870CD4988704FF41650B4
:1006C000CC49086000208880C880088188810C207F
:1006D00048810020FFF778FF012240F22551C648EB
:1006E00003F08BFD002240F22771C34803F085FD23
:1006F00040F22661C04803F08FFEBE490120FFF79B
:1007000063FF012240F22551BC4803F076FD002230
:1007100040F22771B94803F070FD40F22661B748F6
:1007200003F07AFE08BD70B504460D462946204602
:1007300003F0C4FD00BF4021204603F02DFE002839
:10074000F9D070BD70B504460D461021A64803F0DF
:1007500056F90A20FFF754FD2946204603F0AEFD66
:1007600000BF4021204603F017FE0028F9D01021D9
:100770009D4803F046F970BD10B59F4803F0A2FDF7
:10078000C4B29A48807858B93A2C08D197488178F1
:10079000C01C4454C01E8078401C9449887093E06B
:1007A0009248807801282DD190488178C01C44540B
:1007B000C01E8178C01C405C01280CD190480068A4
:1007C00020F00400001D8E49086088488078401C95
:1007D0008649887078E085488178C01C405C022892
:1007E0000CD18748006820F0200020308449086040
:1007F0007E488078401C7D49887065E000207B49F8
:10080000887061E07948807802280FD17748817834
:10081000C01C4454C01E8178C01C405C734981F8E0
:10082000400008468078401C88704DE0744800689D
:10083000C0F3800048B36D488178C01C4454C01E8A
:100840008078401C694988700846817890F840009B
:10085000801D814219DB654890F84000401D6349C6
:10086000C91C085C0A2810D1C81E90F84000001D61
:10087000085C0D2809D10020C91E887060480068F6
:1008800020F0080008305E4908605D480068C0F349
:100890004010C8B155488178C01C4454C01E8078AF
:1008A000401C524988700846007A0A280CD1084634
:1008B000C0790D2808D1002088705148006820F0C8
:1008C000080008304E49086010BDF0B58FB00346EF
:1008D0000C46012111E05D5C402D06DD5D5C373D7D
:1008E000EEB24D1E0DF8056005E05D5C303DEEB2E8
:1008F0004D1E0DF805604D1CE9B2651CA942EADBEE
:10090000002200210AE04D006D1C1DF805601DF855
:10091000115006EB05152A444D1CE9B204EBD476C0
:10092000B1EB660FEFDBD2B2C2F58072D0B20FB07E
:10093000F0BD70B5314803F0C5FCC6B22C488078D4
:1009400070B93A2E0BD100202949087008468178E9
:10095000C01C4654C01E8078401C25498870A4E005
:10096000234880783C287DDA21488178C01C465491
:10097000C01E8078401C1E4988700846C0783A28FE
:10098000EDD10846807804286DDB08468078401E4B
:10099000C91C085C0A2866D1C81E8078801E085CC5
:1009A0000D2860D1C81E8078401FC1B21048C01CFD
:1009B000FFF78BFF05460E488078001F0C49C91CC5
:1009C000085C3A2829DA1DE0888300089C83000827
:1009D00074830008B08300081C000020BA8300085C
:1009E000300000200800002000140140D800002042
:1009F000190100205C010020003801400044004043
:100A000000000020C81E8078001F085C302190FB89
:100A1000F1F201FB1200C4B20EE024488078001FFE
:100A20002249C91C085C412190FBF1F201FB120034
:100A3000C4B204F10A00C4B22007040E1B48807837
:100A4000C01E1A49C91C085C3A280DDAC81E8078F5
:100A5000C01E085C302190FBF1F201FB1200204423
:100A6000C4B211E01EE020E010488078C01E0F499B
:100A7000C91C085C412190FBF1F201FB12002044EB
:100A8000C4B204F10A00C4B2A54206D10848006805
:100A900020F01000103006490860002003498870DB
:100AA000087002E000200149887070BD1901002023
:100AB0000000002070B5002500248021FE4802F0CF
:100AC00084FF08B9601CC4B26006040E4FF4807144
:100AD000F94802F07AFF08B9601CC4B26006040E3F
:100AE0004FF40061F44802F070FF08B9601CC4B212
:100AF0006006040E4FF48051EF4802F066FF08B91B
:100B0000601CC4B26006040E4FF40071EA4802F0A3
:100B10005CFF08B9601CC4B26006040E4FF480612B
:100B2000E54802F052FF08B9601CC4B2204604EB4D
:100B3000D0714910A4EB4101012901D1302535E0E4
:100B40002046E11704EB11710911A4EB01110429EE
:100B500009D003DC49B102290FD108E0062908D0E9
:100B60000E290AD107E0002508E0012506E002254C
:100B700004E0032502E0042500E000BF00BF20469A
:100B8000E11704EB1171091101290BD0022905D0DD
:100B9000032909D105F12000C5B206E005F11000D6
:100BA000C5B202E0EDB200E000BF00BF284670BD54
:100BB00010B5C2480078C0F3001018B3BF480078E1
:100BC00020F01000BD490870FFF774FFBC49487061
:100BD000084640780871B9480078C0F3C00088B969
:100BE0004878C11700EB11710222B2EB211F0AD124
:100BF000B248007820F008000830B0490870EE20B4
:100C0000B049087002E0FF20AE490870AE48007895
:100C1000C0F3400048B1AC48007820F00200AA4977
:100C20000870A848007801F058F810BD10B5FFF71B
:100C300041FFA34948704FF480419F4802F0C5FE30
:100C40009F4988700846407830283DD19B480078FD
:100C5000C0F34010002862D19848007820F02000AE
:100C600020309649087008460078C0F3800098B993
:100C70000846007820F00400001D0870084600783F
:100C800020F00100401C087000208D4908720846C1
:100C900040788E49C87542E08848007820F004000A
:100CA000864908700846007820F00100401C087052
:100CB000002083490872084640788449C8758048F6
:100CC00040787F4988712AE07C48007820F0200035
:100CD0007A4908707A4840787949897988421ED0E3
:100CE0007748007A401C764908727448007820F0F2
:100CF0000400724908707248007A03280FDB084626
:100D0000007820F00100401C087000206C49087237
:100D1000084640788871084640786C49C87568482C
:100D200080786749C979884215D06548407A401C67
:100D3000634948720846407A03280CDB5F48007814
:100D400020F00200801C5D49087000205C49487258
:100D500008468078C87110BD08B50121402003F015
:100D60000CF94FF48070ADF8000003208DF80200FC
:100D700004208DF8030069464F4802F093FD0121DD
:100D8000402003F0FAF88020ADF8000003208DF831
:100D9000020004208DF803006946474802F082FDF6
:100DA0000121402003F0E9F84FF48060ADF8000025
:100DB00003208DF8020004208DF8030069463E48A8
:100DC00002F070FD0121402003F0D7F84FF40070CD
:100DD000ADF8000003208DF8020004208DF8030018
:100DE0006946354802F05EFD0121402003F0C5F858
:100DF0004FF48050ADF8000003208DF8020004206D
:100E00008DF8030069462C4802F04CFD012140207A
:100E100003F0B3F84FF40060ADF8000003208DF844
:100E2000020004208DF803006946234802F03AFDD1
:100E30000121042003F0A1F80120ADF800000320F7
:100E40008DF8020010208DF803006946204802F05A
:100E500029FD0121042003F090F80220ADF80000E4
:100E600003208DF8020010208DF803006946184811
:100E700002F018FD0121042003F07FF80420ADF8F2
:100E8000000003208DF8020010208DF80300694651
:100E90000F4802F007FD0121042003F06EF808203E
:100EA000ADF8000003208DF8020010208DF803003B
:100EB000694607480EE00000001801404600002087
:100EC000D40E002006000020070000208C0E002019
:100ED0000008014002F0E6FC0121042003F04DF877
:100EE0004020ADF8000003208DF8020010208DF89E
:100EF00003006946F84802F0D5FC0121F64802F0EB
:100F00007EFD0221F44802F07AFD0421F24802F04D
:100F100076FD0821F04802F072FD4021EE4802F013
:100F20006EFD0121402003F028F84FF48040ADF819
:100F3000000003208DF8020004208DF803006946AC
:100F4000E64802F0AFFC0121042003F016F88020EF
:100F5000ADF8000003208DF8020010208DF803008A
:100F60006946DD4802F09EFC0121082003F005F8E7
:100F70000120ADF8000003208DF8020010208DF84C
:100F800003006946D64802F08DFC8021D24802F069
:100F900036FD0121D24802F032FD0121082002F085
:100FA000ECFF0220ADF8000003208DF802001020B5
:100FB0008DF803006946CA4802F074FC0221C84853
:100FC00002F01DFD08BD70B504460D46C548007809
:100FD000C0F38000002872D0E11704EB11710911F1
:100FE00091BB8021BC4802F00AFD0121BC4802F0FF
:100FF00006FDA5B94021B84802F001FD0821B64818
:1010000002F0FFFC0421B44802F0FBFC0221B248CC
:1010100002F0F7FC0121B04802F0F1FC72E240213D
:10102000AD4802F0ECFC0821AB4802F0EAFC0421D8
:10103000A94802F0E4FC0221A74802F0E2FC0121E9
:10104000A54802F0DCFC5DE2FFE7E11704EB11715B
:101050000122B2EB211F33D180219F4802F0D1FC45
:1010600001219F4802F0CBFCA5B940219A4802F02B
:10107000C6FC0821984802F0C4FC0421964802F0FE
:10108000C0FC0221944802F0BCFC0121924802F00D
:10109000B8FC37E24021904802F0B1FC08218E48AC
:1010A00002F0AFFC04218C4802F0A9FC02218A481E
:1010B00002F0A7FC0121884802F0A1FC22E223E013
:1010C000E11704EB11710222B2EB211FA6D180219E
:1010D000814802F094FC0121814802F092FC4021F9
:1010E0007D4802F08CFC08217B4802F08AFC042138
:1010F000794802F084FC0221774802F082FC012149
:10110000754802F07CFCFDE1E11704EB1171091157
:1011100000297DD18021704802F071FC01217048C6
:1011200002F06DFC2046E11704EB11710911A4EBEC
:10113000011105296DD2DFE801F003184371860023
:101140004021654802F05BFC0821634802F057FC2F
:101150000421614802F053FC02215F4802F04FFC79
:1011600001215D4802F04BFC83E0A5B940215A48BB
:1011700002F045FC0821584802F043FC042156487F
:1011800002F03FFC0221544802F03BFC012152488E
:1011900002F035FC13E040214F4802F030FC0821FA
:1011A0004D4802F02EFC04214B4802F028FC02219D
:1011B000494802F026FC0121474802F020FC58E093
:1011C000A5B94021444802F01AFC0821424802F027
:1011D00018FC0421404802F014FC02213E4802F0B1
:1011E0000EFC01213C4802F00AFC16E040213A487E
:1011F00002F005FC0821384802F003FC04213648BF
:1012000002F0FDFB0221344802F0F9FB012101E06C
:1012100030E02DE0304802F0F2FB2AE040212E4879
:1012200002F0EDFB08212C4802F0E9FB04212A48DA
:1012300002F0E7FB0221284802F0E1FB01212648E9
:1012400002F0DDFB15E04021234802F0D8FB082125
:10125000214802F0D4FB04211F4802F0D0FB0221F8
:101260001D4802F0CCFB01211B4802F0CAFB00E044
:1012700000BF47E1E11704EB11710122B2EB211F1E
:1012800073D18021144802F0BCFB0121144802F004
:10129000B6FB2046E11704EB11710911A4EB011113
:1012A000052978D2DFE801F003204B788D0040213A
:1012B000094802F0A4FB0821074802F0A0FB042122
:1012C000054802F09CFB0221034802F098FB012133
:1012D000014802F094FB8AE0000801400018014038
:1012E000000C014046000020A5B94021864802F0CC
:1012F00086FB0821844802F084FB0421824802F026
:1013000080FB0221804802F07CFB01217E4802F034
:1013100078FB13E040217C4802F071FB08217A48F9
:1013200002F06FFB0421784802F069FB0221764845
:1013300002F067FB0121744802F061FB57E0ADB990
:101340004021714802F05BFB08216F4802F059FB15
:1013500004216D4802F055FB02216B4802F04FFB5F
:101360000121694802F04DFB14E041E0402166484C
:1013700002F045FB0821644802F043FB0421624867
:1013800002F03DFB0221604802F039FB01215E487A
:1013900002F035FB2BE029E040215B4802F02FFBF7
:1013A0000821594802F02BFB0421574802F029FB81
:1013B0000221554802F023FB0121534802F021FB92
:1013C00015E04021504802F01AFB08214E4802F077
:1013D00016FB04214C4802F014FB02214A4802F09B
:1013E0000EFB0121484802F00CFB00E000BF89E041
:1013F000E11704EB11710222B2EB211F7ED1802193
:10140000414802F0FCFA0121404802F0FAFA204675
:10141000E11704EB11710911A4EB011105296FD239
:10142000DFE801F003182D4257004021364802F052
:10143000E6FA0821344802F0E2FA0421324802F0C8
:10144000DEFA0221304802F0DAFA01212E4802F0D9
:10145000D6FA56E040212C4802F0D1FA08212A4859
:1014600002F0CFFA0421284802F0C9FA02212648E6
:1014700002F0C7FA0121244802F0C1FA41E04021FC
:10148000214802F0BCFA08211F4802F0BAFA0421F0
:101490001D4802F0B4FA02211B4802F0B0FA012103
:1014A000194802F0ACFA2CE00121174802F0A7FA23
:1014B0000221154802F0A3FA0421134802F09FFA12
:1014C0000821114802F09BFA40210F4802F097FAD8
:1014D00017E001210C4802F092FA02210A4802F0BA
:1014E0008EFA0421084802F08AFA0821064802F020
:1014F00086FA4021044802F082FA02E002E0FFE7A7
:1015000000BF00BF70BD000000080140000C01409A
:101510001CB50121084602F030FD0121202002F017
:101520002CFD0121202002F028FD0121082002F0DD
:1015300024FD0121082002F020FD01214FF0C060B0
:1015400002F028FD0120ADF8040048208DF80700C6
:1015500001A9FE4802F0A6F92020ADF804004820B9
:101560008DF8070001A9FA4802F09CF90220ADF8B5
:10157000040018208DF8070003208DF8060001A94B
:10158000F24802F08FF94020ADF8040018208DF8E1
:10159000070003208DF8060001A9ED4802F082F94A
:1015A00001214FF4EB1002F04EFA0121E94802F05C
:1015B0004AFAE94804F080F8E84804F07DF8E84881
:1015C00004F09EF90020E6498871C87108724872DB
:1015D0008872C8728870C87002200871042048712F
:1015E00010200880DC4804F080F8DD49DB4804F076
:1015F0007CF80020DB498872C87201200873002043
:10160000088048808880C880088101204873084687
:1016100004F0F5F80E20D3498872084604F0EFF87C
:1016200001220221CC4804F0E9FB01220221CB482F
:1016300004F0E4FB00214FF0006002F09CF84FF44E
:10164000407002F061F814208DF8000002208DF83F
:10165000010000208DF8020001208DF8030068468B
:1016600002F057F840208DF8000003208DF80100AB
:1016700000208DF8020001208DF80300684602F07A
:1016800048F81CBD2DE9F041B74A0021B24804F0EA
:101690009AFAB5484068B549884214D1B248817B6E
:1016A000C07B01EB0020B2498885888D06F038FDAB
:1016B000064600224FF07F5306F04CFC044606F02D
:1016C00050FDAB498885A8484068AA49884213D193
:1016D000A548007BA64981F8260091F8260006F06F
:1016E0001FFD0646A44AA54B06F034FC044606F04E
:1016F00038FD9F4981F826000020A14908609A48DA
:1017000040684860002048720420087208208872EF
:101710009548C07AC8729448017B994801739248F1
:10172000417B974841739048817B954881738E48EF
:10173000C17B9348C1738C48017C914801748A48ED
:10174000417C8F4841748848817C8D488174014672
:10175000824804F043F9844840688A49884273D13A
:1017600089480078C0F3800020B388490879C11700
:1017700000EB1171091119B988208149C87244E040
:1017800082490879C11700EB11710122B2EB211FC8
:1017900003D172207A49C87237E07C490879C117B1
:1017A00000EB11710222B2EB211F2ED17D20744972
:1017B000C8722AE075490879C11700EB1171091147
:1017C00029B97248007987306D49C8721DE06F49A8
:1017D0000879C11700EB11710122B2EB211F06D16C
:1017E0006A480079C0F183006549C8720DE0674915
:1017F0000879C11700EB11710222B2EB211F04D14D
:10180000624800795D305E49C8726049C878C11786
:1018100000EB1171091131B95C48C0788730C1B251
:101820005748817320E05949C878C11700EB1171FE
:101830000122B2EB211F08D15448C078C0F18300C7
:10184000C1B24F4881730FE029E05049C878C117F1
:1018500000EB11710222B2EB211F05D14B48C07879
:101860005D30C1B246488173002045490860484850
:101870004860002048720420087208208872002105
:101880003F4801734173434801783D48C1730021CB
:101890000174417481740146304804F09FF8324865
:1018A00040683249884279D10020354908603A4879
:1018B00048600020487204200872082088722C4971
:1018C000C889C11700EB11610912A0EB01212C4A54
:1018D000D1722749C889C11700EB11610A0A28494A
:1018E0000A732349088AC11700EB11610912A0EBA2
:1018F0000121CAB222494A731D49088AC11700EB67
:1019000011610A0A1E498A731949488AC11700EBF6
:1019100011610912A0EB0121CAB21949CA73144915
:10192000488AC11700EB11610A0A15490A74104967
:10193000888AC11700EB11610912A0EB0121CAB21C
:101940000F494A740A49888AC11728E000140140E7
:10195000000C01404000200000640040006800408E
:10196000E00E0020EC0E0020100F00200004F00C10
:10197000800000200003F00C9A9999999999D93F19
:10198000240F002000F2FE1846000020D40E002094
:101990000305F018060000200005F00C41E000EB04
:1019A00011610A0A52498A74524804F017F800205B
:1019B0004F4908605048486000204872042008726F
:1019C000082088724D49C88AC11700EB11610912BD
:1019D000A0EB0121464AD1724849C88AC11700EBE1
:1019E00011610A0A42490A734449088BC11700EB86
:1019F00011610912A0EB0121CAB23D494A733F4966
:101A0000088BC11700EB11610A0A39498A7300215A
:101A10003748C1730174417481740146354803F03D
:101A2000DDFF374840683749884258D100203049A7
:101A30000860354848600020487204200872082079
:101A400088722E49488BC11700EB11610912A0EB77
:101A50000121274AD1722949488BC11700EB116136
:101A60000A0A23490A732549888BC11700EB1161C3
:101A70000912A0EB0121CAB21D494A731F49888B84
:101A8000C11700EB11610A0A19498A731B49C88BF7
:101A9000C11700EB11610912A0EB0121CAB2144970
:101AA000CA731649C88BC11700EB11610A0A1049A5
:101AB0000A741249088CC11700EB11610912A0EBDE
:101AC0000121CAB20A494A740C49088CC11700EBBB
:101AD00011610A0A06498A74064803F07FFFBDE8CF
:101AE000F08110B5094A0021024804F06CF810BDDD
:101AF000240F0020006800400006F00C8000002049
:101B0000100F00200003F00C0007F00C380F00202D
:101B100070B50446002521E00421FB4801F071FF67
:101B20000120FEF76DFB04F08006802E04D1012118
:101B3000F54801F064FF03E00121F34801F061FF83
:101B40000120FEF75DFB6006040E0421EE4801F063
:101B500056FF0120FEF754FB681CC5B2082DDBDBE5
:101B600070BD70B504460D460221E74801F049FFFB
:101B70000120FEF745FB0020FFF7CAFF0020FFF71A
:101B8000C7FF0120FEF73CFBE0B2FFF7C1FFE8B260
:101B9000FFF7BEFF0120FEF733FB0020FFF7B8FF81
:101BA0000020FFF7B5FF0221D74801F028FF0120F0
:101BB000FEF726FB70BD70B504460D460221D248E3
:101BC00001F01FFF0120FEF71BFBE0B2FFF7A0FFB3
:101BD000E8B2FFF79DFF0120FEF712FB0020FFF7A0
:101BE00097FF0020FFF794FF0120FEF709FB00207C
:101BF000FFF78EFF0020FFF78BFF0221C24801F0A4
:101C0000FEFE0120FEF7FCFA70BD70B504460D46DD
:101C10000221BD4801F0F5FE0120FEF7F1FA002097
:101C2000FFF776FF0020FFF773FF0120FEF7E8FAC9
:101C30000020FFF76DFF0020FFF76AFF0120FEF78D
:101C4000DFFAE0B2FFF764FFE8B2FFF761FF0221BD
:101C5000AD4801F0D4FE0120FEF7D2FA70BD10B5F8
:101C600000210F20FFF7D1FF00210F20FFF779FFA0
:101C700000210F20FFF79FFF02210A20FFF7C5FF79
:101C800002210A20FFF76DFF02210A20FFF793FFD0
:101C900007210B20FFF7B9FF07210B20FFF761FF9A
:101CA00007210B20FFF787FF00210920FFF7ADFF79
:101CB00000210920FFF755FF00210920FFF77BFFD6
:101CC00001210C20FFF7A1FF01210C20FFF749FFA4
:101CD00001210C20FFF76FFF10BD70B50446FFF720
:101CE000BEFF2046E11704EB11710911A4EB0111AD
:101CF000864A555C29460720FFF733FF2046E11747
:101D000004EB11710911814A555C29460820FFF73F
:101D100028FF70BD2DE9F04105460F461646FFF736
:101D20009EFF642095FBF0F100FB1150C5B2012F1E
:101D30001ED10A2095FBF0F0C4B27448045D022E57
:101D400001D144F0800421460120FFF70AFF0A2058
:101D500095FBF0F100FB1150C4B26C48045D012EFC
:101D600001D144F0800421460220FFF7FAFE61E031
:101D7000022F1ED10A2095FBF0F0C4B26348045D27
:101D8000022E01D144F0800421460320FFF7E9FE32
:101D90000A2095FBF0F100FB1150C4B25B48045DD2
:101DA000012E01D144F0800421460420FFF7D9FE22
:101DB00040E0032F1ED10A2095FBF0F0C4B2534837
:101DC000045D022E01D144F0800421460520FFF776
:101DD000C8FE0A2095FBF0F100FB1150C4B24B483D
:101DE000045D012E01D144F0800421460620FFF756
:101DF000B8FE1FE0042F1DD10A2095FBF0F0C4B2FD
:101E00004248045D022E01D144F08004214607209F
:101E1000FFF7A7FE0A2095FBF0F100FB1150C4B2BA
:101E20003A48045D012E01D144F080042146082087
:101E3000FFF797FEBDE8F08170B504460D46FFF749
:101E40000EFF012D73D132480078C0F3800060B1DD
:101E50002E48867B31460320FFF783FE2B48867B86
:101E600031460420FFF77DFE2FE1E11704EB1171ED
:101E7000091139BBE11704EB11710911A4EB011130
:101E800099B12248867A31460320FFF76AFE204640
:101E9000E11704EB11710911A4EB01111B4A565C07
:101EA00031460420FFF75DFE0FE11848867A31467F
:101EB0000320FFF756FE1548467B31460420FFF706
:101EC00050FE02E1E11704EB11710122B2EB211F78
:101ED0002ED1E11704EB11710911A4EB0111C9B165
:101EE0000A48C67A31460320FFF73BFE2046E11739
:101EF00004EB11710911A4EB0111044A565C31463F
:101F00000420FFF72EFEE0E000180140C483000823
:101F100046000020FE48C67A31460320FFF721FE26
:101F2000FB48467B31460420FFF71BFECDE02EE048
:101F3000E11704EB11710222B2EB211F94D1E117DA
:101F400004EB11710911A4EB011199B1F048067B62
:101F500031460320FFF705FE2046E11704EB11711F
:101F60000911A4EB0111EA4A565C31460420FFF73F
:101F7000F8FDAAE0E648067B31460320FFF7F1FDB5
:101F8000E348467B31460420FFF7EBFD9DE0022D40
:101F90008AD1E0480078C0F3800060B1DC48867BDD
:101FA00031460120FFF7DDFDD948867B314602200E
:101FB000FFF7D7FD89E0E11704EB1171091139BB77
:101FC000E11704EB11710911A4EB011199B1D0488B
:101FD000867A31460120FFF7C4FD2046E11704EB65
:101FE00011710911A4EB0111C94A565C3146022056
:101FF000FFF7B7FD69E0C648867A31460120FFF752
:10200000B0FDC348467B31460220FFF7AAFD5CE0E5
:10201000E11704EB11710122B2EB211F27D1E11767
:1020200004EB11710911A4EB011199B1B848C67AFA
:1020300031460120FFF795FD2046E11704EB1171B1
:102040000911A4EB0111B24A565C31460220FFF798
:1020500088FD3AE0AE48C67A31460120FFF781FD9F
:10206000AB48467B31460220FFF77BFD2DE0E117B0
:1020700004EB11710222B2EB211F26D1E11704EB10
:1020800011710911A4EB011199B1A148067B3146E8
:102090000120FFF766FD2046E11704EB11710911DD
:1020A000A4EB01119A4A565C31460220FFF759FD14
:1020B0000BE09748067B31460120FFF752FD94481C
:1020C000467B31460220FFF74CFD70BD2DE9F04103
:1020D00005460F461646FFF7C2FD42F2107095FB0B
:1020E000F0F100FB115085B2012F46D14FF47A7008
:1020F00095FBF0F0C4B28648045D042E01D144F093
:10210000800421460120FFF780FD4FF47A7095FB93
:10211000F0F100FB1150642190FBF1F0C4B27C4857
:10212000045D032E01D144F0800421460220FFF714
:102130006CFD642095FBF0F100FB11500A2190FB2F
:10214000F1F0C4B27248045D022E01D144F0800463
:1021500021460320FFF759FD0A2095FBF0F100FB13
:102160001150C4B26A48045D012E01D144F08004CC
:1021700021460420FFF749FD47E0022F45D14FF4E7
:102180007A7095FBF0F0C4B26148045D042E01D171
:1021900044F0800421460520FFF737FD4FF47A70A4
:1021A00095FBF0F100FB1150642190FBF1F0C4B2FB
:1021B0005748045D032E01D144F0800421460620D7
:1021C000FFF723FD642095FBF0F100FB11500A217D
:1021D00090FBF1F0C4B24E48045D022E01D144F0F0
:1021E000800421460720FFF710FD0A2095FBF0F13F
:1021F00000FB1150C4B24648045D012E01D144F0E9
:10220000800421460820FFF700FDBDE8F0812DE99C
:10221000F04105460F461646FFF721FD42F21070C9
:1022200095FBF0F100FB115085B2012F46D14FF420
:102230007A7095FBF0F0C4B23548045D042E01D1EC
:1022400044F0800421460120FFF7B5FC4FF47A707A
:1022500095FBF0F100FB1150642190FBF1F0C4B24A
:102260002B48045D032E01D144F080042146022056
:10227000FFF7A1FC642095FBF0F100FB11500A214F
:1022800090FBF1F0C4B22248045D022E01D144F06B
:10229000800421460320FFF78EFC0A2095FBF0F115
:1022A00000FB1150C4B21A48045D012E01D144F064
:1022B000800421460420FFF77EFC4DE0022F4BD125
:1022C0004FF47A7095FBF0F0C4B21148045D042E0F
:1022D00001D144F0800421460520FFF76CFC4FF447
:1022E0007A7095FBF0F100FB1150642190FBF1F046
:1022F000C4B20748045D032E01D144F08004214696
:102300000620FFF758FC642095FBF0F104E0000084
:10231000C48300084600002000FB11500A2190FBF6
:10232000F1F0C4B27048045D022E01D144F0800483
:1023300021460720FFF73FFC0A2095FBF0F100FB48
:102340001150C4B26848045D012E01D144F08004EC
:1023500021460820FFF72FFCBDE8F08110B5634847
:10236000408C0A2190FBF1F084B203220121204627
:10237000FFF74DFF5D49888E00220221FFF747FFDE
:102380005A49888D00220121FFF7A0FE5749888C09
:1023900000220221FFF79AFE554948790221FFF7F2
:1023A0004BFD534908790121FFF746FD4F4890F84E
:1023B0002600642805DB002203216320FFF7AAFC26
:1023C00006E04A4991F8260000220321FFF7A2FC0B
:1023D00048480078FFF781FC10BD10B5012405E0E6
:1023E00000212046FFF7E7FB601CC4B2082CF7DD94
:1023F00010BD10B5012405E000212046FFF7B1FB18
:10240000601CC4B2082CF7DD10BD10B5012405E036
:1024100000212046FFF7F9FB601CC4B2082CF7DD51
:1024200010BD08B50121402001F0A7FD0121402089
:1024300001F0A3FD0121402001F09FFD0120ADF836
:10244000000003208DF8020010208DF8030069467B
:10245000294801F027FA0220ADF8000003208DF88A
:10246000020010208DF803006946234801F01AFA93
:102470000420ADF8000003208DF8020010208DF834
:10248000030069461C4801F00DFA01211A4801F0C9
:10249000B8FA0221184801F0B2FA0421164801F0F6
:1024A000B0FAFFF7DCFBFFF7B0FFFFF7A2FFFFF783
:1024B00094FF08BD70B505460E461446012C04D1A4
:1024C00031462846FFF7A1FB0CE0022C04D131462F
:1024D0002846FFF746FB05E0032C03D1314628468A
:1024E000FFF769FB70BD0000C48300088000002076
:1024F000D40E0020060000200018014010B508216D
:10250000D14801F07EFA0A20FDF77AFE2021CE485C
:1025100001F075FA0A20FDF773FE0821CA4801F0A0
:102520006EFA0A20FDF76CFE10BD38B5012140207F
:1025300001F023FD0820ADF8000003208DF8020013
:1025400004208DF803006946BF4801F0ABF90A206A
:10255000FDF756FE2021BC4801F051FA0A20FDF794
:102560004FFE01E0601CC4B20821B74801F02DFA0B
:10257000012801D1C82CF5DB0A20FDF741FE2021FE
:10258000B14801F03EFA0A20FDF73AFE0121402051
:1025900001F0F3FC0820ADF8000003208DF80200E4
:1025A00010208DF803006946A74801F07BF90A2046
:1025B000FDF726FE38BD70B505462021A24801F082
:1025C00020FA0A20FDF71CFE80241DE004EA050025
:1025D00020B108219C4801F012FA03E008219A4832
:1025E00001F00FFA0A20FDF70BFE2021964801F0BA
:1025F00006FA0A20FDF704FE2021934801F001FAB3
:102600000A20FDF7FDFD6410002CDFDC08218E4858
:1026100001F0F5F90A20FDF7F3FDFFF786FF70BD25
:1026200010B50821884801F0EAF90A20FDF7E8FD15
:102630002021854801F0E3F90A20FDF7E1FD08219A
:10264000814801F0DEF90A20FDF7DAFD10BD70B512
:1026500005460C46FFF7E4FF2846FFF7ACFF20468F
:10266000FFF7A9FFFFF74AFF70BD08B50121402021
:1026700001F083FC2020ADF8000003208DF802005B
:1026800010208DF8030069466F4801F00BF9012115
:10269000402001F072FC0820ADF8000003208DF806
:1026A000020010208DF803006946674801F0FAF82F
:1026B0002021654801F0A5F90821634801F0A1F93E
:1026C00000217020FFF7C3FF08BD10B520215E4830
:1026D00001F097F90A20FDF793FD08215A4801F00F
:1026E0008EF90A20FDF78CFD2021574801F087F96B
:1026F0000A20FDF785FD2021534801F082F90A20C8
:10270000FDF77EFD10BD38B50121402001F035FCFC
:102710000820ADF8000003208DF8020004208DF899
:1027200003006946484801F0BDF80A20FDF768FD3E
:102730000024002518E06006040E2021424801F024
:1027400060F90A20FDF75CFD20213F4801F057F9B0
:102750000A20FDF755FD08213B4801F036F908B184
:1027600044F00104681CC5B2082DE4DB2021364882
:1027700001F047F90A20FDF743FD0121402001F057
:10278000FCFB0820ADF8000003208DF802001020AB
:102790008DF8030069462C4801F084F80A20FDF703
:1027A0002FFDFFF792FF204638BD70B50446FFF7B6
:1027B00037FF2046FFF7FFFEFFF7A5FF0546FFF7AF
:1027C0009DFE284670BD10B500247320FFF7EDFF75
:1027D0000446FE2C03D101201C49087032E0FD2C78
:1027E00003D10220194908702CE0FB2C03D10320EF
:1027F0001649087026E0F72C03D10420134908700D
:1028000020E0EF2C03D10520104908701AE0DF2CDE
:1028100003D106200D49087014E0BF2C03D1072016
:102820000A4908700EE07F2C03D108200749087080
:1028300008E00748007820F00100054908700020F2
:102840000249087010BD0000001801404700002038
:102850004800002010B501214FF0C05001F09AFB54
:10286000012003F032FD03F0C3FC012001F07EFAE9
:1028700000BF412001F0AEF90028FAD04FF480707B
:1028800001F090FA012001F093FA03F072FC03F0DA
:1028900067FC0121084603F007FC03F061FC47F6E2
:1028A000FF7003F037FC03F05BFC10BD0146CA1754
:1028B00001EB92729210A1EB820292B9642091FB1B
:1028C000F0F200FB121050B94FF4C87091FBF0F217
:1028D00000FB121008B9012070470020FCE701201E
:1028E000FAE70020F8E72DE9F05F06460F4690462C
:1028F0009946DDE90AAB0024B6F5FA6F03DB40F632
:102900003300864202DD0120BDE8F09F40F2B2753F
:102910000AE02846FFF7CAFF10B1AD48044401E0C1
:10292000AC480444681C85B2B542F2DB781EC7B2DD
:10293000002510E0A848405D40F2A321484304EB85
:10294000C0143046FFF7B2FF18B1012D01D1A348E2
:102950000444681C85B2BD42ECDBA8F1010040F2E2
:10296000A321484304EBC014C9EB4910C0EB092074
:1029700004EB0014CAEB0A1004EB80045C44012051
:1029800003F0A3FC03F0ECFB204603F0B6FB03F0DE
:10299000E7FB0020B8E70EB5042003F05EFC4AF226
:1029A000A551884212D0FFF755FF00202E21152394
:1029B0000F22CDE90010042140F2DE70FFF793FFF3
:1029C0004AF2A551042003F03CFC0EE07B2001F00C
:1029D00001F910B97A2001F0FDF803F0CAFB0121DA
:1029E000084603F061FB03F0BBFB01214FF0C05030
:1029F00001F0D0FA012003F068FC002003F003FC92
:102A0000802003F008FC01F002FB012003F0E6FB4C
:102A100003F0A6FB00214FF0006000F0ACFE4FF485
:102A2000407000F071FE03208DF808000E208DF834
:102A3000090000208DF80A0001208DF80B0002A883
:102A400000F067FE0EBDF0B503460C461546642047
:102A500093FBF0F0C6B2642093FBF0F700FB173055
:102A6000C1B2132E02DD01F16400C1B20846CF17D6
:102A700001EB977701EBA707BAB2072092FBF0F7BB
:102A800000FB172082B25719601EDFF854C11CF8F2
:102A90000000384482B2CF1701EB9777BF10A1EB4B
:102AA00087071FB9032C01DA501E82B2072092FB60
:102AB000F0F700FB1720C0B2F0BD70B5002600246F
:102AC000002503F011FB06464448B6FBF0F44548E8
:102AD0000088A0423CD043490C8040F2B27510E01F
:102AE0002846FFF7E3FE40B1B4F5B77F02D3A4F563
:102AF000B77404E0681C85B206E0A4F26D14681C8B
:102B000085B2B4F5B67FEBD800BF3748C580002545
:102B100016E03549C888FFF7C9FE30B1012D04D150
:102B20001D2C01D31D3C09E00CE02B48405DA04268
:102B300003D82948405D241A00E003E0681C85B2F0
:102B40001C2CE6D200BF681C27490872601C487222
:102B50002248B6FBF0F100FB11644FF46160B4FB56
:102B6000F0F0214988704FF46160B4FBF0F100FB94
:102B700011403C21B0FBF1F01B49C8704FF461607B
:102B8000B4FBF0F100FB11403C21B0FBF1F201FB82
:102B90001200154908710B465A7A197AD888FFF73E
:102BA00052FF11498872002070BD10B5012003F05A
:102BB00005FB58B1012003F011FB03F0D1FA0B48DB
:102BC000007820F00100401C0849087010BD00008A
:102BD0000085E2018033E101D583000880510100C6
:102BE000E18300084C0000204C0F00204A00002028
:102BF00000B593B00120ADF8080000208DF80B005F
:102C000002A9BD4800F04EFE0121102001F0B5F9E7
:102C10000220ADF8080000208DF80B0002A9B6488C
:102C200000F040FE0121102001F0A7F90420ADF8CA
:102C3000080000208DF80B0002A9AF4800F032FE1A
:102C40000121102001F099F90820ADF808000020BA
:102C50008DF80B0002A9A84800F024FE01211020E5
:102C600001F08BF91020ADF8080000208DF80B0062
:102C700002A9A14800F016FE0121102001F07DF903
:102C80002020ADF8080000208DF80B0002A99A481A
:102C900000F008FE0121042001F06FF9012108462F
:102CA00001F05EF9954803F06BFB95480390954859
:102CB000049000200590B42006900020079080200A
:102CC00008904000099080000A9020200B9000029C
:102CD0000C9000200D9003A9884803F0F3FB01221B
:102CE0000221864803F025FC022003F064FC012148
:102CF000824803F012FC00214FF0006000F03BFD21
:102D00004FF4407000F000FD0B208DF8040002200D
:102D10008DF8050000208DF8060001208DF80700D1
:102D200001A800F0F6FC0121480201F026F900207C
:102D30000E9001208DF83C008DF83D004FF460208E
:102D400010900020119006208DF848000EA96C48C4
:102D50004C3802F0B0FA052301220A2168484C38A9
:102D600002F041FB052302220B2165484C3802F09A
:102D70003AFB052303220C2161484C3802F033FB57
:102D8000052304220D215E484C3802F02CFB05235C
:102D90001A460E215A484C3802F025FB052306221C
:102DA0000F2157484C3802F01EFB012154484C3883
:102DB00002F0B8FA012152484C3802F0A8FA504803
:102DC0004C3802F0C6FA00BF4D484C3802F0C6FA43
:102DD0000028F9D14A484C3802F0CAFA00BF4848E6
:102DE0004C3802F0CAFA0028F9D1012144484C3885
:102DF00002F0CDFA13B000BD2DE9FF5F002438E0EA
:102E0000002532E0681C86B22BE005EB45003D4909
:102E100001EB800030F8140006EB4601394A02EB62
:102E2000810131F81410884219DD05EB4500114687
:102E300001EB800030F814A006EB460001EB8000A7
:102E400030F8140005EB450102EB810121F8140074
:102E500006EB4600114601EB800020F814A0701C20
:102E600086B21E2ED1DB681C85B21D2DCADB601C0C
:102E700084B2062CC4DB00242DE04FF000090525A8
:102E800009E005EB45001F4901EB800030F8140014
:102E90008144681C85B2192DF3DB484605F040F9E2
:102EA00007464FF06632184B05F054F80022174BD6
:102EB000CDE9000105F0C0F8CDE9020105F06AF99D
:102EC00083461349584605F007F88346114840F8F1
:102ED00024B0601C84B2062CCFDBBDE8FF9F10B588
:102EE0000D48007820F00100401C0B4908700220BA
:102EF00003F061FB10BD000000100140080002401B
:102F00004C240140740F002066660A400000B04067
:102F10000000A041441200204E00002030B589B0CE
:102F200004460D460121402001F027F80420ADF8A9
:102F3000080003208DF80A0010208DF80B0002A96C
:102F4000FE4800F0AFFC0121082001F016F88020B7
:102F5000ADF8080004208DF80B0003208DF80A005E
:102F600002A9F74800F09EFC0121082001F005F8B5
:102F70004FF48070ADF8080004208DF80B0003209A
:102F80008DF80A0002A9EE4800F08CFC012108200F
:102F900000F0F3FF4FF40070ADF8080004208DF846
:102FA0000B0003208DF80A0002A9E54800F07AFC26
:102FB0000121042000F0EEFF0121042000F0EAFFCF
:102FC0004FF6FF70ADF81C004720ADF81800002048
:102FD000ADF81E00ADF81A0006A9DA4801F00AFBA8
:102FE0000420ADF80C000020ADF80E000120ADF873
:102FF00010000020ADF81200ADF8140003A9D1486C
:1030000001F08BFD0820ADF80C000020ADF80E009B
:103010000120ADF810000020ADF81200ADF814004A
:1030200003A9C84801F079FD0C20ADF80C00002080
:10303000ADF80E000120ADF810000020ADF8120030
:10304000ADF8140003A9BF4801F067FD01221D215E
:10305000BC4801F046FE1D21BA4802F001F90121E9
:10306000B84801F023FE0020B74908700120087419
:1030700081F8200081F830000021C00600F07BFBC1
:103080004FF4407000F040FB1E208DF80400052036
:103090008DF8050000208DF8060001208DF807004E
:1030A00001A800F036FB09B030BD2DE9F041022146
:1030B000A64802F0C4F8002842D00020A449487075
:1030C0000846807838B9A14802F09AF8A04988806B
:1030D0000120887030E09D4802F092F89C49C88039
:1030E000002088700846C0888988884207DD984893
:1030F000C08897498988401A954988600CE09448AF
:1031000080884FF6FF71081A9149886008468068E8
:10311000C98808448E4988608D49886805F000F8A0
:10312000064632460B4600208A4904F085FF0446D5
:1031300005F030F88649C8600221844802F090F812
:103140000421824802F07BF8002840D0002180480A
:103150004174807C40B97D4802F055F87C498882F2
:1031600001217B4881742EE0784802F04CF87849C0
:10317000C882002176488174C18A808A814206DD36
:103180007348C18A808A091A714881610BE07048CE
:10319000808A4FF6FF71091A6D4881618169C08A82
:1031A00001446B4881616A49886904F0B9FF0646A9
:1031B00032460B460020674904F03EFF044604F007
:1031C000E9FF6349C8610421604802F049F8082119
:1031D0005E4802F034F8002844D000215C4880F8B2
:1031E000211090F8220048B9584802F00FF85849C9
:1031F00088840121564880F822102FE0534802F0BD
:1032000005F85349C8840021514880F82210C18C28
:10321000808C814206DD4E48C18C808C091A4C4856
:1032200081620BE04A48808C4FF6FF71091A4848CA
:103230008162816AC08C0144454881624449886A40
:1032400004F06EFF064632460B460020414904F06A
:10325000F3FE044604F09EFF3D49C86208213B4846
:1032600001F0FEFF1021394801F0E9FF002844D0A9
:103270000021374880F8311090F8320048B93348BF
:1032800001F0C7FF324988860121314880F83210A9
:103290002FE02E4801F0BDFF2D49C88600212C48A3
:1032A00080F83210C18E808E814206DD2848C18EA2
:1032B000808E091A264881630BE02548808E4FF6E0
:1032C000FF71091A22488163816BC08E0144204836
:1032D00081631F49886B04F023FF064632460B4684
:1032E00000201C4904F0A8FE044604F053FF1849CE
:1032F000C8631021154801F0B3FF0121134801F004
:103300009EFF18B10121114801F0AAFFBDE8F0812C
:1033100010B502210B4801F092FF50B1022109487B
:1033200001F09EFF00200849487008468068401C54
:1033300088600421034801F082FF0DE0001801407D
:10334000000C014000080040F0120020002C014059
:10335000B012002080842E4150B104211A4801F09F
:103360007FFF0021194841748069401C174988611A
:103370000821154801F063FF58B10821124801F0F7
:103380006FFF0021114880F82110806A401C0F490E
:10339000886210210C4801F052FF58B110210A48F0
:1033A00001F05EFF0021094880F83110806B401C5D
:1033B000064988630121044801F041FF18B1012149
:1033C000014801F04DFF10BD00080040F012002040
:1033D00010B540F22551204800F0F4FF30B140F222
:1033E00025511D4801F018F8FDF7C6F940F2277184
:1033F000194800F0E7FF20B140F22771164801F0AC
:103400000BF80821144800F0C7FF10B1124800F073
:1034100059FF10BD10B540F22551104800F0D2FF01
:1034200030B140F225510D4800F0F6FFFDF781FA6A
:1034300040F22771094800F0C5FF20B140F2277122
:10344000064800F0E9FF0821044800F0A5FF10B18C
:10345000024800F037FF10BD003801400044004032
:103460000CB50020019000909248006840F4803034
:103470009049086000BF8F48006800F40030009059
:103480000198401C0190009818B90198B0F5A06F00
:10349000F1D18848006800F4003010B1012000909C
:1034A00001E000200090009801285CD1824800686B
:1034B00040F01000804908600846006820F00300D2
:1034C00008600846006840F00200086079484068DB
:1034D000784948600846406848600846406840F4BB
:1034E000806048600846C06A744908407149C862F3
:1034F0000846C06A724908436E49C86208460068B7
:1035000040F08060086000BF6A48006800F000601A
:103510000028F9D06748406820F47C10654948606D
:103520000846406840F4E81048600846006840F0EB
:103530008070086000BF5F48006800F000700028DD
:10354000F9D05C48406820F003005A4948600846BA
:10355000406840F00200486000BF5648406800F0F4
:103560000C000828F9D10CBD10B5FFF779FF10BD8C
:1035700010B55048006840F001004E490860084608
:103580004068504908404B494860084600684E4929
:103590000840484908600846006820F48020086018
:1035A0000846406820F4FE0048600846006820F0A5
:1035B000A05008604FF47F0088600020C862FFF7C9
:1035C000D3FF4FF000604149086010BDF0B5002105
:1035D000002000230024002200250026354F7F68AC
:1035E00007F00C0121B1042908D008294BD10BE0C8
:1035F000374FDFF8E0C0CCF800704AE0364FDFF814
:10360000D4C0CCF8007044E02A4F7F6807F47010F3
:10361000284F7F6807F48033800C0D2801D0801C70
:1036200000E0062033B92D4F4743DFF8A8C0CCF89F
:10363000007027E01F4FFF6A07F480341D4FFF6AB8
:1036400007F00F077A1C44B9234FB7FBF2F7474343
:10365000DFF880C0CCF8007014E0164FFF6AC7F3A3
:1036600003177D1C134FFF6AC7F30327BE1C1A4FB5
:10367000B7FBF5F77743B7FBF2F74743DFF854C0E2
:10368000CCF8007005E0124FDFF848C0CCF80070AD
:1036900000BF00BF074F7F68C7F30317DFF840C0C4
:1036A0001CF807100B4F3F68CF40DFF828C0CCF85C
:1036B0000070F0BD001002400020024000F0FEFF4C
:1036C000440601000000FFF0FFFFF6FE08ED00E0F9
:1036D00000127A005000002040787D0100093D0072
:1036E000540000200648804706480047FEE7FEE7F2
:1036F000FEE7FEE7FEE7FEE7FEE7FEE7FEE7FEE7A2
:10370000713500085101000831490143314A116007
:10371000704770B5002100230F22C47804B32D4CEC
:10372000246804F4E064C4F5E064210AC1F10403F0
:10373000CA40447804FA03F1847814402143090113
:10374000254C0678A155047804F01F050124AC40EF
:1037500005786D11AD0005F1E025C5F8004109E0DF
:10376000047804F01F050124AC401C4D0678761146
:1037700045F8264070BD1A4A0A400243154B1B1FEC
:103780001A60704739B1134A121D12680243114B77
:103790001B1D1A6006E00F4A121D126882430D4B72
:1037A0001B1D1A607047042808D14FF0E0210969F9
:1037B00041F004014FF0E022116107E04FF0E021F9
:1037C000096921F004014FF0E02211617047000007
:1037D0000000FA050CED00E000E400E080E100E00C
:1037E00080FFFF1F10B50446CC48844208D1012158
:1037F000042000F0E9FB0021042000F0E5FB46E096
:10380000C748844208D10121082000F0DDFB0021D7
:10381000082000F0D9FB3AE0C248844208D10121D7
:10382000102000F0D1FB0021102000F0CDFB2EE095
:10383000BD48844208D10121202000F0C5FB0021B1
:10384000202000F0C1FB22E0B848844208D10121C9
:10385000402000F0B9FB0021402000F0B5FB16E04D
:10386000B348844208D10121802000F0ADFB002143
:10387000802000F0A9FB0AE0AE48844207D1012174
:10388000801500F0A1FB0021A01500F09DFB10BDEC
:1038900010B50121084600F097FB0021012000F03F
:1038A00093FB10BD2DE9F0410246002500260020C3
:1038B00000230024002791F803C00CF00F0591F8B5
:1038C00003C00CF0100CBCF1000F03D091F802C043
:1038D0004CEA050591F800C0BCF1000F31D0146826
:1038E00000202BE04FF0010C0CFA00F3B1F800C0FF
:1038F0000CEA03069E4220D183004FF00F0C0CFA15
:1039000003F7BC4305FA03FC4CEA040491F803C036
:10391000BCF1280F06D14FF0010C0CFA00FCC2F8E4
:1039200014C00AE091F803C0BCF1480F05D14FF074
:10393000010C0CFA00FCC2F810C0401C0828D1D3BE
:103940001460B1F800C0BCF1FF0F34DD54680020F2
:103950002EE000F1080C4FF0010808FA0CF3B1F862
:1039600000C00CEA03069E4221D183004FF00F0CE9
:103970000CFA03F7BC4305FA03FC4CEA040491F883
:1039800003C0BCF1280F05D100F1080C08FA0CF8AF
:10399000C2F8148091F803C0BCF1480F07D100F1C0
:1039A000080C4FF0010808FA0CF8C2F81080401C0F
:1039B0000828CED35460BDE8F0814FF6FF71018036
:1039C000022181700421C170704702460020936873
:1039D0000B400BB1012000E00020704701468868D1
:1039E00080B2704702460020D3680B400BB1012023
:1039F00000E0002070470146C86880B2704701614E
:103A00007047416170470AB1016100E04161704750
:103A1000C16070474FF480320A43826181618261E4
:103A200082698269704702460020434B18684FF64E
:103A30008073184040EA021008433F4B18607047FB
:103A40003E49C8617047F0B50A46002300240021B2
:103A5000002500F00046B6F1004F02D1364EF16964
:103A600001E0354E7168C0F3034583B200F440169F
:103A7000B6F5401F08D121F070612F4E766826F010
:103A800070662D4F7E6012E000F48016B6F5801F40
:103A900006D1032606FA05F4A14341F0706106E061
:103AA000460D360103FA06F6B14341F0706122B1CA
:103AB000460D360103FA06F6314300F00046B6F132
:103AC000004F02D11C4EF16101E01B4E7160F0BD50
:103AD00030B500228B071C0F0F2303FA04F2164B9C
:103AE00008338C1053F824309343134C08348D1052
:103AF00044F8253023468C1053F824308C07240FCB
:103B000000FA04F423430C4C08348D1044F825309B
:103B100030BD0A49DC3108607047000000080140F0
:103B2000000C014000100140001401400018014049
:103B3000001C014000200140000001400000204224
:103B4000FB48006840F00100F949086008464068F9
:103B5000F8490840F649486008460068F6490840B8
:103B6000F34908600846006820F480200860084691
:103B7000406820F4FE0048600846006820F0A0502D
:103B800008604FF47F0088600020C8627047E849F1
:103B9000096821F48031E64A11601146096821F470
:103BA00080211160B0F5803F03D0B0F5802F0ED199
:103BB00006E0DF49096841F48031DD4A116007E021
:103BC000DB49096841F4A021D94A116000E000BF37
:103BD00000BF704710B501460022002300204A11A3
:103BE000012A02D1D24C236806E0022A02D1D04C2D
:103BF000236A01E0CE4C636A01F01F020124944065
:103C00001C400CB1012000E0002010BD38B50020A0
:103C100000900024002500BF3120FFF7DBFF0546A0
:103C20000098401C00900098B0F5A06F01D0002DC6
:103C3000F2D03120FFF7CEFF08B1012400E00024CC
:103C4000204638BD01460020B94A106820F0F8002F
:103C500040EAC10010607047B849086070470246EA
:103C60000020B34B586820F4741042EA0103184353
:103C7000AF4B58607047B149086670470246002054
:103C8000AB4BD86AAE4B184042EA01031843A84B2D
:103C9000D862704701460020A54AD06A20F0F000A3
:103CA0000843D062704701460020A14AD06A20F440
:103CB00070600843D0627047A0498866704701462B
:103CC00000209B4AD06A20F470400843D0627047BD
:103CD0009A490867704701460020954A506820F0CD
:103CE00003000843506070479148406800F00C00A2
:103CF0007047014600208E4A506820F0F0000843CB
:103D00005060704701460020894A506820F4E06006
:103D100008435060704701460020854A506820F4EF
:103D2000605040EAC1005060704729B1804A527A21
:103D300002437F4B5A7204E07D4A527A82437C4BA5
:103D40005A7270477D49D83108607047014600209B
:103D5000774A506820F440400843506070477949E2
:103D6000086070477749091D086070470021704A54
:103D7000203211706E4A82F82010012802D00428E7
:103D80000AD104E001216A4A2032117005E00521C0
:103D9000674A2032117000E000BF00BF70476A49D7
:103DA000086070476249096A0143614A11627047BD
:103DB00065494439086070472DE9F041002100222F
:103DC000002500230026002400278C46DFF86081B0
:103DD000D8F8048008F00C0121B1042907D0082983
:103DE00059D109E0DFF86481C0F8008058E0DFF8BD
:103DF0006081C0F8008053E0DFF83481D8F8048097
:103E000008F47012DFF82881D8F8048008F48035AF
:103E1000920C0D2A01D0921C00E0062235B9DFF881
:103E2000348102FB08F8C0F8008033E0DFF800813D
:103E3000D8F82C8008F48036DFF8F480D8F82C808D
:103E400008F00F0808F1010446B9DFF80481B8FB57
:103E5000F4F808FB02F8C0F800801BE0DFF8D0801F
:103E6000D8F82C80C8F3031808F10107DFF8C080E8
:103E7000D8F82C80C8F3032808F1020CDFF8D080B2
:103E8000B8FBF7F808FB0CF8B8FBF4F808FB02F8ED
:103E9000C0F8008004E0DFF8B480C0F8008000BF04
:103EA00000BFDFF88C80D8F8048008F0F001090921
:103EB000DFF8A48018F80130D0F8008028FA03F861
:103EC000C0F80480DFF86880D8F8048008F4E06166
:103ED000090ADFF8848018F80130D0F8048028FA45
:103EE00003F8C0F80880DFF84880D8F8048008F4A8
:103EF0006051C90ADFF8608018F80130D0F80480FA
:103F000028FA03F8C0F80C80DFF82480D8F8048081
:103F100008F44041890BDFF8448018F80130D0F8EC
:103F20000C80B8FBF3F8C0F81080BDE8F081000009
:103F3000001002400000FFF0FFFFF6FE00004242CA
:103F4000F0FFFEFFC40542428004424200127A00A4
:103F500040787D0100093D006400002074000020CD
:103F600029B1354A52690243334B5A6104E0324A5F
:103F700052698243304B5A61704729B12E4A926987
:103F800002432D4B9A6104E02B4A926982432A4BEB
:103F90009A61704729B1284AD2690243264BDA61F7
:103FA00004E0254AD2698243234BDA61704729B184
:103FB000214A926A0243204B9A6204E01E4A926AA6
:103FC00082431D4B9A62704729B11B4AD268024353
:103FD000194BDA6004E0184AD2688243164BDA6063
:103FE000704729B1144A12690243134B1A6104E065
:103FF000114A12698243104B1A6170470F490860D9
:1040000070470F49C86470470B49C87170470A4828
:10401000406A40F0807008494862704701460020BD
:10402000054A92680A400AB1012000E0002070476A
:10403000014988727047000000100240400442426B
:104040000000424210B50446FB48844209D10121D8
:104050008803FFF7B9FF00214FF48040FFF7B4FF5A
:1040600032E0F648844209D101214804FFF7B9FF44
:1040700000214FF40030FFF7B4FF25E0F048844200
:1040800009D101218804FFF7ACFF00214FF4802003
:10409000FFF7A7FF18E0EB48844209D10121C804CB
:1040A000FFF79FFF00214FF40020FFF79AFF0BE07E
:1040B000E548844208D101210805FFF792FF00215D
:1040C0004FF48010FFF78DFF10BD2DE9F04786B04B
:1040D00005460E460024A24600BFA1460027B0892F
:1040E00000B100BF2F462C8A4CF6FF700440F088C8
:1040F00004432C82AC894EF6F3100440B088318919
:104100000843718908430443AC81AC8A4FF6FF40F1
:104110000440B0890443AC8201A8FFF74DFEC648B5
:10412000874202D1DDF810A001E0DDF80CA0A889DB
:1041300000F4004040B10AEBCA0000EB0A103168FD
:104140004900B0FBF1F807E00AEBCA0000EB0A10E7
:1041500031688900B0FBF1F86420B8FBF0F004018D
:104160002009642101FB1089A88900F4004040B1B6
:10417000322000EBC900B0FBF1F000F0070004436F
:1041800008E0322000EB09106421B0FBF1F000F0F0
:104190000F0004432C8106B0BDE8F0874FF41651A0
:1041A000016000218180C18001810C2141810021B9
:1041B0008181704710B502460020108A4FF2FF033C
:1041C00018400B884C8823438C882343CC88234396
:1041D0001843108210BD0021018041808180C18080
:1041E000704721B1828942F40052828104E08289C1
:1041F0004DF6FF731A4082817047F0B503460024E4
:1042000000260025002040F66A17B94200D100BF01
:104210001846C1F3421401F01F06012707FA06F5FC
:10422000012C01D10C3004E0022C01D1103000E04F
:1042300014301AB107682F43076002E00768AF43E4
:104240000760F0BD1AB1838A0B43838202E0838A40
:104250008B4383827047028A4FF6F0731A400282C2
:10426000028A0A430282704782894FF2FF731A4022
:10427000828182890A438281704721B1828942F01A
:104280000202828104E082894FF6FD731A40828126
:104290007047028A4FF6DF731A400282028A0A438D
:1042A0000282704721B1028A42F48042028204E015
:1042B000028A4BF6FF731A4002827047C1F308026C
:1042C0008280704701468888C0F308007047818962
:1042D00041F0010181817047028BD2B20283028BCF
:1042E00042EA012202837047028B02F47F4202837A
:1042F000028B0A430283704721B1828A42F0200276
:10430000828204E0828A4FF6DF731A40828270470D
:1043100021B1828A42F01002828204E0828A4FF642
:10432000EF731A408282704721B1828A42F00802FC
:10433000828204E0828A4FF6F7731A4082827047C5
:1043400021B1828942F40042828103E08289C2F372
:104350000E028281704721B1828A42F40062828219
:1043600004E0828A4FF2FF731A4082827047828A89
:104370004FF6FB731A408282828A0A438282704718
:1043800021B1828A42F00202828204E0828A4FF6E0
:10439000FD731A408282704702460020B1F5007F0B
:1043A00000D100BF13880B400BB1012000E00020BA
:1043B000704701F40072B2F5007F00D100BFCA431C
:1043C0000280704770B502460024002300250020BB
:1043D00040F66A16B14200D100BFC1F3421501F0A8
:1043E0001F03012606FA03F3012D02D196893340FB
:1043F00006E0022D02D1168A334001E0968A33404E
:104400000C12012606FA04F41688344013B10CB1DC
:10441000012000E0002070BD10B50022002340F60E
:104420006A14A14200D100BF0A1201249440A3B231
:10443000DC43048010BD000000380140004400400F
:1044400000480040004C00400050004010B50446B9
:10445000FE48844208D10121C014FFF7B5FD0021B8
:10446000E014FFF7B1FDC4E0B4F1804F08D10121A1
:104470000846FFF7B6FD00210120FFF7B2FDB8E0C6
:10448000F348844208D101210220FFF7AAFD002150
:104490000220FFF7A6FDACE0EE48844208D10121DE
:1044A0000420FFF79EFD00210420FFF79AFDA0E005
:1044B000E948844208D101210820FFF792FD00213C
:1044C0000820FFF78EFD94E0E448844208D10121E2
:1044D0001020FFF786FD00211020FFF782FD88E005
:1044E000DF48844208D101212020FFF77AFD002116
:1044F0002020FFF776FD7CE0DA48844208D10121D4
:104500004014FFF761FD00216014FFF75DFD70E0CE
:10451000D548844209D10121C804FFF755FD002187
:104520004FF40020FFF750FD63E0D048844209D1EA
:1045300001210805FFF748FD00214FF48010FFF727
:1045400043FD56E0CA48844209D101214805FFF7DE
:104550003BFD00214FF40010FFF736FD49E0C54850
:10456000844208D101214020FFF73BFD002140207B
:10457000FFF737FD3DE0C048844208D1012180208B
:10458000FFF72FFD00218020FFF72BFD31E0BB4816
:10459000844208D101218015FFF723FD0021A015D9
:1045A000FFF71FFD25E0B648844209D10121080428
:1045B000FFF70AFD00214FF48030FFF705FD18E0FA
:1045C000B048844209D101214804FFF7FDFC0021D5
:1045D0004FF40030FFF7F8FC0BE0AB48844208D101
:1045E00001218804FFF7F0FC00214FF48020FFF741
:1045F000EBFC10BD00220288944B98420ED0994BE0
:1046000098420BD0B0F1804F08D0914B984205D022
:10461000904B984202D0904B984204D14FF68F7342
:104620001A404B881A438D4B984207D08C4B9842C6
:1046300004D04FF6FF431A40CB881A4302808B8880
:1046400083850B880385814B98420BD0854B98421C
:1046500008D08B4B984205D08A4B984202D08A4BA7
:10466000984201D10B7A038601238382704770B58B
:10467000002400220023058C4FF6FE763540058489
:10468000028C8388048B4FF68F752C40B51E2C400E
:104690000D882C43751E2A400D892A434D882A43D4
:1046A0006A4DA8420BD06F4DA84208D0744DA84265
:1046B00005D0744DA84202D0734DA84213D14FF6D5
:1046C000F7752A404D892A434FF6FB752A408D889D
:1046D0002A434FF6FF652B404FF6FF552B408D893F
:1046E0002B43CD892B4383800483CD888586028428
:1046F00070BD70B5002400220023058C4FF6EF76C4
:1047000035400584028C8388048B48F6FF752C4065
:104710004FF6FF452C400D884FF6FF7606EA05253B
:104720002C434FF6DF752A400D8906EA05152A430A
:104730004D8806EA05152A43444DA84202D0494D4A
:10474000A8421DD14FF67F752A404D894FF6FF765E
:1047500006EA05152A434FF6BF752A408D8806EAFA
:1047600005152A434FF6FF352B404FF2FF752B40BE
:104770008D8906EA85052B43CD8906EA85052B43FD
:1047800083800483CD880587028470BD70B50024C2
:1047900000220023058C4FF6FF6635400584028C0D
:1047A0008388848B4FF68F752C404FF6FC752C4018
:1047B0000D882C434FF6FF552A400D894FF6FF76A2
:1047C00006EA05252A434D8806EA05252A431F4D9A
:1047D000A84202D0234DA8421DD14FF2FF752A40B6
:1047E0004D894FF6FF7606EA05252A434FF6FF3539
:1047F0002A408D8806EA05252A434EF6FF752B4090
:104800004DF6FF752B408D8906EA05152B43CD89A2
:1048100006EA05152B4383808483CD88858702842F
:1048200070BD70B5002200230024058C4EF6FF7683
:1048300035400584038C8488828B48F6FF752A40B6
:104840004FF6FF452A400D8820E00000002C014073
:104850000004004000080040000C00400010004030
:104860000014004000340140004C01400050014061
:104870000054014000180040001C0040002000408F
:104880000040014000440140004801404FF6FF76DF
:1048900006EA05252A434DF6FF752B400D8906EAE9
:1048A00005352B434D8806EA05352B43FA4DA842C2
:1048B00002D0FA4DA84208D14BF6FF752C408D89E5
:1048C0004FF6FF7606EA85152C4384808283CD88D7
:1048D000A0F84050038470BD828B4FF2FF331A4022
:1048E0008283828B4FF6FF7303EA01231A4382838C
:1048F0007047F0B50C461546002200210026078CB3
:104900004EF6FF7C07EA0C070784828B018C4FF67A
:10491000FF7707EA043640F6FF473A404FF6FF7745
:1049200007EA05273A434FF6FF7707EA03373A438A
:10493000D94FB8420ED0D94FB8420BD0B0F1804F0A
:1049400008D0D74FB84205D0D64FB84202D0D64F84
:10495000B84206D14DF6FF77394046F480573943C7
:1049600005E047F6FF57394044F4805739438283C6
:104970000184F0BD828B4FF6F3731A408283828BE1
:104980000A4382837047F0B50C4615460022002189
:104990000026078C4FF6FF6C07EA0C070784828B12
:1049A000018C4FF6FF7707EA04264FF60C773A4062
:1049B0004FF6FF7707EA03172F433A43B64FB84243
:1049C0000ED0B64FB8420BD0B0F1804F08D0B44FE4
:1049D000B84205D0B34FB84202D0B34FB84206D167
:1049E0004FF6FF57394046F48077394305E04FF2E0
:1049F000FF57394044F48077394382830184F0BD06
:104A0000028B4FF2FF331A400283028B4FF6FF7383
:104A100003EA01231A4302837047F0B50C4615469A
:104A2000002200210026078C4FF6EF7C07EA0C07D6
:104A30000784028B018C4FF6FF7707EA041640F6D5
:104A4000FF473A404FF6FF7707EA03373A434FF6FE
:104A5000FF7707EA05273A438F4FB8420ED08F4FB2
:104A6000B8420BD0B0F1804F08D08D4FB84205D07E
:104A70008C4FB84202D08C4FB84206D14FF6DF7748
:104A8000394046F01007394305E04FF65F7739406B
:104A900044F01007394302830184F0BD028B4FF6C6
:104AA000F3731A400283028B0A4302837047F0B506
:104AB0000C46154600220021068C4FF6FE773E403C
:104AC0000684028B018C4FF60C7632407E1C06EA7F
:104AD00003162E433243704EB0420ED06F4EB0429A
:104AE0000BD0B0F1804F08D06D4EB04205D06D4E66
:104AF000B04202D06C4EB04206D14FF6FD76314046
:104B000044F00106314305E04FF6F576314044F0BC
:104B10000106314302830184F0BD70B505460C46A1
:104B20005D4885420ED05D4885420BD0B5F1804F7F
:104B300008D05B48854205D05A48854202D05A4881
:104B4000854200D100E000BF208850B92389A288A7
:104B500061882846FFF7ABFFE1882846FFF79EFFF4
:104B600025E0208804280AD12389A2886188284664
:104B7000FFF753FFE1882846FFF742FF17E0208840
:104B800008280AD12389A28861882846FFF7FBFEFE
:104B9000E1882846FFF7EEFE09E02389A2886188B4
:104BA0002846FFF7A6FEE1882846FFF795FE70BD70
:104BB0002DE9F04105460C4600260127608808B91A
:104BC000022600E00026A088012801D1022700E08B
:104BD00001272088A0B92389A28861882846FFF789
:104BE00066FFE1882846FFF759FF23893A46314698
:104BF0002846FFF712FFE1882846FFF701FF13E080
:104C00002389A28861882846FFF707FFE1882846A4
:104C1000FFF7F6FE23893A4631462846FFF747FF5D
:104C2000E1882846FFF73AFFBDE8F0810A884B8803
:104C30001A438B881A43CB881A430B891A434B8932
:104C40001A438B891A43A0F8442070474FF6FF712E
:104C5000818000210180C180418001727047002164
:104C6000018041808180C180018141818181C18138
:104C70007047002101804180012181800021C18095
:104C8000018170470021018041808180C1800181C4
:104C90004181818170470000002C014000340140B7
:104CA0000004004000080040000C004021B10288D0
:104CB00042F00102028004E002884FF6FE731A40BF
:104CC0000280704731B1B0F8442042F40042A0F8AD
:104CD000442005E0B0F84420C2F30E02A0F84420BE
:104CE00070471AB183890B43838102E083898B4328
:104CF000838170478182704741EA0203A0F84830FF
:104D000070471AB183890B43838102E083898B4307
:104D10008381704701894FF6F87211400181704715
:104D20000A46002101894FF68F7319401143018112
:104D3000704730B504460D4629462046FFF7F0FF80
:104D4000208940F00700208130BD2DE9F041044664
:104D50000D4616461F46602D06D13B4601223146C0
:104D60002046FFF75AFE05E03B4601223146204629
:104D7000FFF79DFE29462046FFF7D2FF208940F02D
:104D800007002081BDE8F08130B50C460021018983
:104D9000C9B24FF6FF7505EA03251543254329439C
:104DA000018130BD2DE9F04105460E461746984673
:104DB000002443463A4631462846FFF7E5FF2C8952
:104DC0004FF6F870044044F007044FF68F7004402B
:104DD00044F070042C81BDE8F081F0B504460D4626
:104DE00016461F463B46324629462046FFF7CCFF73
:104DF000208940F480402081F0BD01858282704787
:104E00000A46002101884FF68F7319401143018033
:104E10007047F0B50C4615461E46002100220023BF
:104E20000189028B038C4FF6F877394021434FF606
:104E3000FC473A4040F201173A434FF6DD773B40DA
:104E40004FF6FF7707EA06172F433B4301810283A2
:104E50000384F0BD0A460021018B4FF68F73194081
:104E60001143018370470A460021018B48F6FF7306
:104E700019404FF6FF7303EA022319430183704779
:104E80000A460021818B4FF68F73194011438183AD
:104E900070470A460021818B48F6FF7319404FF690
:104EA000FF7303EA022319438183704721B102880B
:104EB00042F08002028004E002884FF67F731A40BD
:104EC0000280704721B1828842F00402828004E0AF
:104ED00082884FF6FB731A408280704721B1828826
:104EE00042F00802828004E082884FF6F7731A408D
:104EF0008280704721B1828842F00102828004E002
:104F000082884FF6FE731A40828070470A4600215D
:104F1000018B4FF6F77319401143018370470A461E
:104F20000021018B4FF2FF7319404FF6FF7303EA24
:104F300002231943018370470A460021818B4FF6F3
:104F4000F77319401143818370470A460021818B12
:104F50004FF2FF7319404FF6FF7303EA0223194320
:104F6000818370470A460021018B4FF6FB7319407D
:104F70001143018370470A460021018B4FF6FF332E
:104F800019404FF6FF7303EA022319430183704768
:104F90000A460021818B4FF6FB7319401143818330
:104FA00070470A460021818B4FF6FF3319404FF6B8
:104FB000FF7303EA02231943818370470A460021E5
:104FC000018B4FF67F7319401143018370470A46E6
:104FD0000021018BC1F30E014FF6FF7303EA022398
:104FE0001943018370470A460021818B4FF67F7376
:104FF00019401143818370470A460021818BC1F318
:105000000E014FF6FF7303EA0223194381837047B1
:105010000A460021018C4FF6FD73194011430184AB
:1050200070470A460021018C4FF6F773194011436F
:10503000018470470A460021018C4FF6DF73194046
:105040004FF6FF7303EA02131943018470470A46BF
:105050000021018C4FF67F7319404FF6FF7303EA6E
:1050600002131943018470470A460021018C4FF650
:10507000FF5319404FF6FF7303EA022319430184DB
:1050800070470A460021018C4FF2FF7319404FF61A
:10509000FF7303EA02231943018470470A46002183
:1050A000018C4DF6FF7319404FF6FF7303EA02338C
:1050B00019430184704730B5002301248C40A3B20A
:1050C000048C9C430484048C02FA01F5ADB22C4399
:1050D000048430BD30B5002304248C40A3B2048C7A
:1050E0009C430484048C02FA01F5ADB22C43048481
:1050F00030BD70B503460020002418461830012545
:105100008D40ACB21D8CA5431D8409B1082909D17D
:1051100000EB6100056825F0700505600568154322
:1051200005600EE00D1FC5F34E052844056825F403
:10513000E045056005684FF6FF7606EA022635432E
:10514000056070BD21B1028842F00202028004E0D5
:1051500002884FF6FD731A400280704721B1028821
:1051600042F00402028004E002884FF6FB731A400A
:105170000280704721B1828842F08002828004E080
:1051800082884FF67F731A408280704702884FF6FC
:10519000F7731A40028002880A43028070478288AF
:1051A0004FF68F731A40828082880A43828070474C
:1051B00002894FF6F8731A40028102890A4302817C
:1051C000704702894FF67F731A40028102890A43B1
:1051D000028170478184704781857047818670475E
:1051E0000187704781877047A0F840107047028898
:1051F0004FF6FF431A40028002880A43028070473C
:105200000146888E70470146088F70470146888F97
:1052100070470146B1F8400070470146888C7047DE
:105220000146088D704702460020138A0B400BB1DF
:10523000012000E000207047CA430282704730B569
:105240000246002000230024158A05EA01039589FF
:1052500005EA010413B10CB1012000E0002030BDCB
:10526000CA4302827047000010B50446FA488442DF
:1052700008D101214015FEF7A7FE00216015FEF7B9
:10528000A3FE17E0F548844208D101210015FEF77E
:105290009BFE00212015FEF797FE0BE0F0488442AC
:1052A00008D10121C803FEF78FFE00214FF4004012
:1052B000FEF78AFE10BD30B502460020002350687C
:1052C000E84C20400D790C6844EA052420435060E6
:1052D0009068E54C2040D1E902542C434D7944EAD2
:1052E000450420439060D06A20F470000C7C641E5A
:1052F000E4B2234340EA0350D06230BD0021016094
:10530000017141718160C16001210174704721B157
:10531000826842F00102826003E0826822F00102AA
:105320008260704721B1826842F48072826003E03B
:10533000826822F480728260704710B50023CBB27D
:105340001AB144681C43446002E044689C434460D2
:1053500010BD816841F0080181607047014600205E
:105360008A6802F008020AB1012000E000207047BC
:10537000816841F0040181607047014600208A681D
:1053800002F004020AB1012000E00020704721B1C0
:10539000826842F4A002826003E0826822F4A002E4
:1053A00082607047014600208A6802F480020AB1D8
:1053B000012000E00020704710B50A4600210023BC
:1053C000416821F46041531E41EA4331416010BD00
:1053D00021B1426842F40062426003E0426822F474
:1053E000006242607047F0B504460D46002000217F
:1053F000092D11DDE068A5F10A0606EB4607072630
:1054000006FA07F18843A5F10A0606EB460603FAF9
:1054100006F10843E0600CE0206905EB450707262C
:1054200006FA07F1884305EB450603FA06F108433F
:105430002061072A0FDA606B561E06EB86071F26CF
:1054400006FA07F18843561E06EB860605FA06F1B2
:105450000843606322E00D2A0FDA206BD61F06EBAB
:1054600086071F2606FA07F18843D61F06EB860635
:1054700005FA06F10843206310E0E06AA2F10D0688
:1054800006EB86071F2606FA07F18843A2F10D06F0
:1054900006EB860605FA06F10843E062F0BD21B18D
:1054A000826842F48012826003E0826822F48012F3
:1054B000826070470146C86C80B2704766484C30C5
:1054C0000068704721B1426842F48062426003E0A4
:1054D000426822F480624260704721B1426842F41F
:1054E0008052426003E0426822F48052426070477A
:1054F0000A460021816821F4E04111438160704730
:1055000021B1826842F40042826003E0826822F4A2
:1055100000428260704721B1826842F402128260C8
:1055200003E0826822F40212826070470146002084
:105530008A6802F400120AB1012000E000207047DE
:10554000F0B504461546002000220026092911DD89
:10555000E068A1F10A0707EB470C072707FA0CF2EE
:105560009043A1F10A0707EB470703FA07F210433C
:10557000E0600CE0206901EB410C072707FA0CF210
:10558000904301EB410703FA07F210432061A06B3F
:10559000C0F30156EF1C06F1010CA7EB0C0707EB5B
:1055A000870C1F2707FA0CF29043EF1C06F1010C41
:1055B000A7EB0C0707EB870701FA07F21043A0637C
:1055C000F0BD10B50A4600210023816B21F4401183
:1055D000531E41EA0351816310BD08B500230093B7
:1055E0000090009B0B440093009B1A6008BD08B517
:1055F000024600200090009201F12800009B184410
:1056000000900098006880B208BD0A4600214168F9
:10561000164B1940114341607047416282627047E6
:105620000A460021416821F01F0111434160704783
:1056300040B109490831096841F40001064A0832BD
:10564000116007E004490831096821F40001024AA9
:10565000083211607047000000240140002801401A
:10566000003C0140FFFEF0FFFDF7F1FFFFFD3FFFB3
:105670000246002013680B400BB1012000E000201F
:105680007047CA430260704770B50246002000238D
:1056900000240B125568CEB205EA060415681D40B9
:1056A00015B10CB1012000E0002070BD00220A12EB
:1056B000D34303607047000010B50446FE4884429F
:1056C00009D101214806FEF78CFC00214FF0007043
:1056D000FEF787FC08E001218806FEF782FC002126
:1056E0004FF08060FEF77DFC10BD30B50246002013
:1056F0000023146824F002041460146844F00104C8
:10570000146000E05B1C546804F001041CB94FF6FF
:10571000FF74A342F6D1546804F001040CB90020D0
:105720006CE08C79012C04D1146844F0800414607E
:1057300003E0146824F080041460CC79012C04D1B7
:10574000146844F04004146003E0146824F040043A
:1057500014600C7A012C04D1146844F02004146005
:1057600003E0146824F0200414604C7A012C04D166
:10577000146844F01004146003E0146824F010046A
:1057800014608C7A012C04D1146844F0080414606D
:1057900003E0146824F008041460CC7A012C04D1CE
:1057A000146844F00404146003E0146824F0040452
:1057B00014608C78A407CD7844EA05640D7944EA36
:1057C00005444D7944EA05540D886D1E2C43D4617F
:1057D000146824F001041460002300E05B1C54688A
:1057E00004F001041CB14FF6FF74A342F6D15468D3
:1057F00004F001040CB1002000E0012030BD10B520
:105800000021837A012202FA03F1AC4A126842F0C5
:105810000102AA4B1A60A94A1C3212688A43A74B9C
:105820001C331A60027BCAB9A44A0C3212688A433C
:10583000A24B0C331A604288C38842EA03439F4A52
:105840004032847A42F834300288838842EA034343
:105850009A4A4032847A02EBC4025360027B012AE6
:1058600019D1964A0C3212680A43944B0C331A60D1
:105870004288038842EA0343904A4032847A42F8DD
:105880003430C288838842EA03438C4A4032847AA7
:1058900002EBC4025360C27A3AB9884A121D1268F8
:1058A0008A43864B1B1D1A6006E0844A121D12684B
:1058B0000A43824B1B1D1A60028932B97F4A143297
:1058C00012688A437D4B14331A600289012A06D17B
:1058D0007A4A143212680A43784B14331A60427BB6
:1058E000012A06D1754A1C3212680A43734B1C33D5
:1058F0001A60724A126822F00102704B1A6010BDE1
:1059000000218171C171017241728172C172817015
:10591000C170032101710221417101210180704791
:105920006649096841F00101644A1160114609683D
:1059300043F60E729143614A11601146096841EACB
:10594000002111601146096821F0010111607047C2
:1059500021B1026842F48032026003E0026822F45E
:10596000803202607047E1B1026842F0800202605A
:105970004FF4C272125842F480734FF4C272135043
:105980004FF4CA72125842F480734FF4CA72135023
:105990004FF4D272125842F480734FF4D272135003
:1059A0001BE0026822F0800202604FF4C2721258BB
:1059B00022F480734FF4C27213504FF4CA7212581B
:1059C00022F480734FF4CA7213504FF4D2721258FB
:1059D00022F480734FF4D2721350704710B5024610
:1059E0000020936803F08063B3F1806F00D110E072
:1059F000936803F00063B3F1006F01D1012008E068
:105A0000936803F08053B3F1805F01D1022000E07E
:105A10000420042879D002F5C07303EB00131B683F
:105A200003F0010402F5C07303EB00131C600B7A52
:105A30007BB94B7A0C8843EA445302F5C07404EBFB
:105A400000142468234302F5C07404EB001423609F
:105A500010E00B7A4C6843EAC4034C7A234302F506
:105A6000C07404EB00142468234302F5C07404EBF3
:105A7000001423608B7A03F00F038B7202F5C0735E
:105A800003EB00135B6823F00F0402F5C07303EB14
:105A900000135C6002F5C07303EB00135B688C7A43
:105AA000234302F5C07404EB001463608B7B1C0677
:105AB0004B7B44EA034403E000640040006600407E
:105AC0000B7B44EA0323CC7A234302F5C07404EB36
:105AD0000014A3608B7C1C064B7C44EA03440B7CC3
