:020000040800F2
:10000000201A0020153800081D3800081F38000885
:1000100021380008233800082538000800000000B7
:100020000000000000000000000000002738000869
:1000300029380008000000002B3800082D3800087F
:100040002F3800082F3800082F380008972800089C
:100050002F3800082F3800082F3800082F380008E4
:100060002F3800082F3800082F380008CB2B000845
:100070002F3800082F3800082F3800082F380008C4
:100080002F3800082F3800082F3800082F380008B4
:10009000E91000082F3800082F3800082F38000812
:1000A0002F3800082F3800082F380008612D00086D
:1000B000EB7F00082F380008C72F00082F380008F2
:1000C0002F3800082F3800082F3800082F38000874
:1000D0002F38000801350008453500082F38000882
:1000E0002F3800082F3800082F38000800000000C3
:1000F0000000000000000000000000000000000000
:100100000000000000000000153400082F3800082F
:100110002F3800082F3800082F3800082F38000823
:100120002F3800082F3800082F3800082F38000813
:100130002F3800082F3800082F3800082F38000803
:10014000471500082F3800082F380008F37F0008F3
:10015000DFF80CD008F038FA00480047DF0100084B
:10016000201A002030B58FB02E48856900218161AA
:100170003A208DF80000280A8DF80100E8B28DF8C9
:1001800002000D208DF803000A208DF804000024E1
:1001900006E01DF80410244801F0C9FF601CC4B239
:1001A000052CF6DB0FB030BD10B503F079FA01F085
:1001B00033FB00F0C6FC00F0E8FD01F068FF02F040
:1001C00063FF02F08BFB47214FF6FF7002F01CFD2E
:1001D00000F0D0FE02F055FA03F04CF910BDFFF725
:1001E000E3FF16E011480078C0F3400088B10F48E3
:1001F000007820F002000D49087008460078C0F32E
:10020000401030B10846007820F020000870FFF759
:10021000A9FFE7E700BF0100A0F1010290B2FAD107
:1002200070470000E4120020004400404D00002010
:1002300070B50446002521E00421FB4803F079FC59
:100240000120FFF7E7FF04F08006802E04D1012192
:10025000F54803F06CFC03E00121F34803F069FC6E
:100260000120FFF7D7FF6006040E0421EE4803F0DB
:100270005EFC0120FFF7CEFF681CC5B2082DDBDB5A
:1002800070BD70B504460D460221E74803F051FCED
:100290000120FFF7BFFF0020FFF7CAFF0020FFF794
:1002A000C7FF0120FFF7B6FFE0B2FFF7C1FFE8B2DA
:1002B000FFF7BEFF0120FFF7ADFF0020FFF7B8FFFB
:1002C0000020FFF7B5FF0221D74803F030FC0120E2
:1002D000FFF7A0FF70BD70B504460D460221D2485D
:1002E00003F027FC0120FFF795FFE0B2FFF7A0FF26
:1002F000E8B2FFF79DFF0120FFF78CFF0020FFF71A
:1003000097FF0020FFF794FF0120FFF783FF0020F5
:10031000FFF78EFF0020FFF78BFF0221C24803F09A
:1003200006FC0120FFF776FF70BD70B504460D4650
:100330000221BD4803F0FDFB0120FFF76BFF002009
:10034000FFF776FF0020FFF773FF0120FFF762FF42
:100350000020FFF76DFF0020FFF76AFF0120FFF785
:1003600059FFE0B2FFF764FFE8B2FFF761FF022137
:10037000AD4803F0DCFB0120FFF74CFF70BD10B56A
:1003800000210F20FFF7D1FF00210F20FFF779FF99
:1003900000210F20FFF79FFF02210A20FFF7C5FF72
:1003A00002210A20FFF76DFF02210A20FFF793FFC9
:1003B00007210B20FFF7B9FF07210B20FFF761FF93
:1003C00007210B20FFF787FF00210920FFF7ADFF72
:1003D00000210920FFF755FF00210920FFF77BFFCF
:1003E00001210C20FFF7A1FF01210C20FFF749FF9D
:1003F00001210C20FFF76FFF10BD70B50446FFF719
:10040000BEFF2046E11704EB11710911A4EB0111A5
:10041000864A555C29460720FFF733FF2046E1173F
:1004200004EB11710911814A555C29460820FFF738
:1004300028FF70BD2DE9F04105460F461646FFF72F
:100440009EFF642095FBF0F100FB1150C5B2012F17
:100450001ED10A2095FBF0F0C4B27448045D022E50
:1004600001D144F0800421460120FFF70AFF0A2051
:1004700095FBF0F100FB1150C4B26C48045D012EF5
:1004800001D144F0800421460220FFF7FAFE61E02A
:10049000022F1ED10A2095FBF0F0C4B26348045D20
:1004A000022E01D144F0800421460320FFF7E9FE2B
:1004B0000A2095FBF0F100FB1150C4B25B48045DCB
:1004C000012E01D144F0800421460420FFF7D9FE1B
:1004D00040E0032F1ED10A2095FBF0F0C4B2534830
:1004E000045D022E01D144F0800421460520FFF76F
:1004F000C8FE0A2095FBF0F100FB1150C4B24B4836
:10050000045D012E01D144F0800421460620FFF74E
:10051000B8FE1FE0042F1DD10A2095FBF0F0C4B2F5
:100520004248045D022E01D144F080042146072098
:10053000FFF7A7FE0A2095FBF0F100FB1150C4B2B3
:100540003A48045D012E01D144F080042146082080
:10055000FFF797FEBDE8F08170B504460D46FFF742
:100560000EFF012D73D132480078C0F3800060B1D6
:100570002E48867B31460320FFF783FE2B48867B7F
:1005800031460420FFF77DFE2FE1E11704EB1171E6
:10059000091139BBE11704EB11710911A4EB011129
:1005A00099B12248867A31460320FFF76AFE204639
:1005B000E11704EB11710911A4EB01111B4A565C00
:1005C00031460420FFF75DFE0FE11848867A314678
:1005D0000320FFF756FE1548467B31460420FFF7FF
:1005E00050FE02E1E11704EB11710122B2EB211F71
:1005F0002ED1E11704EB11710911A4EB0111C9B15E
:100600000A48C67A31460320FFF73BFE2046E11731
:1006100004EB11710911A4EB0111044A565C314637
:100620000420FFF72EFEE0E0001801400A860008D3
:1006300005000020FE48C67A31460320FFF721FE60
:10064000FB48467B31460420FFF71BFECDE02EE041
:10065000E11704EB11710222B2EB211F94D1E117D3
:1006600004EB11710911A4EB011199B1F048067B5B
:1006700031460320FFF705FE2046E11704EB117118
:100680000911A4EB0111EA4A565C31460420FFF738
:10069000F8FDAAE0E648067B31460320FFF7F1FDAE
:1006A000E348467B31460420FFF7EBFD9DE0022D39
:1006B0008AD1E0480078C0F3800060B1DC48867BD6
:1006C00031460120FFF7DDFDD948867B3146022007
:1006D000FFF7D7FD89E0E11704EB1171091139BB70
:1006E000E11704EB11710911A4EB011199B1D04884
:1006F000867A31460120FFF7C4FD2046E11704EB5E
:1007000011710911A4EB0111C94A565C314602204E
:10071000FFF7B7FD69E0C648867A31460120FFF74A
:10072000B0FDC348467B31460220FFF7AAFD5CE0DE
:10073000E11704EB11710122B2EB211F27D1E11760
:1007400004EB11710911A4EB011199B1B848C67AF3
:1007500031460120FFF795FD2046E11704EB1171AA
:100760000911A4EB0111B24A565C31460220FFF791
:1007700088FD3AE0AE48C67A31460120FFF781FD98
:10078000AB48467B31460220FFF77BFD2DE0E117A9
:1007900004EB11710222B2EB211F26D1E11704EB09
:1007A00011710911A4EB011199B1A148067B3146E1
:1007B0000120FFF766FD2046E11704EB11710911D6
:1007C000A4EB01119A4A565C31460220FFF759FD0D
:1007D0000BE09748067B31460120FFF752FD944815
:1007E000467B31460220FFF74CFD70BD2DE9F041FC
:1007F00005460F461646FFF7C2FD42F2107095FB04
:10080000F0F100FB115085B2012F46D14FF47A7000
:1008100095FBF0F0C4B28648045D042E01D144F08B
:10082000800421460120FFF780FD4FF47A7095FB8C
:10083000F0F100FB1150642190FBF1F0C4B27C4850
:10084000045D032E01D144F0800421460220FFF70D
:100850006CFD642095FBF0F100FB11500A2190FB28
:10086000F1F0C4B27248045D022E01D144F080045C
:1008700021460320FFF759FD0A2095FBF0F100FB0C
:100880001150C4B26A48045D012E01D144F08004C5
:1008900021460420FFF749FD47E0022F45D14FF4E0
:1008A0007A7095FBF0F0C4B26148045D042E01D16A
:1008B00044F0800421460520FFF737FD4FF47A709D
:1008C00095FBF0F100FB1150642190FBF1F0C4B2F4
:1008D0005748045D032E01D144F0800421460620D0
:1008E000FFF723FD642095FBF0F100FB11500A2176
:1008F00090FBF1F0C4B24E48045D022E01D144F0E9
:10090000800421460720FFF710FD0A2095FBF0F137
:1009100000FB1150C4B24648045D012E01D144F0E1
:10092000800421460820FFF700FDBDE8F0812DE995
:10093000F04105460F461646FFF721FD42F21070C2
:1009400095FBF0F100FB115085B2012F46D14FF419
:100950007A7095FBF0F0C4B23548045D042E01D1E5
:1009600044F0800421460120FFF7B5FC4FF47A7073
:1009700095FBF0F100FB1150642190FBF1F0C4B243
:100980002B48045D032E01D144F08004214602204F
:10099000FFF7A1FC642095FBF0F100FB11500A2148
:1009A00090FBF1F0C4B22248045D022E01D144F064
:1009B000800421460320FFF78EFC0A2095FBF0F10E
:1009C00000FB1150C4B21A48045D012E01D144F05D
:1009D000800421460420FFF77EFC4DE0022F4BD11E
:1009E0004FF47A7095FBF0F0C4B21148045D042E08
:1009F00001D144F0800421460520FFF76CFC4FF440
:100A00007A7095FBF0F100FB1150642190FBF1F03E
:100A1000C4B20748045D032E01D144F0800421468E
:100A20000620FFF758FC642095FBF0F104E000007D
:100A30000A8600080500002000FB11500A2190FBE7
:100A4000F1F0C4B27048045D022E01D144F080047C
:100A500021460720FFF73FFC0A2095FBF0F100FB41
:100A60001150C4B26848045D012E01D144F08004E5
:100A700021460820FFF72FFCBDE8F08110B5634840
:100A8000408C0A2190FBF1F084B203220121204620
:100A9000FFF74DFF5D49888E00220221FFF747FFD7
:100AA0005A49888D00220121FFF7A0FE5749888C02
:100AB00000220221FFF79AFE554948790221FFF7EB
:100AC0004BFD534908790121FFF746FD4F4890F847
:100AD0002600642805DB002203216320FFF7AAFC1F
:100AE00006E04A4991F8260000220321FFF7A2FC04
:100AF00048480078FFF781FC10BD10B5012405E0DF
:100B000000212046FFF7E7FB601CC4B2082CF7DD8C
:100B100010BD10B5012405E000212046FFF7B1FB10
:100B2000601CC4B2082CF7DD10BD10B5012405E02F
:100B300000212046FFF7F9FB601CC4B2082CF7DD4A
:100B400010BD08B50121402003F0AFFA012140207B
:100B500003F0ABFA0121402003F0A7FA0120ADF821
:100B6000000003208DF8020010208DF80300694674
:100B7000294802F02FFF0220ADF8000003208DF875
:100B8000020010208DF803006946234802F022FF7E
:100B90000420ADF8000003208DF8020010208DF82D
:100BA000030069461C4802F015FF01211A4802F0B3
:100BB000C0FF0221184802F0BAFF0421164802F0D3
:100BC000B8FFFFF7DCFBFFF7B0FFFFF7A2FFFFF76F
:100BD00094FF08BD70B505460E461446012C04D19D
:100BE00031462846FFF7A1FB0CE0022C04D1314628
:100BF0002846FFF746FB05E0032C03D13146284683
:100C0000FFF769FB70BD00000A8600088000002025
:100C1000A00E0020000000200018014010B508219F
:100C2000D14802F086FF0A20FFF7F4FA2021CE48CF
:100C300002F07DFF0A20FFF7EDFA0821CA4802F012
:100C400076FF0A20FFF7E6FA10BD38B501214020F3
:100C500003F02BFA0820ADF8000003208DF8020005
:100C600004208DF803006946BF4802F0B3FE0A2055
:100C7000FFF7D0FA2021BC4802F059FF0A20FFF705
:100C8000C9FA01E0601CC4B20821B74802F035FF80
:100C9000012801D1C82CF5DB0A20FFF7BBFA20217F
:100CA000B14802F046FF0A20FFF7B4FA01214020C4
:100CB00003F0FBF90820ADF8000003208DF80200D6
:100CC00010208DF803006946A74802F083FE0A2031
:100CD000FFF7A0FA38BD70B505462021A24802F002
:100CE00028FF0A20FFF796FA80241DE004EA050099
:100CF00020B108219C4802F01AFF03E008219A481D
:100D000002F017FF0A20FFF785FA2021964802F02B
:100D10000EFF0A20FFF77EFA2021934802F009FF18
:100D20000A20FFF777FA6410002CDFDC08218E48D8
:100D300002F0FDFE0A20FFF76DFAFFF786FF70BD97
:100D400010B50821884802F0F2FE0A20FFF762FA87
:100D50002021854802F0EBFE0A20FFF75BFA08210C
:100D6000814802F0E6FE0A20FFF754FA10BD70B584
:100D700005460C46FFF7E4FF2846FFF7ACFF204688
:100D8000FFF7A9FFFFF74AFF70BD08B5012140201A
:100D900003F08BF92020ADF8000003208DF802004D
:100DA00010208DF8030069466F4802F013FE012100
:100DB000402003F07AF90820ADF8000003208DF8F8
:100DC000020010208DF803006946674802F002FE19
:100DD0002021654802F0ADFE0821634802F0A9FE1B
:100DE00000217020FFF7C3FF08BD10B520215E4829
:100DF00002F09FFE0A20FFF70DFA08215A4802F080
:100E000096FE0A20FFF706FA2021574802F08FFECF
:100E10000A20FFF7FFF92021534802F08AFE0A203A
:100E2000FFF7F8F910BD38B50121402003F03DF976
:100E30000820ADF8000003208DF8020004208DF892
:100E400003006946484802F0C5FD0A20FFF7E2F9B1
:100E50000024002518E06006040E2021424802F01C
:100E600068FE0A20FFF7D6F920213F4802F05FFE16
:100E70000A20FFF7CFF908213B4802F03EFE08B1F7
:100E800044F00104681CC5B2082DE4DB202136487B
:100E900002F04FFE0A20FFF7BDF90121402003F0C8
:100EA00004F90820ADF8000003208DF8020010209E
:100EB0008DF8030069462C4802F08CFD0A20FFF7EC
:100EC000A9F9FFF792FF204638BD70B50446FFF739
:100ED00037FF2046FFF7FFFEFFF7A5FF0546FFF7A8
:100EE0009DFE284670BD10B500247320FFF7EDFF6E
:100EF0000446FE2C03D101201C49087032E0FD2C71
:100F000003D10220194908702CE0FB2C03D10320E7
:100F10001649087026E0F72C03D104201349087005
:100F200020E0EF2C03D10520104908701AE0DF2CD7
:100F300003D106200D49087014E0BF2C03D107200F
:100F40000A4908700EE07F2C03D108200749087079
:100F500008E00748007820F00100054908700020EB
:100F60000249087010BD0000001801400300002075
:100F7000040000201CB50121084603F096F8012169
:100F8000202003F092F80121202003F08EF80121A7
:100F9000082003F08AF80121082003F086F80121D7
:100FA0004FF0C06003F08EF80120ADF80400482037
:100FB0008DF8070001A9FE4802F00CFD2020ADF8D5
:100FC000040048208DF8070001A9FA4802F002FD4C
:100FD0000220ADF8040018208DF8070003208DF8DA
:100FE000060001A9F24802F0F5FC4020ADF804002B
:100FF00018208DF8070003208DF8060001A9ED48A0
:1010000002F0E8FC01214FF4EB1002F0B4FD0121E5
:10101000E94802F0B0FDE94804F0E6FBE84804F0D6
:10102000E3FBE84804F004FD0020E6498871C8713C
:10103000087248728872C8728870C870022008717D
:101040000420487110200880DC4804F0E6FBDD49EC
:10105000DB4804F0E2FB0020DB498872C872012003
:1010600008730020088048808880C880088101209B
:101070004873084604F05BFC0E20D349887208468A
:1010800004F055FC01220221CC4804F04FFF01225C
:101090000221CB4804F04AFF00214FF0006002F02B
:1010A00002FC4FF4407002F0C7FB14208DF80000E2
:1010B00002208DF8010000208DF8020001208DF83B
:1010C0000300684602F0BDFB40208DF800000320BD
:1010D0008DF8010000208DF8020001208DF803003A
:1010E000684602F0AEFB1CBD2DE9F041B74A002175
:1010F000B24804F000FEB5484068B549884214D1B2
:10110000B248817BC07B01EB0020B2498885888D85
:1011100007F040F9064600224FF07F5307F059F8D8
:10112000044607F044F9AB498885A8484068AA49B5
:10113000884213D1A548007BA64981F8260091F882
:10114000260007F027F90646A44AA54B07F041F808
:10115000044607F02CF99F4981F826000020A14998
:1011600008609A484068486000204872042008726D
:10117000082088729548C07AC8729448017B9948C3
:1011800001739248417B974841739048817B954811
:1011900081738E48C17B9348C1738C48017C914810
:1011A00001748A48417C8F4841748848817C8D480D
:1011B00081740146824804F0A9FC844840688A4949
:1011C000884273D189480078C0F3800020B38849F1
:1011D0000879C11700EB1171091119B988208149EB
:1011E000C87244E082490879C11700EB11710122ED
:1011F000B2EB211F03D172207A49C87237E07C49D3
:101200000879C11700EB11710222B2EB211F2ED118
:101210007D207449C8722AE075490879C11700EB2E
:101220001171091129B97248007987306D49C87266
:101230001DE06F490879C11700EB11710122B2EB73
:10124000211F06D16A480079C0F183006549C87240
:101250000DE067490879C11700EB11710222B2EB6A
:10126000211F04D1624800795D305E49C87260492F
:10127000C878C11700EB1171091131B95C48C07809
:101280008730C1B25748817320E05949C878C117E7
:1012900000EB11710122B2EB211F08D15448C07834
:1012A000C0F18300C1B24F4881730FE029E050497B
:1012B000C878C11700EB11710222B2EB211F05D1D2
:1012C0004B48C0785D30C1B2464881730020454923
:1012D00008604848486000204872042008720820CE
:1012E000887200213F4801734173434801783D48AB
:1012F000C17300210174417481740146304804F0C7
:1013000005FC324840683249884279D1002035498D
:1013100008603A484860002048720420087208209B
:1013200088722C49C889C11700EB11610912A0EB22
:1013300001212C4AD1722749C889C11700EB1161DC
:101340000A0A28490A732349088AC11700EB116168
:101350000912A0EB0121CAB222494A731D49088A29
:10136000C11700EB11610A0A1E498A731949488A9C
:10137000C11700EB11610912A0EB0121CAB2194992
:10138000CA731449488AC11700EB11610A0A15494A
:101390000A741049888AC11700EB11610912A0EB89
:1013A0000121CAB20F494A740A49888AC11728E044
:1013B00000140140000C0140400020000064004087
:1013C00000680040340E0020400E0020640E002013
:1013D0000004F00C800000200003F00C9A99999909
:1013E0009999D93F780E002000F2FE1805000020E0
:1013F000A00E00200305F018000000200005F00CEE
:1014000041E000EB11610A0A52498A74524804F023
:101410007DFB00204F49086050484860002048721A
:1014200004200872082088724D49C88AC11700EB51
:1014300011610912A0EB0121464AD1724849C88ABC
:10144000C11700EB11610A0A42490A734449088B2B
:10145000C11700EB11610912A0EB0121CAB23D498D
:101460004A733F49088BC11700EB11610A0A3949D9
:101470008A7300213748C173017441748174014635
:10148000354804F043FB374840683749884258D113
:101490000020304908603548486000204872042028
:1014A0000872082088722E49488BC11700EB116121
:1014B0000912A0EB0121274AD1722949488BC11793
:1014C00000EB11610A0A23490A732549888BC11769
:1014D00000EB11610912A0EB0121CAB21D494A7348
:1014E0001F49888BC11700EB11610A0A19498A73D9
:1014F0001B49C88BC11700EB11610912A0EB012138
:10150000CAB21449CA731649C88BC11700EB1161DE
:101510000A0A10490A741249088CC11700EB1161BC
:101520000912A0EB0121CAB20A494A740C49088C7D
:10153000C11700EB11610A0A06498A74064804F0D3
:10154000E5FABDE8F08110B5094A0021024804F02F
:10155000D2FB10BD780E0020006800400006F00CA1
:1015600080000020640E00200003F00C0007F00C47
:101570008C0E002070B5002500248021FE4802F06A
:10158000BCFA08B9601CC4B26006040E4FF4807146
:10159000F94802F0B2FA08B9601CC4B26006040E41
:1015A0004FF40061F44802F0A8FA08B9601CC4B214
:1015B0006006040E4FF48051EF4802F09EFA08B91D
:1015C000601CC4B26006040E4FF40071EA4802F0D9
:1015D00094FA08B9601CC4B26006040E4FF480612E
:1015E000E54802F08AFA08B9601CC4B2204604EB50
:1015F000D0714910A4EB4101012901D1302535E01A
:101600002046E11704EB11710911A4EB0111042923
:1016100009D003DC49B102290FD108E0062908D01E
:101620000E290AD107E0002508E0012506E0022581
:1016300004E0032502E0042500E000BF00BF2046CF
:10164000E11704EB1171091101290BD0022905D012
:10165000032909D105F12000C5B206E005F110000B
:10166000C5B202E0EDB200E000BF00BF284670BD89
:1016700010B5C2480078C0F3001018B3BF48007816
:1016800020F01000BD490870FFF774FFBC49487096
:10169000084640780871B9480078C0F3C00088B99E
:1016A0004878C11700EB11710222B2EB211F0AD159
:1016B000B248007820F008000830B0490870EE20E9
:1016C000B049087002E0FF20AE490870AE480078CB
:1016D000C0F3400048B1AC48007820F00200AA49AD
:1016E0000870A8480078FEF788FE10BD10B5FFF717
:1016F00041FFA34948704FF480419F4802F0FDF933
:101700009F4988700846407830283DD19B48007832
:10171000C0F34010002862D19848007820F02000E3
:1017200020309649087008460078C0F3800098B9C8
:101730000846007820F00400001D08700846007874
:1017400020F00100401C087000208D4908720846F6
:1017500040788E49C87542E08848007820F004003F
:10176000864908700846007820F00100401C087087
:10177000002083490872084640788449C87580482B
:1017800040787F4988712AE07C48007820F020006A
:101790007A4908707A4840787949897988421ED018
:1017A0007748007A401C764908727448007820F027
:1017B0000400724908707248007A03280FDB08465B
:1017C000007820F00100401C087000206C4908726D
:1017D000084640788871084640786C49C875684862
:1017E00080786749C979884215D06548407A401C9D
:1017F000634948720846407A03280CDB5F4800784A
:1018000020F00200801C5D49087000205C4948728D
:1018100008468078C87110BD08B50121402002F04B
:1018200044FC4FF48070ADF8000003208DF80200F6
:1018300004208DF8030069464F4802F0CBF80121DF
:10184000402002F032FC8020ADF8000003208DF82B
:10185000020004208DF803006946474802F0BAF8F8
:101860000121402002F021FC4FF48060ADF800001F
:1018700003208DF8020004208DF8030069463E48DD
:1018800002F0A8F80121402002F00FFC4FF4007094
:10189000ADF8000003208DF8020004208DF803004D
:1018A0006946354802F096F80121402002F0FDFB20
:1018B0004FF48050ADF8000003208DF802000420A2
:1018C0008DF8030069462C4802F084F8012140207D
:1018D00002F0EBFB4FF40060ADF8000003208DF840
:1018E000020004208DF803006946234802F072F8D4
:1018F0000121042002F0D9FB0120ADF800000320F3
:101900008DF8020010208DF803006946204802F08F
:1019100061F80121042002F0C8FB0220ADF80000AC
:1019200003208DF8020010208DF803006946184846
:1019300002F050F80121042002F0B7FB0420ADF8BA
:10194000000003208DF8020010208DF80300694686
:101950000F4802F03FF80121042002F0A6FB082006
:10196000ADF8000003208DF8020010208DF8030070
:10197000694607480EE000000018014005000020FD
:10198000A00E0020000000204D000020EC0D0020E3
:101990000008014002F01EF80121042002F085FB3E
:1019A0004020ADF8000003208DF8020010208DF8D3
:1019B00003006946F84802F00DF80121F64802F0EC
:1019C000B8F80221F44802F0B2F80421F24802F01B
:1019D000AEF80821F04802F0AAF84021EE4802F0E3
:1019E000A6F80121402002F060FB4FF48040ADF8E2
:1019F000000003208DF8020004208DF803006946E2
:101A0000E64801F0E7FF0121042002F04EFB8020B0
:101A1000ADF8000003208DF8020010208DF80300BF
:101A20006946DD4801F0D6FF0121082002F03DFBA8
:101A30000120ADF8000003208DF8020010208DF881
:101A400003006946D64801F0C5FF8021D24802F064
:101A50006EF80121D24802F06AF80121082002F054
:101A600024FB0220ADF8000003208DF802001020B6
:101A70008DF803006946CA4801F0ACFF0221C8484E
:101A800002F055F808BD70B504460D46C54800780B
:101A9000C0F38000002872D0E11704EB1171091126
:101AA00091BB8021BC4802F042F80121BC4802F001
:101AB0003EF8A5B94021B84802F039F80821B648E7
:101AC00002F037F80421B44802F033F80221B2489A
:101AD00002F02FF80121B04802F02BF872E2402109
:101AE000AD4802F024F80821AB4802F022F80421A6
:101AF000A94802F01CF80221A74802F01AF80121B7
:101B0000A54802F016F85DE2FFE7E11704EB11715A
:101B10000122B2EB211F33D180219F4802F009F846
:101B200001219F4802F003F8A5B940219A4801F02D
:101B3000FEFF0821984801F0FCFF0421964801F0BF
:101B4000F8FF0221944801F0F4FF0121924801F0CE
:101B5000F0FF37E24021904801F0E9FF08218E486C
:101B600001F0E7FF04218C4801F0E1FF02218A48DF
:101B700001F0DFFF0121884801F0DBFF22E223E0D2
:101B8000E11704EB11710222B2EB211FA6D18021D3
:101B9000814801F0CCFF0121814801F0CAFF4021BA
:101BA0007D4801F0C4FF08217B4801F0C2FF0421F9
:101BB000794801F0BCFF0221774801F0BAFF01210A
:101BC000754801F0B6FFFDE1E11704EB1171091151
:101BD00000297DD18021704801F0A9FF01217048C2
:101BE00001F0A5FF2046E11704EB11710911A4EBE8
:101BF000011105296DD2DFE801F003184371860059
:101C00004021654801F093FF0821634801F08FFFF0
:101C10000421614801F08BFF02215F4801F087FF3A
:101C200001215D4801F085FF83E0A5B940215A48B4
:101C300001F07DFF0821584801F07BFF0421564840
:101C400001F077FF0221544801F073FF012152484F
:101C500001F06FFF13E040214F4801F068FF0821B9
:101C60004D4801F066FF04214B4801F060FF02215E
:101C7000494801F05EFF0121474801F05AFF58E052
:101C8000A5B94021444801F052FF0821424801F023
:101C900050FF0421404801F04CFF02213E4801F072
:101CA00046FF01213C4801F044FF16E040213A483C
:101CB00001F03DFF0821384801F03BFF0421364880
:101CC00001F035FF0221344801F031FF012101E02C
:101CD00030E02DE0304801F02CFF2AE040212E4872
:101CE00001F025FF08212C4801F021FF04212A489A
:101CF00001F01FFF0221284801F019FF01212648A9
:101D000001F017FF15E04021234801F010FF0821E2
:101D1000214801F00CFF04211F4801F008FF0221B7
:101D20001D4801F004FF01211B4801F002FF00E003
:101D300000BF47E1E11704EB11710122B2EB211F53
:101D400073D18021144801F0F4FE0121144801F000
:101D5000EEFE2046E11704EB11710911A4EB01110D
:101D6000052978D2DFE801F003204B788D0040216F
:101D7000094801F0DCFE0821074801F0D8FE0421E3
:101D8000054801F0D4FE0221034801F0D0FE0121F4
:101D9000014801F0CEFE8AE0000801400018014031
:101DA000000C014005000020A5B94021864801F043
:101DB000BEFE0821844801F0BCFE0421824801F0E7
:101DC000B8FE0221804801F0B4FE01217E4801F0F6
:101DD000B0FE13E040217C4801F0A9FE08217A48BA
:101DE00001F0A7FE0421784801F0A1FE0221764807
:101DF00001F09FFE0121744801F09BFE57E0ADB950
:101E00004021714801F093FE08216F4801F091FED6
:101E100004216D4801F08DFE02216B4801F087FE20
:101E20000121694801F085FE14E041E04021664847
:101E300001F07DFE0821644801F07BFE0421624828
:101E400001F075FE0221604801F071FE01215E483B
:101E500001F06FFE2BE029E040215B4801F067FEB6
:101E60000821594801F063FE0421574801F061FE42
:101E70000221554801F05BFE0121534801F059FE53
:101E800015E04021504801F052FE08214E4801F073
:101E90004EFE04214C4801F04CFE02214A4801F05C
:101EA00046FE0121484801F044FE00E000BF89E001
:101EB000E11704EB11710222B2EB211F7ED18021C8
:101EC000414801F034FE0121404801F032FE204635
:101ED000E11704EB11710911A4EB011105296FD26F
:101EE000DFE801F003182D4257004021364801F089
:101EF0001EFE0821344801F01AFE0421324801F088
:101F000016FE0221304801F012FE01212E4801F098
:101F100010FE56E040212C4801F009FE08212A4815
:101F200001F007FE0421284801F001FE02212648A5
:101F300001F0FFFD0121244801F0FBFD41E04021BB
:101F4000214801F0F4FD08211F4801F0F2FD0421B1
:101F50001D4801F0ECFD02211B4801F0E8FD0121C4
:101F6000194801F0E6FD2CE00121174801F0E1FDE0
:101F70000221154801F0DBFD0421134801F0D7FDD3
:101F80000821114801F0D3FD40210F4801F0CFFD99
:101F900017E001210C4801F0CCFD02210A4801F0B4
:101FA000C6FD0421084801F0C2FD0821064801F0E1
:101FB000BEFD4021044801F0BAFD02E002E0FFE767
:101FC00000BF00BF70BD000000080140000C0140D0
:101FD00038B504460D46FE4951F82410FD4A52F822
:101FE0002420114341F00100012102F05EF834B9D0
:101FF000F94951F82400012102F057F81BE0012CA7
:102000000AD10121082001F0B6FDF34951F824005E
:10201000012102F057F80EE0022C06D1EE4951F8EA
:102020002400012102F04EF805E0EB4951F82400AC
:10203000012102F047F818208DF80300E74830F836
:102040001400ADF8000003208DF80200E44951F8B7
:102050002400694601F0BEFC04208DF80300E1482D
:1020600030F81400ADF80000DF4951F8240069464B
:1020700001F0B0FCDD4951F82400294602F0BDF81A
:10208000DA4951F82400012102F043F938BD08B5BE
:102090000121202002F009F81020ADF800000320F3
:1020A0008DF8020010208DF803006946D04801F039
:1020B00091FC1021CE4801F03CFD0020CD498870F4
:1020C000CD4988704FF41650CC49086000208880B4
:1020D000C880088188810C2048810020FFF778FFA4
:1020E000012240F22551C64802F01FF9002240F2B9
:1020F0002771C34802F019F940F22661C04802F086
:1021000023FABE490120FFF763FF012240F2255167
:10211000BC4802F00AF9002240F22771B94802F0E7
:1021200004F940F22661B74802F00EFA08BD70B516
:1021300004460D462946204602F058F900BF4021CA
:10214000204602F0C1F90028F9D070BD70B50446F0
:102150000D461021A64801F0EAFC0A20FEF75AF8C5
:102160002946204602F042F900BF4021204602F0F5
:10217000ABF90028F9D010219D4801F0DAFC70BDC0
:1021800010B59F4802F036F9C4B29A48807858B921
:102190003A2C08D197488178C01C4454C01E8078DE
:1021A000401C94498870CBE09248807801282DD15A
:1021B00090488178C01C4454C01E8178C01C405C8B
:1021C00001280CD19048007820F00100401C8E4975
:1021D000087088488078401C86498870B0E085483F
:1021E0008178C01C405C02280CD18748007820F020
:1021F0000200801C844908707E488078401C7D491C
:1022000088709DE000207B49887099E0794880784B
:1022100002280FD177488178C01C4454C01E8178B1
:10222000C01C405C734981F8400008468078401C1F
:10223000887085E07448007800F0010078B36D483C
:102240008178C01C4454C01E8078401C6949887045
:102250000846817890F84000401D814220DB6548A7
:1022600090F84000001D6349C91C085C0A2817D17A
:10227000C81E90F84000C01C085C0D2810D16248B0
:10228000007820F0010060490870002059498870EA
:102290005D48007820F00400001D5B4908700CE0E8
:1022A000544880783C2808DB5748007820F001002B
:1022B0005549087000204F49887053480078C0F392
:1022C000400078B34B488178C01C4454C01E8078CD
:1022D000401C484988700846817890F84000401DAD
:1022E000814220DB434890F84000001D4149C91C51
:1022F000085C0A2817D1C81E90F84000C01C085C72
:102300000D2810D14048007820F002003E490870A6
:102310000020384988703C48007820F00400001DF7
:10232000394908700CE0334880783C2808DB36488F
:10233000007820F002003449087000202D49887090
:1023400010BDF0B58FB003460C46012111E05D5C75
:10235000402D06DD5D5C373DEEB24D1E0DF805608B
:1023600005E05D5C303DEEB24D1E0DF805604D1C84
:10237000E9B2651CA942EADB002200210AE04D0017
:102380006D1C1DF805601DF8115006EB05152A445B
:102390004D1CE9B204EBD476B1EB660FEFDBD2B2A1
:1023A000C2F58072D0B20FB0F0BD70B5154802F022
:1023B00021F8C6B21048807840BB3A2E2BD10020BD
:1023C0000D49087008468178C01C4654C01E1EE0A6
:1023D00030860008448600081C86000858860008DD
:1023E0002000002062860008340000200C0000203D
:1023F00000140140AC0E0020ED0E0020300F002034
:1024000000380140004400400A00002004E08078C9
:10241000401C484988708CE0464880783C287DDA2A
:1024200044488178C01C4654C01E8078401C4149F5
:1024300088700846C0783A287BD1084680780428FE
:1024400077DB08468078401EC91C085C0A2870D1DA
:10245000C81E8078801E085C0D286AD1C81E80784E
:10246000401FC1B23348C01CFFF76BFF054631481F
:102470008078001F2F49C91C085C3A280ADAC81E58
:102480008078001F085C302190FBF1F201FB120004
:10249000C4B20EE027488078001F2649C91C085C9A
:1024A000412190FBF1F201FB1200C4B204F10A00D9
:1024B000C4B22007040E1F488078C01E1D49C91CE5
:1024C000085C3A280BDAC81E8078C01E085C3021F0
:1024D00090FBF1F201FB12002044C4B20FE015485A
:1024E0008078C01E1349C91C085C412190FBF1F2A1
:1024F00001FB12002044C4B204F10A00C4B2A54298
:1025000006D10D48007820F00400001D0A4908702B
:102510000020084988700870084801E006E008E0DB
:10252000007820F002000549087002E0002001490F
:10253000887070BDED0E00200B0000200900002007
:1025400010B501214FF0C05001F0BCFD012003F097
:1025500054FF03F0E5FE012001F0A0FC00BF412084
:1025600001F0D0FB0028FAD04FF4807001F0B2FCEB
:10257000012001F0B5FC03F094FE03F089FE012177
:10258000084603F029FE03F083FE47F6FF7003F0D0
:1025900059FE03F07DFE10BD0146CA1701EB927291
:1025A0009210A1EB820292B9642091FBF0F200FB41
:1025B000121050B94FF4C87091FBF0F200FB1210EA
:1025C00008B9012070470020FCE70120FAE700204D
:1025D000F8E72DE9F05F06460F4690469946DDE99B
:1025E0000AAB0024B6F5FA6F03DB40F633008642EF
:1025F00002DD0120BDE8F09F40F2B2750AE02846F6
:10260000FFF7CAFF10B1AD48044401E0AC480444F0
:10261000681C85B2B542F2DB781EC7B2002510E017
:10262000A848405D40F2A321484304EBC014304663
:10263000FFF7B2FF18B1012D01D1A3480444681C73
:1026400085B2BD42ECDBA8F1010040F2A321484372
:1026500004EBC014C9EB4910C0EB092004EB0014D3
:10266000CAEB0A1004EB80045C44012003F0C5FEB1
:1026700003F00EFE204603F0D8FD03F009FE002013
:10268000B8E70EB5042003F080FE4AF2A551884257
:1026900012D0FFF755FF00202E2115230F22CDE980
:1026A0000010042140F2DE70FFF793FF4AF2A551BB
:1026B000042003F05EFE0EE07B2001F023FB10B946
:1026C0007A2001F01FFB03F0ECFD0121084603F026
:1026D00083FD03F0DDFD01214FF0C05001F0F2FC5D
:1026E000012003F08AFE002003F025FE802003F085
:1026F0002AFE01F024FD012003F008FE03F0C8FDCE
:1027000000214FF0006001F0CEF84FF4407001F06E
:1027100093F803208DF808000E208DF809000020A2
:102720008DF80A0001208DF80B0002A801F089F84D
:102730000EBDF0B503460C461546642093FBF0F041
:10274000C6B2642093FBF0F700FB1730C1B2132E22
:1027500002DD01F16400C1B20846CF1701EB9777A3
:1027600001EBA707BAB2072092FBF0F700FB172096
:1027700082B25719601EDFF854C11CF800003844BB
:1027800082B2CF1701EB9777BF10A1EB87071FB974
:10279000032C01DA501E82B2072092FBF0F700FBF7
:1027A0001720C0B2F0BD70B500260024002503F04C
:1027B00033FD06464448B6FBF0F445480088A04285
:1027C0003CD043490C8040F2B27510E02846FFF738
:1027D000E3FE40B1B4F5B77F02D3A4F5B77404E0CB
:1027E000681C85B206E0A4F26D14681C85B2B4F5CD
:1027F000B67FEBD800BF3748C580002516E03549C5
:10280000C888FFF7C9FE30B1012D04D11D2C01D3BA
:102810001D3C09E00CE02B48405DA04203D829484C
:10282000405D241A00E003E0681C85B21C2CE6D24F
:1028300000BF681C27490872601C48722248B6FB1A
:10284000F0F100FB11644FF46160B4FBF0F021493A
:1028500088704FF46160B4FBF0F100FB11403C2143
:10286000B0FBF1F01B49C8704FF46160B4FBF0F1AC
:1028700000FB11403C21B0FBF1F201FB12001549B5
:1028800008710B465A7A197AD888FFF752FF114916
:102890008872002070BD10B5012003F027FD58B1EB
:1028A000012003F033FD03F0F3FC0B48007820F027
:1028B0000100401C0849087010BD00000085E201BD
:1028C0008033E1016C8600088051010078860008A1
:1028D0004A000020400F00204800002000B593B0BF
:1028E0000120ADF8080000208DF80B0002A9BD48BA
:1028F00001F070F80121102001F0D7FB0220ADF8A3
:10290000080000208DF80B0002A9B64801F062F81B
:102910000121102001F0C9FB0420ADF808000020BF
:102920008DF80B0002A9AF4801F054F801211020E6
:1029300001F0BBFB0820ADF8080000208DF80B006B
:1029400002A9A84801F046F80121102001F0ADFBD2
:102950001020ADF8080000208DF80B0002A9A14856
:1029600001F038F80121102001F09FFB2020ADF884
:10297000080000208DF80B0002A99A4801F02AF8FF
:102980000121042001F091FB0121084601F080FBA8
:10299000954803F08DFD95480390954804900020DC
:1029A0000590B420069000200790802008904000F9
:1029B000099080000A9020200B9000020C900020CB
:1029C0000D9003A9884803F015FE012202218648D4
:1029D00003F047FE022003F086FE0121824803F047
:1029E00034FE00214FF0006000F05DFF4FF44070B6
:1029F00000F022FF0B208DF8040002208DF8050066
:102A000000208DF8060001208DF8070001A800F0D5
:102A100018FF0121480201F048FB00200E90012020
:102A20008DF83C008DF83D004FF4602010900020A0
:102A3000119006208DF848000EA96C484C3802F021
:102A4000D2FC052301220A2168484C3802F063FDBC
:102A5000052302220B2165484C3802F05CFD05235A
:102A600003220C2161484C3802F055FD0523042255
:102A70000D215E484C3802F04EFD05231A460E210A
:102A80005A484C3802F047FD052306220F215748CB
:102A90004C3802F040FD012154484C3802F0DAFC79
:102AA000012152484C3802F0CAFC50484C3802F020
:102AB000E8FC00BF4D484C3802F0E8FC0028F9D192
:102AC0004A484C3802F0ECFC00BF48484C3802F051
:102AD000ECFC0028F9D1012144484C3802F0EFFC0D
:102AE00013B000BD2DE9FF5F002438E0002532E07F
:102AF000681C86B22BE005EB45003D4901EB8000E8
:102B000030F8140006EB4601394A02EB810131F836
:102B10001410884219DD05EB4500114601EB8000D9
:102B200030F814A006EB460001EB800030F81400EA
:102B300005EB450102EB810121F8140006EB46008C
:102B4000114601EB800020F814A0701C86B21E2EE6
:102B5000D1DB681C85B21D2DCADB601C84B2062C3B
:102B6000C4DB00242DE04FF00009052509E005EB4A
:102B700045001F4901EB800030F814008144681CB7
:102B800085B2192DF3DB484605F004FC07464FF0EB
:102B90006632184B05F01DFB0022174BCDE90001F2
:102BA00005F089FBCDE9020105F02DFC83461349B0
:102BB000584605F029FA8346114840F824B0601CB5
:102BC00084B2062CCFDBBDE8FF9F10B50D4800781E
:102BD00020F00100401C0B490870022003F083FD27
:102BE00010BD000000100140080002404C240140CC
:102BF000680F002066660A400000B0400000A04157
:102C0000381200204C00002030B587B004460D4635
:102C10000121402001F049FA0420ADF80000032012
:102C20008DF8020010208DF803006946FE4800F080
:102C3000D1FE0121082001F038FA8020ADF8000013
:102C400004208DF8030003208DF802006946F74840
:102C500000F0C0FE0121082001F027FA4FF4807037
:102C6000ADF8000004208DF8030003208DF8020069
:102C70006946EE4800F0AEFE0121082001F015FA89
:102C80004FF40070ADF8000004208DF8030003201D
:102C90008DF802006946E54800F09CFE0121042001
:102CA00001F010FA4FF6FF70ADF814004720ADF8B0
:102CB00010000020ADF81600ADF8120004A9DC48A1
:102CC00001F030FD0420ADF804000020ADF806004E
:102CD0000120ADF808000020ADF80A00ADF80C00A6
:102CE00001A9D34801F0B1FF0820ADF8040000208D
:102CF000ADF806000120ADF808000020ADF80A008C
:102D0000ADF80C0001A9CA4801F09FFF0C20ADF8F6
:102D100004000020ADF806000120ADF808000020F6
:102D2000ADF80A00ADF80C0001A9C14801F08DFF13
:102D300001221D21BE4802F06CF81D21BC4802F0A2
:102D400027FB0121BA4802F049F80020B949087070
:102D50000120087481F8200081F8300007B030BDF0
:102D60002DE9F0410221B44802F001FB002842D0D5
:102D70000020B24948700846807838B9AE4802F061
:102D8000D7FAAE4988800120887030E0AA4802F066
:102D9000CFFAAA49C880002088700846C088898870
:102DA000884207DDA548C088A4498988401AA349FC
:102DB00088600CE0A14880884FF6FF71081A9F498F
:102DC000886008468068C98808449C4988609B4997
:102DD000886805F0DFFA064632460B46002098491F
:102DE00005F069FA044605F00EFB9449C86002211B
:102DF000914802F0CDFA04218F4802F0B8FA002879
:102E000040D000218D484174807C40B98A4802F04E
:102E100092FA8A4988820121884881742EE0864886
:102E200002F089FA8549C882002184488174C18AE8
:102E3000808A814206DD8148C18A808A091A7F48DA
:102E400081610BE07D48808A4FF6FF71091A7B484B
:102E500081618169C08A01447848816177498869C4
:102E600005F098FA064632460B460020744905F0F4
:102E700022FA044605F0C7FA7049C86104216E4879
:102E800002F086FA08216C4802F071FA002844D05A
:102E900000216A4880F8211090F8220048B966485D
:102EA00002F04CFA654988840121644880F82210B8
:102EB0002FE0614802F042FA6049C88400215F486F
:102EC00080F82210C18C808C814206DD5B48C18C69
:102ED000808C091A594881620BE05848808C4FF663
:102EE000FF71091A55488162816AC08C01445348B8
:102EF00081625249886A05F04DFA064632460B4611
:102F000000204F4905F0D7F9044605F07CFA4B49FB
:102F1000C8620821484802F03BFA1021464802F0F6
:102F200026FA002844D00021444880F8311090F857
:102F3000320048B9404802F004FA4049888601212D
:102F40003E4880F832102FE03B4802F0FAF93B4946
:102F5000C8860021394880F83210C18E808E8142A7
:102F600006DD3648C18E808E091A344881630BE035
:102F70003248808E4FF6FF71091A30488163816BA9
:102F8000C08E01442D4881632C49886B05F002FAFC
:102F9000064632460B460020294905F08CF90446C6
:102FA00005F031FA2549C8631021234802F0F0F9F1
:102FB0000121214802F0DBF918B101211E4802F07D
:102FC000E7F9BDE8F08110B50221194802F0CFF908
:102FD00050B10221164802F0DBF900201549487073
:102FE00008468068401C88600421114802F0BFF93F
:102FF00050B104210E4802F0CBF900210D48417474
:103000008069401C0B4988610821094802F0AFF92A
:10301000D0B10821064802F0BBF90021054880F82C
:103020002110806A401C0DE000180140000C014096
:1030300000080040E4120020002C0140A4120020EF
:1030400080842E410E49886210210E4802F08FF9CB
:1030500058B110210B4802F09BF90021084880F874
:103060003110806B401C064988630121054802F03D
:103070007EF918B10121034802F08AF910BD000061
:10308000E4120020000800400EB50121082001F0E4
:1030900019F86320ADF8040040F2CF20ADF800002D
:1030A0000020ADF80600ADF802006946E04801F0E6
:1030B00039FB0121DE4802F06BF901221146DC48A0
:1030C00001F0A7FE0121DA4801F088FE0EBD2DE9CE
:1030D000F041D8488088401CD6498880084600685E
:1030E000401C0860D4480078C0F3001090B1084636
:1030F000C088401CC8800846C08840F2DC51884225
:1031000008DB0020CB49C880CB48007820F01000B5
:10311000C9490870C949086C05F062F90646C84AF1
:10312000C84B04F0AFFF044605F06DF9C3490864CD
:10313000C048848804EBD4704010A4EB400020B158
:103140000421C14800F0F3FC03E00421BE4800F074
:10315000F0FCBE480078C0F3400098B1BC4800784D
:10316000C82805DABA480078401CB949087009E057
:103170000020B74988700870B448007820F0020039
:10318000B2490870B3480078C0F3400098B1B24823
:103190000078C82805DAB0480078401CAE490870AD
:1031A00009E00020AC4988700870AA48007820F037
:1031B0000200A84908709F4880880A2190FBF1F21C
:1031C00001FB1200E8B9A548007820F00400001DBA
:1031D000A2490870A249087800EBD0714910A0EB11
:1031E0004101012906D19F48007820F010001030DD
:1031F0009C4908709048007820F0080008308E49FB
:1032000008708C488088642190FBF1F201FB120069
:10321000E0B99248007820F00200801C8F490870C5
:103220008F49087800EBD0714910A0EB410131B90A
:103230008C48007820F0100010308A4908707E48D1
:10324000007820F00100401C7B4908707948808894
:10325000B0F57A7F7DDB8448007801280CD1824864
:103260004078032805DA80484078401C7E49487041
:1032700002E000207C49C8607B48007C01280DD119
:103280007948407C032806DA7748407C401CC1B26C
:103290007548417402E000217348C161724890F89A
:1032A0002000012810D1704890F82100032808DA86
:1032B0006D4890F82100401CC1B26B4880F8211085
:1032C00002E000216848C162674890F83000012898
:1032D00010D1654890F83100032808DA624890F868
:1032E0003100401CC1B2604880F8311002E000217A
:1032F0005D48C1635D48007801280CD15B48407887
:10330000032805DA59484078401C5849487002E0C3
:1033100000205649C8605548007C01280DD153480B
:10332000407C032806DA5148407C401CC1B24F481B
:10333000417402E000214D48C1614C4890F82000E2
:10334000012812D1494890F8210003280ADA474899
:1033500000E05DE090F82100401CC1B2434880F8D5
:10336000211002E000214148C162404890F830003D
:10337000012810D13D4890F83100032808DA3B4875
:1033800090F83100401CC1B2384880F8311002E09A
:1033900000213648C1630020264988800846007A0B
:1033A000401C087232480078002804DD304800785C
:1033B000401E2F4908702048007820F00200801C31
:1033C0001D4908700846007820F020002030087061
:1033D0002248007820F00100401C20490870154860
:1033E000007A3C2814DB0020124908721248007849
:1033F00020F00400001D104908700E48407A401C5F
:103400000C4948720846407A3C2801DB002048728B
:10341000BDE8F08110B50121054801F0A8FF28B1F1
:103420000121034801F0B4FFFFF751FE10BD000079
:10343000000C0040241300204D000020EC0D002063
:10344000FCA9F1D24D62503F001801400800002055
:10345000AC0E002009000020ED0E0020020000202C
:10346000A00E002005000020A4120020E41200207D
:103470008000002008B500214FF0006000F013FA32
:103480004FF4407000F0D8F925208DF8000000209E
:103490008DF801008DF8020001208DF803006846C8
:1034A00000F0CFF926208DF8000001208DF80100F2
:1034B00000208DF8020001208DF80300684600F01E
:1034C000C0F932208DF800000F208DF80100002097
:1034D0008DF8020001208DF80300684600F0B1F974
:1034E0001E208DF8000005208DF8010000208DF8C9
:1034F000020001208DF80300684600F0A2F908BD23
:1035000010B540F22551204800F0F4FF30B140F2F0
:1035100025511D4801F018F8FEF732FE40F22771E0
:10352000194800F0E7FF20B140F22771164801F07A
:103530000BF80821144800F0C7FF10B1124800F042
:1035400059FF10BD10B540F22551104800F0D2FFD0
:1035500030B140F225510D4800F0F6FFFEF725FF8F
:1035600040F22771094800F0C5FF20B140F22771F1
:10357000064800F0E9FF0821044800F0A5FF10B15B
:10358000024800F037FF10BD003801400044004001
:103590000CB50020019000909248006840F4803003
:1035A0009049086000BF8F48006800F40030009028
:1035B0000198401C0190009818B90198B0F5A06FCF
:1035C000F1D18848006800F4003010B1012000906B
:1035D00001E000200090009801285CD1824800683A
:1035E00040F01000804908600846006820F00300A1
:1035F00008600846006840F00200086079484068AA
:10360000784948600846406848600846406840F489
:10361000806048600846C06A744908407149C862C1
:103620000846C06A724908436E49C8620846006885
:1036300040F08060086000BF6A48006800F00060E9
:103640000028F9D06748406820F47C10654948603C
:103650000846406840F4E81048600846006840F0BA
:103660008070086000BF5F48006800F000700028AC
:10367000F9D05C48406820F003005A494860084689
:10368000406840F00200486000BF5648406800F0C3
:103690000C000828F9D10CBD10B5FFF779FF10BD5B
:1036A00010B55048006840F001004E4908600846D7
:1036B0004068504908404B494860084600684E49F8
:1036C0000840484908600846006820F480200860E7
:1036D0000846406820F4FE0048600846006820F074
:1036E000A05008604FF47F0088600020C862FFF798
:1036F000D3FF4FF000604149086010BDF0B50021D4
:10370000002000230024002200250026354F7F687A
:1037100007F00C0121B1042908D008294BD10BE096
:10372000374FDFF8E0C0CCF800704AE0364FDFF8E2
:10373000D4C0CCF8007044E02A4F7F6807F47010C2
:10374000284F7F6807F48033800C0D2801D0801C3F
:1037500000E0062033B92D4F4743DFF8A8C0CCF86E
:10376000007027E01F4FFF6A07F480341D4FFF6A87
:1037700007F00F077A1C44B9234FB7FBF2F7474312
:10378000DFF880C0CCF8007014E0164FFF6AC7F372
:1037900003177D1C134FFF6AC7F30327BE1C1A4F84
:1037A000B7FBF5F77743B7FBF2F74743DFF854C0B1
:1037B000CCF8007005E0124FDFF848C0CCF800707C
:1037C00000BF00BF074F7F68C7F30317DFF840C093
:1037D0001CF807100B4F3F68CF40DFF828C0CCF82B
:1037E0000070F0BD001002400020024000F0FEFF1B
:1037F000440601000000FFF0FFFFF6FE08ED00E0C8
:1038000000127A005000002040787D0100093D0040
:10381000540000200648804706480047FEE7FEE7C0
:10382000FEE7FEE7FEE7FEE7FEE7FEE7FEE7FEE770
:10383000A13600085101000831490143314A1160A5
:10384000704770B5002100230F22C47804B32D4CBB
:10385000246804F4E064C4F5E064210AC1F10403BF
:10386000CA40447804FA03F18478144021430901E2
:10387000254C0678A155047804F01F050124AC40BE
:1038800005786D11AD0005F1E025C5F8004109E0AE
:10389000047804F01F050124AC401C4D0678761115
:1038A00045F8264070BD1A4A0A400243154B1B1FBB
:1038B0001A60704739B1134A121D12680243114B46
:1038C0001B1D1A6006E00F4A121D126882430D4B41
:1038D0001B1D1A607047042808D14FF0E0210969C8
:1038E00041F004014FF0E022116107E04FF0E021C8
:1038F000096921F004014FF0E022116170470000D6
:103900000000FA050CED00E000E400E080E100E0DA
:1039100080FFFF1F10B50446CC48844208D1012126
:10392000042000F0E9FB0021042000F0E5FB46E064
:10393000C748844208D10121082000F0DDFB0021A6
:10394000082000F0D9FB3AE0C248844208D10121A6
:10395000102000F0D1FB0021102000F0CDFB2EE064
:10396000BD48844208D10121202000F0C5FB002180
:10397000202000F0C1FB22E0B848844208D1012198
:10398000402000F0B9FB0021402000F0B5FB16E01C
:10399000B348844208D10121802000F0ADFB002112
:1039A000802000F0A9FB0AE0AE48844207D1012143
:1039B000801500F0A1FB0021A01500F09DFB10BDBB
:1039C00010B50121084600F097FB0021012000F00E
:1039D00093FB10BD2DE9F041024600250026002092
:1039E00000230024002791F803C00CF00F0591F884
:1039F00003C00CF0100CBCF1000F03D091F802C012
:103A00004CEA050591F800C0BCF1000F31D01468F4
:103A100000202BE04FF0010C0CFA00F3B1F800C0CD
:103A20000CEA03069E4220D183004FF00F0C0CFAE3
:103A300003F7BC4305FA03FC4CEA040491F803C005
:103A4000BCF1280F06D14FF0010C0CFA00FCC2F8B3
:103A500014C00AE091F803C0BCF1480F05D14FF043
:103A6000010C0CFA00FCC2F810C0401C0828D1D38D
:103A70001460B1F800C0BCF1FF0F34DD54680020C1
:103A80002EE000F1080C4FF0010808FA0CF3B1F831
:103A900000C00CEA03069E4221D183004FF00F0CB8
:103AA0000CFA03F7BC4305FA03FC4CEA040491F852
:103AB00003C0BCF1280F05D100F1080C08FA0CF87E
:103AC000C2F8148091F803C0BCF1480F07D100F18F
:103AD000080C4FF0010808FA0CF8C2F81080401CDE
:103AE0000828CED35460BDE8F0814FF6FF71018005
:103AF000022181700421C170704702460020936842
:103B00000B400BB1012000E000207047014688689F
:103B100080B2704702460020D3680B400BB10120F1
:103B200000E0002070470146C86880B2704701611C
:103B30007047416170470AB1016100E0416170471F
:103B4000C16070474FF480320A43826181618261B3
:103B500082698269704702460020434B18684FF61D
:103B60008073184040EA021008433F4B18607047CA
:103B70003E49C8617047F0B50A4600230024002181
:103B8000002500F00046B6F1004F02D1364EF16933
:103B900001E0354E7168C0F3034583B200F440166E
:103BA000B6F5401F08D121F070612F4E766826F0DF
:103BB00070662D4F7E6012E000F48016B6F5801F0F
:103BC00006D1032606FA05F4A14341F0706106E030
:103BD000460D360103FA06F6B14341F0706122B199
:103BE000460D360103FA06F6314300F00046B6F101
:103BF000004F02D11C4EF16101E01B4E7160F0BD1F
:103C000030B500228B071C0F0F2303FA04F2164B6A
:103C100008338C1053F824309343134C08348D1020
:103C200044F8253023468C1053F824308C07240F99
:103C300000FA04F423430C4C08348D1044F825306A
:103C400030BD0A49DC3108607047000000080140BF
:103C5000000C014000100140001401400018014018
:103C6000001C0140002001400000014000002042F3
:103C7000FB48006840F00100F949086008464068C8
:103C8000F8490840F649486008460068F649084087
:103C9000F34908600846006820F480200860084660
:103CA000406820F4FE0048600846006820F0A050FC
:103CB00008604FF47F0088600020C8627047E849C0
:103CC000096821F48031E64A11601146096821F43F
:103CD00080211160B0F5803F03D0B0F5802F0ED168
:103CE00006E0DF49096841F48031DD4A116007E0F0
:103CF000DB49096841F4A021D94A116000E000BF06
:103D000000BF704710B501460022002300204A1171
:103D1000012A02D1D24C236806E0022A02D1D04CFB
:103D2000236A01E0CE4C636A01F01F020124944033
:103D30001C400CB1012000E0002010BD38B500206F
:103D400000900024002500BF3120FFF7DBFF05466F
:103D50000098401C00900098B0F5A06F01D0002D95
:103D6000F2D03120FFF7CEFF08B1012400E000249B
:103D7000204638BD01460020B94A106820F0F800FE
:103D800040EAC10010607047B849086070470246B9
:103D90000020B34B586820F4741042EA0103184322
:103DA000AF4B58607047B149086670470246002023
:103DB000AB4BD86AAE4B184042EA01031843A84BFC
:103DC000D862704701460020A54AD06A20F0F00072
:103DD0000843D062704701460020A14AD06A20F40F
:103DE00070600843D0627047A049886670470146FA
:103DF00000209B4AD06A20F470400843D06270478C
:103E00009A490867704701460020954A506820F09B
:103E100003000843506070479148406800F00C0070
:103E20007047014600208E4A506820F0F000084399
:103E30005060704701460020894A506820F4E060D5
:103E400008435060704701460020854A506820F4BE
:103E5000605040EAC1005060704729B1804A527AF0
:103E600002437F4B5A7204E07D4A527A82437C4B74
:103E70005A7270477D49D83108607047014600206A
:103E8000774A506820F440400843506070477949B1
:103E9000086070477749091D086070470021704A23
:103EA000203211706E4A82F82010012802D00428B6
:103EB0000AD104E001216A4A2032117005E005218F
:103EC000674A2032117000E000BF00BF70476A49A6
:103ED000086070476249096A0143614A116270478C
:103EE00065494439086070472DE9F04100210022FE
:103EF000002500230026002400278C46DFF860817F
:103F0000D8F8048008F00C0121B1042907D0082951
:103F100059D109E0DFF86481C0F8008058E0DFF88B
:103F20006081C0F8008053E0DFF83481D8F8048065
:103F300008F47012DFF82881D8F8048008F480357E
:103F4000920C0D2A01D0921C00E0062235B9DFF850
:103F5000348102FB08F8C0F8008033E0DFF800810C
:103F6000D8F82C8008F48036DFF8F480D8F82C805C
:103F700008F00F0808F1010446B9DFF80481B8FB26
:103F8000F4F808FB02F8C0F800801BE0DFF8D080EE
:103F9000D8F82C80C8F3031808F10107DFF8C080B7
:103FA000D8F82C80C8F3032808F1020CDFF8D08081
:103FB000B8FBF7F808FB0CF8B8FBF4F808FB02F8BC
:103FC000C0F8008004E0DFF8B480C0F8008000BFD3
:103FD00000BFDFF88C80D8F8048008F0F0010909F0
:103FE000DFF8A48018F80130D0F8008028FA03F830
:103FF000C0F80480DFF86880D8F8048008F4E06135
:10400000090ADFF8848018F80130D0F8048028FA13
:1040100003F8C0F80880DFF84880D8F8048008F476
:104020006051C90ADFF8608018F80130D0F80480C8
:1040300028FA03F8C0F80C80DFF82480D8F8048050
:1040400008F44041890BDFF8448018F80130D0F8BB
:104050000C80B8FBF3F8C0F81080BDE8F0810000D8
:10406000001002400000FFF0FFFFF6FE0000424299
:10407000F0FFFEFFC40542428004424200127A0073
:1040800040787D0100093D0064000020740000209C
:1040900029B1354A52690243334B5A6104E0324A2E
:1040A00052698243304B5A61704729B12E4A926956
:1040B00002432D4B9A6104E02B4A926982432A4BBA
:1040C0009A61704729B1284AD2690243264BDA61C6
:1040D00004E0254AD2698243234BDA61704729B153
:1040E000214A926A0243204B9A6204E01E4A926A75
:1040F00082431D4B9A62704729B11B4AD268024322
:10410000194BDA6004E0184AD2688243164BDA6031
:10411000704729B1144A12690243134B1A6104E033
:10412000114A12698243104B1A6170470F490860A7
:1041300070470F49C86470470B49C87170470A48F7
:10414000406A40F08070084948627047014600208C
:10415000054A92680A400AB1012000E00020704739
:10416000014988727047000000100240400442423A
:104170000000424210B50446FB48844209D10121A7
:104180008803FFF7B9FF00214FF48040FFF7B4FF29
:1041900032E0F648844209D101214804FFF7B9FF13
:1041A00000214FF40030FFF7B4FF25E0F0488442CF
:1041B00009D101218804FFF7ACFF00214FF48020D2
:1041C000FFF7A7FF18E0EB48844209D10121C8049A
:1041D000FFF79FFF00214FF40020FFF79AFF0BE04D
:1041E000E548844208D101210805FFF792FF00212C
:1041F0004FF48010FFF78DFF10BD2DE9F04786B01A
:1042000005460E460024A24600BFA1460027B089FD
:1042100000B100BF2F462C8A4CF6FF700440F08896
:1042200004432C82AC894EF6F3100440B0883189E7
:104230000843718908430443AC81AC8A4FF6FF40C0
:104240000440B0890443AC8201A8FFF74DFEC64884
:10425000874202D1DDF810A001E0DDF80CA0A889AA
:1042600000F4004040B10AEBCA0000EB0A103168CC
:104270004900B0FBF1F807E00AEBCA0000EB0A10B6
:1042800031688900B0FBF1F86420B8FBF0F004015C
:104290002009642101FB1089A88900F4004040B185
:1042A000322000EBC900B0FBF1F000F0070004433E
:1042B00008E0322000EB09106421B0FBF1F000F0BF
:1042C0000F0004432C8106B0BDE8F0874FF416516F
:1042D000016000218180C18001810C214181002188
:1042E0008181704710B502460020108A4FF2FF030B
:1042F00018400B884C8823438C882343CC88234365
:104300001843108210BD0021018041808180C1804E
:10431000704721B1828942F40052828104E082898F
:104320004DF6FF731A4082817047F0B503460024B2
:1043300000260025002040F66A17B94200D100BFD0
:104340001846C1F3421401F01F06012707FA06F5CB
:10435000012C01D10C3004E0022C01D1103000E01E
:1043600014301AB107682F43076002E00768AF43B3
:104370000760F0BD1AB1838A0B43838202E0838A0F
:104380008B4383827047028A4FF6F0731A40028291
:10439000028A0A430282704782894FF2FF731A40F1
:1043A000828182890A438281704721B1828942F0E9
:1043B0000202828104E082894FF6FD731A408281F5
:1043C0007047028A4FF6DF731A400282028A0A435C
:1043D0000282704721B1028A42F48042028204E0E4
:1043E000028A4BF6FF731A4002827047C1F308023B
:1043F0008280704701468888C0F308007047818931
:1044000041F0010181817047028BD2B20283028B9D
:1044100042EA012202837047028B02F47F42028348
:10442000028B0A430283704721B1828A42F0200244
:10443000828204E0828A4FF6DF731A4082827047DC
:1044400021B1828A42F01002828204E0828A4FF611
:10445000EF731A408282704721B1828A42F00802CB
:10446000828204E0828A4FF6F7731A408282704794
:1044700021B1828942F40042828103E08289C2F341
:104480000E028281704721B1828A42F400628282E8
:1044900004E0828A4FF2FF731A4082827047828A58
:1044A0004FF6FB731A408282828A0A4382827047E7
:1044B00021B1828A42F00202828204E0828A4FF6AF
:1044C000FD731A408282704702460020B1F5007FDA
:1044D00000D100BF13880B400BB1012000E0002089
:1044E000704701F40072B2F5007F00D100BFCA43EB
:1044F0000280704770B5024600240023002500208A
:1045000040F66A16B14200D100BFC1F3421501F076
:104510001F03012606FA03F3012D02D196893340C9
:1045200006E0022D02D1168A334001E0968A33401C
:104530000C12012606FA04F41688344013B10CB1AB
:10454000012000E0002070BD10B50022002340F6DD
:104550006A14A14200D100BF0A1201249440A3B200
:10456000DC43048010BD00000038014000440040DE
:1045700000480040004C00400050004010B5044688
:10458000FE48844208D10121C014FFF7B5FD002187
:10459000E014FFF7B1FDC4E0B4F1804F08D1012170
:1045A0000846FFF7B6FD00210120FFF7B2FDB8E095
:1045B000F348844208D101210220FFF7AAFD00211F
:1045C0000220FFF7A6FDACE0EE48844208D10121AD
:1045D0000420FFF79EFD00210420FFF79AFDA0E0D4
:1045E000E948844208D101210820FFF792FD00210B
:1045F0000820FFF78EFD94E0E448844208D10121B1
:104600001020FFF786FD00211020FFF782FD88E0D3
:10461000DF48844208D101212020FFF77AFD0021E4
:104620002020FFF776FD7CE0DA48844208D10121A2
:104630004014FFF761FD00216014FFF75DFD70E09D
:10464000D548844209D10121C804FFF755FD002156
:104650004FF40020FFF750FD63E0D048844209D1B9
:1046600001210805FFF748FD00214FF48010FFF7F6
:1046700043FD56E0CA48844209D101214805FFF7AD
:104680003BFD00214FF40010FFF736FD49E0C5481F
:10469000844208D101214020FFF73BFD002140204A
:1046A000FFF737FD3DE0C048844208D1012180205A
:1046B000FFF72FFD00218020FFF72BFD31E0BB48E5
:1046C000844208D101218015FFF723FD0021A015A8
:1046D000FFF71FFD25E0B648844209D101210804F7
:1046E000FFF70AFD00214FF48030FFF705FD18E0C9
:1046F000B048844209D101214804FFF7FDFC0021A4
:104700004FF40030FFF7F8FC0BE0AB48844208D1CF
:1047100001218804FFF7F0FC00214FF48020FFF70F
:10472000EBFC10BD00220288944B98420ED0994BAE
:1047300098420BD0B0F1804F08D0914B984205D0F1
:10474000904B984202D0904B984204D14FF68F7311
:104750001A404B881A438D4B984207D08C4B984295
:1047600004D04FF6FF431A40CB881A4302808B884F
:1047700083850B880385814B98420BD0854B9842EB
:1047800008D08B4B984205D08A4B984202D08A4B76
:10479000984201D10B7A038601238382704770B55A
:1047A000002400220023058C4FF6FE763540058458
:1047B000028C8388048B4FF68F752C40B51E2C40DD
:1047C0000D882C43751E2A400D892A434D882A43A3
:1047D0006A4DA8420BD06F4DA84208D0744DA84234
:1047E00005D0744DA84202D0734DA84213D14FF6A4
:1047F000F7752A404D892A434FF6FB752A408D886C
:104800002A434FF6FF652B404FF6FF552B408D890D
:104810002B43CD892B4383800483CD8885860284F6
:1048200070BD70B5002400220023058C4FF6EF7692
:1048300035400584028C8388048B48F6FF752C4034
:104840004FF6FF452C400D884FF6FF7606EA05250A
:104850002C434FF6DF752A400D8906EA05152A43D9
:104860004D8806EA05152A43444DA84202D0494D19
:10487000A8421DD14FF67F752A404D894FF6FF762D
:1048800006EA05152A434FF6BF752A408D8806EAC9
:1048900005152A434FF6FF352B404FF2FF752B408D
:1048A0008D8906EA85052B43CD8906EA85052B43CC
:1048B00083800483CD880587028470BD70B5002491
:1048C00000220023058C4FF6FF6635400584028CDC
:1048D0008388848B4FF68F752C404FF6FC752C40E7
:1048E0000D882C434FF6FF552A400D894FF6FF7671
:1048F00006EA05252A434D8806EA05252A431F4D69
:10490000A84202D0234DA8421DD14FF2FF752A4084
:104910004D894FF6FF7606EA05252A434FF6FF3507
:104920002A408D8806EA05252A434EF6FF752B405E
:104930004DF6FF752B408D8906EA05152B43CD8971
:1049400006EA05152B4383808483CD8885870284FE
:1049500070BD70B5002200230024058C4EF6FF7652
:1049600035400584038C8488828B48F6FF752A4085
:104970004FF6FF452A400D8820E00000002C014042
:104980000004004000080040000C004000100040FF
:104990000014004000340140004C01400050014030
:1049A0000054014000180040001C0040002000405E
:1049B0000040014000440140004801404FF6FF76AE
:1049C00006EA05252A434DF6FF752B400D8906EAB8
:1049D00005352B434D8806EA05352B43FA4DA84291
:1049E00002D0FA4DA84208D14BF6FF752C408D89B4
:1049F0004FF6FF7606EA85152C4384808283CD88A6
:104A0000A0F84050038470BD828B4FF2FF331A40F0
:104A10008283828B4FF6FF7303EA01231A4382835A
:104A20007047F0B50C461546002200210026078C81
:104A30004EF6FF7C07EA0C070784828B018C4FF649
:104A4000FF7707EA043640F6FF473A404FF6FF7714
:104A500007EA05273A434FF6FF7707EA03373A4359
:104A6000D94FB8420ED0D94FB8420BD0B0F1804FD9
:104A700008D0D74FB84205D0D64FB84202D0D64F53
:104A8000B84206D14DF6FF77394046F48057394396
:104A900005E047F6FF57394044F480573943828395
:104AA0000184F0BD828B4FF6F3731A408283828BB0
:104AB0000A4382837047F0B50C4615460022002158
:104AC0000026078C4FF6FF6C07EA0C070784828BE1
:104AD000018C4FF6FF7707EA04264FF60C773A4031
:104AE0004FF6FF7707EA03172F433A43B64FB84212
:104AF0000ED0B64FB8420BD0B0F1804F08D0B44FB3
:104B0000B84205D0B34FB84202D0B34FB84206D135
:104B10004FF6FF57394046F48077394305E04FF2AE
:104B2000FF57394044F48077394382830184F0BDD4
:104B3000028B4FF2FF331A400283028B4FF6FF7352
:104B400003EA01231A4302837047F0B50C46154669
:104B5000002200210026078C4FF6EF7C07EA0C07A5
:104B60000784028B018C4FF6FF7707EA041640F6A4
:104B7000FF473A404FF6FF7707EA03373A434FF6CD
:104B8000FF7707EA05273A438F4FB8420ED08F4F81
:104B9000B8420BD0B0F1804F08D08D4FB84205D04D
:104BA0008C4FB84202D08C4FB84206D14FF6DF7717
:104BB000394046F01007394305E04FF65F7739403A
:104BC00044F01007394302830184F0BD028B4FF695
:104BD000F3731A400283028B0A4302837047F0B5D5
:104BE0000C46154600220021068C4FF6FE773E400B
:104BF0000684028B018C4FF60C7632407E1C06EA4E
:104C000003162E433243704EB0420ED06F4EB04268
:104C10000BD0B0F1804F08D06D4EB04205D06D4E34
:104C2000B04202D06C4EB04206D14FF6FD76314014
:104C300044F00106314305E04FF6F576314044F08B
:104C40000106314302830184F0BD70B505460C4670
:104C50005D4885420ED05D4885420BD0B5F1804F4E
:104C600008D05B48854205D05A48854202D05A4850
:104C7000854200D100E000BF208850B92389A28876
:104C800061882846FFF7ABFFE1882846FFF79EFFC3
:104C900025E0208804280AD12389A2886188284633
:104CA000FFF753FFE1882846FFF742FF17E020880F
:104CB00008280AD12389A28861882846FFF7FBFECD
:104CC000E1882846FFF7EEFE09E02389A288618883
:104CD0002846FFF7A6FEE1882846FFF795FE70BD3F
:104CE0002DE9F04105460C4600260127608808B9E9
:104CF000022600E00026A088012801D1022700E05A
:104D000001272088A0B92389A28861882846FFF757
:104D100066FFE1882846FFF759FF23893A46314666
:104D20002846FFF712FFE1882846FFF701FF13E04E
:104D30002389A28861882846FFF707FFE188284673
:104D4000FFF7F6FE23893A4631462846FFF747FF2C
:104D5000E1882846FFF73AFFBDE8F0810A884B88D2
:104D60001A438B881A43CB881A430B891A434B8901
:104D70001A438B891A43A0F8442070474FF6FF71FD
:104D8000818000210180C180418001727047002133
:104D9000018041808180C180018141818181C18107
:104DA0007047002101804180012181800021C18064
:104DB000018170470021018041808180C180018193
:104DC0004181818170470000002C01400034014086
:104DD0000004004000080040000C004021B102889F
:104DE00042F00102028004E002884FF6FE731A408E
:104DF0000280704731B1B0F8442042F40042A0F87C
:104E0000442005E0B0F84420C2F30E02A0F844208C
:104E100070471AB183890B43838102E083898B43F6
:104E2000838170478182704741EA0203A0F84830CD
:104E300070471AB183890B43838102E083898B43D6
:104E40008381704701894FF6F872114001817047E4
:104E50000A46002101894FF68F73194011430181E1
:104E6000704730B504460D4629462046FFF7F0FF4F
:104E7000208940F00700208130BD2DE9F041044633
:104E80000D4616461F46602D06D13B46012231468F
:104E90002046FFF75AFE05E03B46012231462046F8
:104EA000FFF79DFE29462046FFF7D2FF208940F0FC
:104EB00007002081BDE8F08130B50C460021018952
:104EC000C9B24FF6FF7505EA03251543254329436B
:104ED000018130BD2DE9F04105460E461746984642
:104EE000002443463A4631462846FFF7E5FF2C8921
:104EF0004FF6F870044044F007044FF68F700440FA
:104F000044F070042C81BDE8F081F0B504460D46F4
:104F100016461F463B46324629462046FFF7CCFF41
:104F2000208940F480402081F0BD01858282704755
:104F30000A46002101884FF68F7319401143018002
:104F40007047F0B50C4615461E460021002200238E
:104F50000189028B038C4FF6F877394021434FF6D5
:104F6000FC473A4040F201173A434FF6DD773B40A9
:104F70004FF6FF7707EA06172F433B430181028371
:104F80000384F0BD0A460021018B4FF68F73194050
:104F90001143018370470A460021018B48F6FF73D5
:104FA00019404FF6FF7303EA022319430183704748
:104FB0000A460021818B4FF68F731940114381837C
:104FC00070470A460021818B48F6FF7319404FF65F
:104FD000FF7303EA022319438183704721B10288DA
:104FE00042F08002028004E002884FF67F731A408C
:104FF0000280704721B1828842F00402828004E07E
:1050000082884FF6FB731A408280704721B18288F4
:1050100042F00802828004E082884FF6F7731A405B
:105020008280704721B1828842F00102828004E0D0
:1050300082884FF6FE731A40828070470A4600212C
:10504000018B4FF6F77319401143018370470A46ED
:105050000021018B4FF2FF7319404FF6FF7303EAF3
:1050600002231943018370470A460021818B4FF6C2
:10507000F77319401143818370470A460021818BE1
:105080004FF2FF7319404FF6FF7303EA02231943EF
:10509000818370470A460021018B4FF6FB7319404C
:1050A0001143018370470A460021018B4FF6FF33FD
:1050B00019404FF6FF7303EA022319430183704737
:1050C0000A460021818B4FF6FB73194011438183FF
:1050D00070470A460021818B4FF6FF3319404FF687
:1050E000FF7303EA02231943818370470A460021B4
:1050F000018B4FF67F7319401143018370470A46B5
:105100000021018BC1F30E014FF6FF7303EA022366
:105110001943018370470A460021818B4FF67F7344
:1051200019401143818370470A460021818BC1F3E6
:105130000E014FF6FF7303EA022319438183704780
:105140000A460021018C4FF6FD731940114301847A
:1051500070470A460021018C4FF6F773194011433E
:10516000018470470A460021018C4FF6DF73194015
:105170004FF6FF7303EA02131943018470470A468E
:105180000021018C4FF67F7319404FF6FF7303EA3D
:1051900002131943018470470A460021018C4FF61F
:1051A000FF5319404FF6FF7303EA022319430184AA
:1051B00070470A460021018C4FF2FF7319404FF6E9
:1051C000FF7303EA02231943018470470A46002152
:1051D000018C4DF6FF7319404FF6FF7303EA02335B
:1051E00019430184704730B5002301248C40A3B2D9
:1051F000048C9C430484048C02FA01F5ADB22C4368
:10520000048430BD30B5002304248C40A3B2048C48
:105210009C430484048C02FA01F5ADB22C4304844F
:1052200030BD70B503460020002418461830012513
:105230008D40ACB21D8CA5431D8409B1082909D14C
:1052400000EB6100056825F07005056005681543F1
:1052500005600EE00D1FC5F34E052844056825F4D2
:10526000E045056005684FF6FF7606EA02263543FD
:10527000056070BD21B1028842F00202028004E0A4
:1052800002884FF6FD731A400280704721B10288F0
:1052900042F00402028004E002884FF6FB731A40D9
:1052A0000280704721B1828842F08002828004E04F
:1052B00082884FF67F731A408280704702884FF6CB
:1052C000F7731A40028002880A430280704782887E
:1052D0004FF68F731A40828082880A43828070471B
:1052E00002894FF6F8731A40028102890A4302814B
:1052F000704702894FF67F731A40028102890A4380
:10530000028170478184704781857047818670472C
:105310000187704781877047A0F840107047028866
:105320004FF6FF431A40028002880A43028070470A
:105330000146888E70470146088F70470146888F66
:1053400070470146B1F8400070470146888C7047AD
:105350000146088D704702460020138A0B400BB1AE
:10536000012000E000207047CA430282704730B538
:105370000246002000230024158A05EA01039589CE
:1053800005EA010413B10CB1012000E0002030BD9A
:10539000CA4302827047000010B50446FA488442AE
:1053A00008D101214015FEF7A7FE00216015FEF788
:1053B000A3FE17E0F548844208D101210015FEF74D
:1053C0009BFE00212015FEF797FE0BE0F04884427B
:1053D00008D10121C803FEF78FFE00214FF40040E1
:1053E000FEF78AFE10BD30B502460020002350684B
:1053F000E84C20400D790C6844EA052420435060B5
:105400009068E54C2040D1E902542C434D7944EAA0
:10541000450420439060D06A20F470000C7C641E28
:10542000E4B2234340EA0350D06230BD0021016062
:10543000017141718160C16001210174704721B126
:10544000826842F00102826003E0826822F0010279
:105450008260704721B1826842F48072826003E00A
:10546000826822F480728260704710B50023CBB24C
:105470001AB144681C43446002E044689C434460A1
:1054800010BD816841F0080181607047014600202D
:105490008A6802F008020AB1012000E0002070478B
:1054A000816841F0040181607047014600208A68EC
:1054B00002F004020AB1012000E00020704721B18F
:1054C000826842F4A002826003E0826822F4A002B3
:1054D00082607047014600208A6802F480020AB1A7
:1054E000012000E00020704710B50A46002100238B
:1054F000416821F46041531E41EA4331416010BDCF
:1055000021B1426842F40062426003E0426822F442
:10551000006242607047F0B504460D46002000214D
:10552000092D11DDE068A5F10A0606EB46070726FE
:1055300006FA07F18843A5F10A0606EB460603FAC8
:1055400006F10843E0600CE0206905EB45070726FB
:1055500006FA07F1884305EB450603FA06F108430E
:105560002061072A0FDA606B561E06EB86071F269E
:1055700006FA07F18843561E06EB860605FA06F181
:105580000843606322E00D2A0FDA206BD61F06EB7A
:1055900086071F2606FA07F18843D61F06EB860604
:1055A00005FA06F10843206310E0E06AA2F10D0657
:1055B00006EB86071F2606FA07F18843A2F10D06BF
:1055C00006EB860605FA06F10843E062F0BD21B15C
:1055D000826842F48012826003E0826822F48012C2
:1055E000826070470146C86C80B2704766484C3094
:1055F0000068704721B1426842F48062426003E073
:10560000426822F480624260704721B1426842F4ED
:105610008052426003E0426822F480524260704748
:105620000A460021816821F4E041114381607047FE
:1056300021B1826842F40042826003E0826822F471
:1056400000428260704721B1826842F40212826097
:1056500003E0826822F40212826070470146002053
:105660008A6802F400120AB1012000E000207047AD
:10567000F0B504461546002000220026092911DD58
:10568000E068A1F10A0707EB470C072707FA0CF2BD
:105690009043A1F10A0707EB470703FA07F210430B
:1056A000E0600CE0206901EB410C072707FA0CF2DF
:1056B000904301EB410703FA07F210432061A06B0E
:1056C000C0F30156EF1C06F1010CA7EB0C0707EB2A
:1056D000870C1F2707FA0CF29043EF1C06F1010C10
:1056E000A7EB0C0707EB870701FA07F21043A0634B
:1056F000F0BD10B50A4600210023816B21F4401152
:10570000531E41EA0351816310BD08B50023009385
:105710000090009B0B440093009B1A6008BD08B5E5
:10572000024600200090009201F12800009B1844DE
:1057300000900098006880B208BD0A4600214168C8
:10574000164B1940114341607047416282627047B5
:105750000A460021416821F01F0111434160704752
:1057600040B109490831096841F40001064A08328C
:10577000116007E004490831096821F40001024A78
:1057800008321160704700000024014000280140E9
:10579000003C0140FFFEF0FFFDF7F1FFFFFD3FFF82
:1057A0000246002013680B400BB1012000E00020EE
:1057B0007047CA430260704770B50246002000235C
:1057C00000240B125568CEB205EA060415681D4088
:1057D00015B10CB1012000E0002070BD00220A12BA
:1057E000D34303607047000010B50446FE4884426E
:1057F00009D101214806FEF78CFC00214FF0007012
:10580000FEF787FC08E001218806FEF782FC0021F4
:105810004FF08060FEF77DFC10BD30B502460020E1
:105820000023146824F002041460146844F0010496
:10583000146000E05B1C546804F001041CB94FF6CE
:10584000FF74A342F6D1546804F001040CB900209F
:105850006CE08C79012C04D1146844F0800414604D
:1058600003E0146824F080041460CC79012C04D186
:10587000146844F04004146003E0146824F0400409
:1058800014600C7A012C04D1146844F020041460D4
:1058900003E0146824F0200414604C7A012C04D135
:1058A000146844F01004146003E0146824F0100439
:1058B00014608C7A012C04D1146844F0080414603C
:1058C00003E0146824F008041460CC7A012C04D19D
:1058D000146844F00404146003E0146824F0040421
:1058E00014608C78A407CD7844EA05640D7944EA05
:1058F00005444D7944EA05540D886D1E2C43D4614E
:10590000146824F001041460002300E05B1C546858
:1059100004F001041CB14FF6FF74A342F6D15468A1
:1059200004F001040CB1002000E0012030BD10B5EE
:105930000021837A012202FA03F1AC4A126842F094
:105940000102AA4B1A60A94A1C3212688A43A74B6B
:105950001C331A60027BCAB9A44A0C3212688A430B
:10596000A24B0C331A604288C38842EA03439F4A21
:105970004032847A42F834300288838842EA034312
:105980009A4A4032847A02EBC4025360027B012AB5
:1059900019D1964A0C3212680A43944B0C331A60A0
:1059A0004288038842EA0343904A4032847A42F8AC
:1059B0003430C288838842EA03438C4A4032847A76
:1059C00002EBC4025360C27A3AB9884A121D1268C7
:1059D0008A43864B1B1D1A6006E0844A121D12681A
:1059E0000A43824B1B1D1A60028932B97F4A143266
:1059F00012688A437D4B14331A600289012A06D14A
:105A00007A4A143212680A43784B14331A60427B84
:105A1000012A06D1754A1C3212680A43734B1C33A3
:105A20001A60724A126822F00102704B1A6010BDAF
:105A300000218171C171017241728172C1728170E4
:105A4000C170032101710221417101210180704760
:105A50006649096841F00101644A1160114609680C
:105A600043F60E729143614A11601146096841EA9A
:105A7000002111601146096821F001011160704791
:105A800021B1026842F48032026003E0026822F42D
:105A9000803202607047E1B1026842F08002026029
:105AA0004FF4C272125842F480734FF4C272135012
:105AB0004FF4CA72125842F480734FF4CA721350F2
:105AC0004FF4D272125842F480734FF4D2721350D2
:105AD0001BE0026822F0800202604FF4C27212588A
